{
	"contracts/test.sol": {
		"test": {
			"abi": [
				{
					"inputs": [
						{
							"internalType": "address",
							"name": "borrower",
							"type": "address"
						},
						{
							"internalType": "uint256",
							"name": "amount",
							"type": "uint256"
						}
					],
					"name": "DeleteRecord",
					"outputs": [],
					"stateMutability": "nonpayable",
					"type": "function"
				},
				{
					"inputs": [
						{
							"internalType": "address",
							"name": "borrower",
							"type": "address"
						}
					],
					"name": "GetDept",
					"outputs": [
						{
							"internalType": "uint256",
							"name": "",
							"type": "uint256"
						}
					],
					"stateMutability": "view",
					"type": "function"
				},
				{
					"inputs": [
						{
							"internalType": "address",
							"name": "",
							"type": "address"
						},
						{
							"internalType": "uint256",
							"name": "",
							"type": "uint256"
						},
						{
							"internalType": "uint256",
							"name": "",
							"type": "uint256"
						}
					],
					"name": "_Borrower",
					"outputs": [
						{
							"internalType": "uint256",
							"name": "",
							"type": "uint256"
						}
					],
					"stateMutability": "view",
					"type": "function"
				},
				{
					"inputs": [
						{
							"internalType": "uint256",
							"name": "N",
							"type": "uint256"
						}
					],
					"name": "borrow",
					"outputs": [],
					"stateMutability": "nonpayable",
					"type": "function"
				}
			],
			"devdoc": {
				"kind": "dev",
				"methods": {},
				"version": 1
			},
			"evm": {
				"assembly": "    /* \"contracts/test.sol\":61:1344  contract test{... */\n  mstore(0x40, 0x80)\n  callvalue\n  dup1\n  iszero\n  tag_1\n  jumpi\n  0x00\n  dup1\n  revert\ntag_1:\n  pop\n  dataSize(sub_0)\n  dup1\n  dataOffset(sub_0)\n  0x00\n  codecopy\n  0x00\n  return\nstop\n\nsub_0: assembly {\n        /* \"contracts/test.sol\":61:1344  contract test{... */\n      mstore(0x40, 0x80)\n      callvalue\n      dup1\n      iszero\n      tag_1\n      jumpi\n      0x00\n      dup1\n      revert\n    tag_1:\n      pop\n      jumpi(tag_2, lt(calldatasize, 0x04))\n      shr(0xe0, calldataload(0x00))\n      dup1\n      0xa6d1bafd\n      eq\n      tag_3\n      jumpi\n      dup1\n      0xc5ebeaec\n      eq\n      tag_4\n      jumpi\n      dup1\n      0xdac17428\n      eq\n      tag_5\n      jumpi\n      dup1\n      0xdd40c51c\n      eq\n      tag_6\n      jumpi\n    tag_2:\n      0x00\n      dup1\n      revert\n        /* \"contracts/test.sol\":911:1341  function DeleteRecord(address borrower, uint amount) public{... */\n    tag_3:\n      tag_7\n      0x04\n      dup1\n      calldatasize\n      sub\n      dup2\n      add\n      swap1\n      tag_8\n      swap2\n      swap1\n      tag_9\n      jump\t// in\n    tag_8:\n      tag_10\n      jump\t// in\n    tag_7:\n      stop\n        /* \"contracts/test.sol\":138:339  function borrow(uint N) external{... */\n    tag_4:\n      tag_11\n      0x04\n      dup1\n      calldatasize\n      sub\n      dup2\n      add\n      swap1\n      tag_12\n      swap2\n      swap1\n      tag_13\n      jump\t// in\n    tag_12:\n      tag_14\n      jump\t// in\n    tag_11:\n      stop\n        /* \"contracts/test.sol\":81:125  mapping (address=>uint[][]) public _Borrower */\n    tag_5:\n      tag_15\n      0x04\n      dup1\n      calldatasize\n      sub\n      dup2\n      add\n      swap1\n      tag_16\n      swap2\n      swap1\n      tag_17\n      jump\t// in\n    tag_16:\n      tag_18\n      jump\t// in\n    tag_15:\n      mload(0x40)\n      tag_19\n      swap2\n      swap1\n      tag_20\n      jump\t// in\n    tag_19:\n      mload(0x40)\n      dup1\n      swap2\n      sub\n      swap1\n      return\n        /* \"contracts/test.sol\":347:593  function GetDept(address borrower) public view returns(uint){... */\n    tag_6:\n      tag_21\n      0x04\n      dup1\n      calldatasize\n      sub\n      dup2\n      add\n      swap1\n      tag_22\n      swap2\n      swap1\n      tag_23\n      jump\t// in\n    tag_22:\n      tag_24\n      jump\t// in\n    tag_21:\n      mload(0x40)\n      tag_25\n      swap2\n      swap1\n      tag_20\n      jump\t// in\n    tag_25:\n      mload(0x40)\n      dup1\n      swap2\n      sub\n      swap1\n      return\n        /* \"contracts/test.sol\":911:1341  function DeleteRecord(address borrower, uint amount) public{... */\n    tag_10:\n        /* \"contracts/test.sol\":981:1000  uint[2] memory data */\n      0x00\n        /* \"contracts/test.sol\":1003:1038  DecreaseDept(borrower, int(amount)) */\n      tag_27\n        /* \"contracts/test.sol\":1016:1024  borrower */\n      dup4\n        /* \"contracts/test.sol\":1030:1036  amount */\n      dup4\n        /* \"contracts/test.sol\":1003:1015  DecreaseDept */\n      tag_28\n        /* \"contracts/test.sol\":1003:1038  DecreaseDept(borrower, int(amount)) */\n      jump\t// in\n    tag_27:\n        /* \"contracts/test.sol\":981:1038  uint[2] memory data = DecreaseDept(borrower, int(amount)) */\n      swap1\n      pop\n        /* \"contracts/test.sol\":1053:1059  uint i */\n      0x00\n        /* \"contracts/test.sol\":1049:1185  for(uint i; i < _Borrower[borrower].length-data[1]; i++){... */\n    tag_29:\n        /* \"contracts/test.sol\":1092:1096  data */\n      dup2\n        /* \"contracts/test.sol\":1097:1098  1 */\n      0x01\n        /* \"contracts/test.sol\":1092:1099  data[1] */\n      0x02\n      dup2\n      lt\n      tag_32\n      jumpi\n      tag_33\n      tag_34\n      jump\t// in\n    tag_33:\n    tag_32:\n      0x20\n      mul\n      add\n      mload\n        /* \"contracts/test.sol\":1065:1074  _Borrower */\n      0x00\n        /* \"contracts/test.sol\":1065:1084  _Borrower[borrower] */\n      dup1\n        /* \"contracts/test.sol\":1075:1083  borrower */\n      dup7\n        /* \"contracts/test.sol\":1065:1084  _Borrower[borrower] */\n      0xffffffffffffffffffffffffffffffffffffffff\n      and\n      0xffffffffffffffffffffffffffffffffffffffff\n      and\n      dup2\n      mstore\n      0x20\n      add\n      swap1\n      dup2\n      mstore\n      0x20\n      add\n      0x00\n      keccak256\n        /* \"contracts/test.sol\":1065:1091  _Borrower[borrower].length */\n      dup1\n      sload\n      swap1\n      pop\n        /* \"contracts/test.sol\":1065:1099  _Borrower[borrower].length-data[1] */\n      tag_35\n      swap2\n      swap1\n      tag_36\n      jump\t// in\n    tag_35:\n        /* \"contracts/test.sol\":1061:1062  i */\n      dup2\n        /* \"contracts/test.sol\":1061:1099  i < _Borrower[borrower].length-data[1] */\n      lt\n        /* \"contracts/test.sol\":1049:1185  for(uint i; i < _Borrower[borrower].length-data[1]; i++){... */\n      iszero\n      tag_30\n      jumpi\n        /* \"contracts/test.sol\":1143:1152  _Borrower */\n      0x00\n        /* \"contracts/test.sol\":1143:1162  _Borrower[borrower] */\n      dup1\n        /* \"contracts/test.sol\":1153:1161  borrower */\n      dup6\n        /* \"contracts/test.sol\":1143:1162  _Borrower[borrower] */\n      0xffffffffffffffffffffffffffffffffffffffff\n      and\n      0xffffffffffffffffffffffffffffffffffffffff\n      and\n      dup2\n      mstore\n      0x20\n      add\n      swap1\n      dup2\n      mstore\n      0x20\n      add\n      0x00\n      keccak256\n        /* \"contracts/test.sol\":1165:1169  data */\n      dup3\n        /* \"contracts/test.sol\":1170:1171  1 */\n      0x01\n        /* \"contracts/test.sol\":1165:1172  data[1] */\n      0x02\n      dup2\n      lt\n      tag_37\n      jumpi\n      tag_38\n      tag_34\n      jump\t// in\n    tag_38:\n    tag_37:\n      0x20\n      mul\n      add\n      mload\n        /* \"contracts/test.sol\":1163:1164  i */\n      dup3\n        /* \"contracts/test.sol\":1163:1172  i+data[1] */\n      tag_39\n      swap2\n      swap1\n      tag_40\n      jump\t// in\n    tag_39:\n        /* \"contracts/test.sol\":1143:1173  _Borrower[borrower][i+data[1]] */\n      dup2\n      sload\n      dup2\n      lt\n      tag_41\n      jumpi\n      tag_42\n      tag_34\n      jump\t// in\n    tag_42:\n    tag_41:\n      swap1\n      0x00\n      mstore\n      keccak256(0x00, 0x20)\n      add\n        /* \"contracts/test.sol\":1118:1127  _Borrower */\n      0x00\n        /* \"contracts/test.sol\":1118:1137  _Borrower[borrower] */\n      dup1\n        /* \"contracts/test.sol\":1128:1136  borrower */\n      dup7\n        /* \"contracts/test.sol\":1118:1137  _Borrower[borrower] */\n      0xffffffffffffffffffffffffffffffffffffffff\n      and\n      0xffffffffffffffffffffffffffffffffffffffff\n      and\n      dup2\n      mstore\n      0x20\n      add\n      swap1\n      dup2\n      mstore\n      0x20\n      add\n      0x00\n      keccak256\n        /* \"contracts/test.sol\":1138:1139  i */\n      dup3\n        /* \"contracts/test.sol\":1118:1140  _Borrower[borrower][i] */\n      dup2\n      sload\n      dup2\n      lt\n      tag_44\n      jumpi\n      tag_45\n      tag_34\n      jump\t// in\n    tag_45:\n    tag_44:\n      swap1\n      0x00\n      mstore\n      keccak256(0x00, 0x20)\n      add\n        /* \"contracts/test.sol\":1118:1173  _Borrower[borrower][i] = _Borrower[borrower][i+data[1]] */\n      swap1\n      dup1\n      sload\n      tag_47\n      swap3\n      swap2\n      swap1\n      tag_48\n      jump\t// in\n    tag_47:\n      pop\n        /* \"contracts/test.sol\":1101:1104  i++ */\n      dup1\n      dup1\n      tag_49\n      swap1\n      tag_50\n      jump\t// in\n    tag_49:\n      swap2\n      pop\n      pop\n        /* \"contracts/test.sol\":1049:1185  for(uint i; i < _Borrower[borrower].length-data[1]; i++){... */\n      jump(tag_29)\n    tag_30:\n      pop\n        /* \"contracts/test.sol\":1200:1206  uint i */\n      0x00\n        /* \"contracts/test.sol\":1195:1288  for (uint i; i < data[1]; i++) ... */\n    tag_51:\n        /* \"contracts/test.sol\":1212:1216  data */\n      dup2\n        /* \"contracts/test.sol\":1217:1218  1 */\n      0x01\n        /* \"contracts/test.sol\":1212:1219  data[1] */\n      0x02\n      dup2\n      lt\n      tag_54\n      jumpi\n      tag_55\n      tag_34\n      jump\t// in\n    tag_55:\n    tag_54:\n      0x20\n      mul\n      add\n      mload\n        /* \"contracts/test.sol\":1208:1209  i */\n      dup2\n        /* \"contracts/test.sol\":1208:1219  i < data[1] */\n      lt\n        /* \"contracts/test.sol\":1195:1288  for (uint i; i < data[1]; i++) ... */\n      iszero\n      tag_52\n      jumpi\n        /* \"contracts/test.sol\":1251:1260  _Borrower */\n      0x00\n        /* \"contracts/test.sol\":1251:1270  _Borrower[borrower] */\n      dup1\n        /* \"contracts/test.sol\":1261:1269  borrower */\n      dup6\n        /* \"contracts/test.sol\":1251:1270  _Borrower[borrower] */\n      0xffffffffffffffffffffffffffffffffffffffff\n      and\n      0xffffffffffffffffffffffffffffffffffffffff\n      and\n      dup2\n      mstore\n      0x20\n      add\n      swap1\n      dup2\n      mstore\n      0x20\n      add\n      0x00\n      keccak256\n        /* \"contracts/test.sol\":1251:1276  _Borrower[borrower].pop() */\n      dup1\n      sload\n      dup1\n      tag_56\n      jumpi\n      tag_57\n      tag_58\n      jump\t// in\n    tag_57:\n    tag_56:\n      0x01\n      swap1\n      sub\n      dup2\n      dup2\n      swap1\n      0x00\n      mstore\n      keccak256(0x00, 0x20)\n      add\n      0x00\n      tag_60\n      swap2\n      swap1\n      tag_61\n      jump\t// in\n    tag_60:\n      swap1\n      sstore\n        /* \"contracts/test.sol\":1221:1224  i++ */\n      dup1\n      dup1\n      tag_62\n      swap1\n      tag_50\n      jump\t// in\n    tag_62:\n      swap2\n      pop\n      pop\n        /* \"contracts/test.sol\":1195:1288  for (uint i; i < data[1]; i++) ... */\n      jump(tag_51)\n    tag_52:\n      pop\n        /* \"contracts/test.sol\":1326:1330  data */\n      dup1\n        /* \"contracts/test.sol\":1331:1332  0 */\n      0x00\n        /* \"contracts/test.sol\":1326:1333  data[0] */\n      0x02\n      dup2\n      lt\n      tag_63\n      jumpi\n      tag_64\n      tag_34\n      jump\t// in\n    tag_64:\n    tag_63:\n      0x20\n      mul\n      add\n      mload\n        /* \"contracts/test.sol\":1298:1307  _Borrower */\n      0x00\n        /* \"contracts/test.sol\":1298:1317  _Borrower[borrower] */\n      dup1\n        /* \"contracts/test.sol\":1308:1316  borrower */\n      dup6\n        /* \"contracts/test.sol\":1298:1317  _Borrower[borrower] */\n      0xffffffffffffffffffffffffffffffffffffffff\n      and\n      0xffffffffffffffffffffffffffffffffffffffff\n      and\n      dup2\n      mstore\n      0x20\n      add\n      swap1\n      dup2\n      mstore\n      0x20\n      add\n      0x00\n      keccak256\n        /* \"contracts/test.sol\":1318:1319  0 */\n      0x00\n        /* \"contracts/test.sol\":1298:1320  _Borrower[borrower][0] */\n      dup2\n      sload\n      dup2\n      lt\n      tag_65\n      jumpi\n      tag_66\n      tag_34\n      jump\t// in\n    tag_66:\n    tag_65:\n      swap1\n      0x00\n      mstore\n      keccak256(0x00, 0x20)\n      add\n        /* \"contracts/test.sol\":1321:1322  1 */\n      0x01\n        /* \"contracts/test.sol\":1298:1323  _Borrower[borrower][0][1] */\n      dup2\n      sload\n      dup2\n      lt\n      tag_68\n      jumpi\n      tag_69\n      tag_34\n      jump\t// in\n    tag_69:\n    tag_68:\n      swap1\n      0x00\n      mstore\n      keccak256(0x00, 0x20)\n      add\n        /* \"contracts/test.sol\":1298:1333  _Borrower[borrower][0][1] = data[0] */\n      dup2\n      swap1\n      sstore\n      pop\n        /* \"contracts/test.sol\":970:1341  {... */\n      pop\n        /* \"contracts/test.sol\":911:1341  function DeleteRecord(address borrower, uint amount) public{... */\n      pop\n      pop\n      jump\t// out\n        /* \"contracts/test.sol\":138:339  function borrow(uint N) external{... */\n    tag_14:\n        /* \"contracts/test.sol\":181:188  uint am */\n      0x00\n        /* \"contracts/test.sol\":204:210  uint i */\n      dup1\n        /* \"contracts/test.sol\":199:332  for (uint i; i < N; i++) ... */\n    tag_72:\n        /* \"contracts/test.sol\":216:217  N */\n      dup3\n        /* \"contracts/test.sol\":212:213  i */\n      dup2\n        /* \"contracts/test.sol\":212:217  i < N */\n      lt\n        /* \"contracts/test.sol\":199:332  for (uint i; i < N; i++) ... */\n      iszero\n      tag_73\n      jumpi\n        /* \"contracts/test.sol\":253:255  10 */\n      0x0a\n        /* \"contracts/test.sol\":247:255  am += 10 */\n      dup3\n      tag_75\n      swap2\n      swap1\n      tag_40\n      jump\t// in\n    tag_75:\n      swap2\n      pop\n        /* \"contracts/test.sol\":268:320  _Borrower[msg.sender].push() = [block.timestamp, am] */\n      mload(0x40)\n      dup1\n      0x40\n      add\n      0x40\n      mstore\n      dup1\n        /* \"contracts/test.sol\":300:315  block.timestamp */\n      timestamp\n        /* \"contracts/test.sol\":268:320  _Borrower[msg.sender].push() = [block.timestamp, am] */\n      dup2\n      mstore\n      0x20\n      add\n        /* \"contracts/test.sol\":317:319  am */\n      dup4\n        /* \"contracts/test.sol\":268:320  _Borrower[msg.sender].push() = [block.timestamp, am] */\n      dup2\n      mstore\n      pop\n        /* \"contracts/test.sol\":268:277  _Borrower */\n      0x00\n        /* \"contracts/test.sol\":268:289  _Borrower[msg.sender] */\n      dup1\n        /* \"contracts/test.sol\":278:288  msg.sender */\n      caller\n        /* \"contracts/test.sol\":268:289  _Borrower[msg.sender] */\n      0xffffffffffffffffffffffffffffffffffffffff\n      and\n      0xffffffffffffffffffffffffffffffffffffffff\n      and\n      dup2\n      mstore\n      0x20\n      add\n      swap1\n      dup2\n      mstore\n      0x20\n      add\n      0x00\n      keccak256\n        /* \"contracts/test.sol\":268:296  _Borrower[msg.sender].push() */\n      0x01\n      dup2\n      0x01\n      dup2\n      sload\n      add\n      dup1\n      dup3\n      sstore\n      dup1\n      swap2\n      pop\n      pop\n      sub\n      swap1\n      0x00\n      mstore\n      keccak256(0x00, 0x20)\n      add\n        /* \"contracts/test.sol\":268:320  _Borrower[msg.sender].push() = [block.timestamp, am] */\n      swap1\n      0x02\n      tag_77\n      swap3\n      swap2\n      swap1\n      tag_78\n      jump\t// in\n    tag_77:\n      pop\n        /* \"contracts/test.sol\":219:222  i++ */\n      dup1\n      dup1\n      tag_79\n      swap1\n      tag_50\n      jump\t// in\n    tag_79:\n      swap2\n      pop\n      pop\n        /* \"contracts/test.sol\":199:332  for (uint i; i < N; i++) ... */\n      jump(tag_72)\n    tag_73:\n      pop\n        /* \"contracts/test.sol\":170:339  {... */\n      pop\n        /* \"contracts/test.sol\":138:339  function borrow(uint N) external{... */\n      pop\n      jump\t// out\n        /* \"contracts/test.sol\":81:125  mapping (address=>uint[][]) public _Borrower */\n    tag_18:\n      mstore(0x20, 0x00)\n      dup3\n      0x00\n      mstore\n      keccak256(0x00, 0x40)\n      dup3\n      dup2\n      sload\n      dup2\n      lt\n      tag_80\n      jumpi\n      0x00\n      dup1\n      revert\n    tag_80:\n      swap1\n      0x00\n      mstore\n      keccak256(0x00, 0x20)\n      add\n      dup2\n      dup2\n      sload\n      dup2\n      lt\n      tag_82\n      jumpi\n      0x00\n      dup1\n      revert\n    tag_82:\n      swap1\n      0x00\n      mstore\n      keccak256(0x00, 0x20)\n      add\n      0x00\n      swap3\n      pop\n      swap3\n      pop\n      pop\n      pop\n      sload\n      dup2\n      jump\t// out\n        /* \"contracts/test.sol\":347:593  function GetDept(address borrower) public view returns(uint){... */\n    tag_24:\n        /* \"contracts/test.sol\":402:406  uint */\n      0x00\n        /* \"contracts/test.sol\":418:429  uint amount */\n      dup1\n        /* \"contracts/test.sol\":445:451  uint i */\n      0x00\n        /* \"contracts/test.sol\":440:562  for (uint i; i < _Borrower[borrower].length; i++) ... */\n    tag_85:\n        /* \"contracts/test.sol\":457:466  _Borrower */\n      0x00\n        /* \"contracts/test.sol\":457:476  _Borrower[borrower] */\n      dup1\n        /* \"contracts/test.sol\":467:475  borrower */\n      dup6\n        /* \"contracts/test.sol\":457:476  _Borrower[borrower] */\n      0xffffffffffffffffffffffffffffffffffffffff\n      and\n      0xffffffffffffffffffffffffffffffffffffffff\n      and\n      dup2\n      mstore\n      0x20\n      add\n      swap1\n      dup2\n      mstore\n      0x20\n      add\n      0x00\n      keccak256\n        /* \"contracts/test.sol\":457:483  _Borrower[borrower].length */\n      dup1\n      sload\n      swap1\n      pop\n        /* \"contracts/test.sol\":453:454  i */\n      dup2\n        /* \"contracts/test.sol\":453:483  i < _Borrower[borrower].length */\n      lt\n        /* \"contracts/test.sol\":440:562  for (uint i; i < _Borrower[borrower].length; i++) ... */\n      iszero\n      tag_86\n      jumpi\n        /* \"contracts/test.sol\":525:534  _Borrower */\n      0x00\n        /* \"contracts/test.sol\":525:544  _Borrower[borrower] */\n      dup1\n        /* \"contracts/test.sol\":535:543  borrower */\n      dup6\n        /* \"contracts/test.sol\":525:544  _Borrower[borrower] */\n      0xffffffffffffffffffffffffffffffffffffffff\n      and\n      0xffffffffffffffffffffffffffffffffffffffff\n      and\n      dup2\n      mstore\n      0x20\n      add\n      swap1\n      dup2\n      mstore\n      0x20\n      add\n      0x00\n      keccak256\n        /* \"contracts/test.sol\":545:546  i */\n      dup2\n        /* \"contracts/test.sol\":525:547  _Borrower[borrower][i] */\n      dup2\n      sload\n      dup2\n      lt\n      tag_88\n      jumpi\n      tag_89\n      tag_34\n      jump\t// in\n    tag_89:\n    tag_88:\n      swap1\n      0x00\n      mstore\n      keccak256(0x00, 0x20)\n      add\n        /* \"contracts/test.sol\":548:549  1 */\n      0x01\n        /* \"contracts/test.sol\":525:550  _Borrower[borrower][i][1] */\n      dup2\n      sload\n      dup2\n      lt\n      tag_91\n      jumpi\n      tag_92\n      tag_34\n      jump\t// in\n    tag_92:\n    tag_91:\n      swap1\n      0x00\n      mstore\n      keccak256(0x00, 0x20)\n      add\n      sload\n        /* \"contracts/test.sol\":515:550  amount += _Borrower[borrower][i][1] */\n      dup3\n      tag_94\n      swap2\n      swap1\n      tag_40\n      jump\t// in\n    tag_94:\n      swap2\n      pop\n        /* \"contracts/test.sol\":485:488  i++ */\n      dup1\n      dup1\n      tag_95\n      swap1\n      tag_50\n      jump\t// in\n    tag_95:\n      swap2\n      pop\n      pop\n        /* \"contracts/test.sol\":440:562  for (uint i; i < _Borrower[borrower].length; i++) ... */\n      jump(tag_85)\n    tag_86:\n      pop\n        /* \"contracts/test.sol\":579:585  amount */\n      dup1\n        /* \"contracts/test.sol\":572:585  return amount */\n      swap2\n      pop\n      pop\n        /* \"contracts/test.sol\":347:593  function GetDept(address borrower) public view returns(uint){... */\n      swap2\n      swap1\n      pop\n      jump\t// out\n        /* \"contracts/test.sol\":601:904  function DecreaseDept(address borrower, int amount) private view returns(uint[2] memory){... */\n    tag_28:\n        /* \"contracts/test.sol\":674:688  uint[2] memory */\n      tag_96\n      tag_97\n      jump\t// in\n    tag_96:\n        /* \"contracts/test.sol\":700:709  int index */\n      0x00\n        /* \"contracts/test.sol\":725:731  uint i */\n      dup1\n        /* \"contracts/test.sol\":720:849  for (uint i; amount > 0; i++) ... */\n    tag_99:\n        /* \"contracts/test.sol\":742:743  0 */\n      0x00\n        /* \"contracts/test.sol\":733:739  amount */\n      dup5\n        /* \"contracts/test.sol\":733:743  amount > 0 */\n      sgt\n        /* \"contracts/test.sol\":720:849  for (uint i; amount > 0; i++) ... */\n      iszero\n      tag_100\n      jumpi\n        /* \"contracts/test.sol\":775:782  index++ */\n      dup2\n      dup1\n      tag_102\n      swap1\n      tag_103\n      jump\t// in\n    tag_102:\n      swap3\n      pop\n      pop\n        /* \"contracts/test.sol\":811:820  _Borrower */\n      0x00\n        /* \"contracts/test.sol\":811:830  _Borrower[borrower] */\n      dup1\n        /* \"contracts/test.sol\":821:829  borrower */\n      dup7\n        /* \"contracts/test.sol\":811:830  _Borrower[borrower] */\n      0xffffffffffffffffffffffffffffffffffffffff\n      and\n      0xffffffffffffffffffffffffffffffffffffffff\n      and\n      dup2\n      mstore\n      0x20\n      add\n      swap1\n      dup2\n      mstore\n      0x20\n      add\n      0x00\n      keccak256\n        /* \"contracts/test.sol\":831:832  i */\n      dup2\n        /* \"contracts/test.sol\":811:833  _Borrower[borrower][i] */\n      dup2\n      sload\n      dup2\n      lt\n      tag_104\n      jumpi\n      tag_105\n      tag_34\n      jump\t// in\n    tag_105:\n    tag_104:\n      swap1\n      0x00\n      mstore\n      keccak256(0x00, 0x20)\n      add\n        /* \"contracts/test.sol\":834:835  1 */\n      0x01\n        /* \"contracts/test.sol\":811:836  _Borrower[borrower][i][1] */\n      dup2\n      sload\n      dup2\n      lt\n      tag_107\n      jumpi\n      tag_108\n      tag_34\n      jump\t// in\n    tag_108:\n    tag_107:\n      swap1\n      0x00\n      mstore\n      keccak256(0x00, 0x20)\n      add\n      sload\n        /* \"contracts/test.sol\":797:837  amount -= int(_Borrower[borrower][i][1]) */\n      dup5\n      tag_110\n      swap2\n      swap1\n      tag_111\n      jump\t// in\n    tag_110:\n      swap4\n      pop\n        /* \"contracts/test.sol\":745:748  i++ */\n      dup1\n      dup1\n      tag_112\n      swap1\n      tag_50\n      jump\t// in\n    tag_112:\n      swap2\n      pop\n      pop\n        /* \"contracts/test.sol\":720:849  for (uint i; amount > 0; i++) ... */\n      jump(tag_99)\n    tag_100:\n      pop\n        /* \"contracts/test.sol\":859:896  return [uint(-amount), uint(index-1)] */\n      mload(0x40)\n      dup1\n      0x40\n      add\n      0x40\n      mstore\n      dup1\n        /* \"contracts/test.sol\":873:879  amount */\n      dup5\n        /* \"contracts/test.sol\":872:879  -amount */\n      tag_113\n      swap1\n      tag_114\n      jump\t// in\n    tag_113:\n        /* \"contracts/test.sol\":859:896  return [uint(-amount), uint(index-1)] */\n      dup2\n      mstore\n      0x20\n      add\n        /* \"contracts/test.sol\":893:894  1 */\n      0x01\n        /* \"contracts/test.sol\":887:892  index */\n      dup4\n        /* \"contracts/test.sol\":887:894  index-1 */\n      tag_115\n      swap2\n      swap1\n      tag_111\n      jump\t// in\n    tag_115:\n        /* \"contracts/test.sol\":859:896  return [uint(-amount), uint(index-1)] */\n      dup2\n      mstore\n      pop\n      swap2\n      pop\n      pop\n        /* \"contracts/test.sol\":601:904  function DecreaseDept(address borrower, int amount) private view returns(uint[2] memory){... */\n      swap3\n      swap2\n      pop\n      pop\n      jump\t// out\n    tag_48:\n      dup3\n      dup1\n      sload\n      dup3\n      dup3\n      sstore\n      swap1\n      0x00\n      mstore\n      keccak256(0x00, 0x20)\n      swap1\n      dup2\n      add\n      swap3\n      dup3\n      iszero\n      tag_116\n      jumpi\n      0x00\n      mstore\n      keccak256(0x00, 0x20)\n      swap2\n      dup3\n      add\n    tag_117:\n      dup3\n      dup2\n      gt\n      iszero\n      tag_118\n      jumpi\n      dup3\n      sload\n      dup3\n      sstore\n      swap2\n      0x01\n      add\n      swap2\n      swap1\n      0x01\n      add\n      swap1\n      jump(tag_117)\n    tag_118:\n    tag_116:\n      pop\n      swap1\n      pop\n      tag_119\n      swap2\n      swap1\n      tag_120\n      jump\t// in\n    tag_119:\n      pop\n      swap1\n      jump\t// out\n    tag_61:\n      pop\n      dup1\n      sload\n      0x00\n      dup3\n      sstore\n      swap1\n      0x00\n      mstore\n      keccak256(0x00, 0x20)\n      swap1\n      dup2\n      add\n      swap1\n      tag_122\n      swap2\n      swap1\n      tag_120\n      jump\t// in\n    tag_122:\n      pop\n      jump\t// out\n    tag_78:\n      dup3\n      dup1\n      sload\n      dup3\n      dup3\n      sstore\n      swap1\n      0x00\n      mstore\n      keccak256(0x00, 0x20)\n      swap1\n      dup2\n      add\n      swap3\n      dup3\n      iszero\n      tag_123\n      jumpi\n      swap2\n      0x20\n      mul\n      dup3\n      add\n    tag_124:\n      dup3\n      dup2\n      gt\n      iszero\n      tag_125\n      jumpi\n      dup3\n      mload\n      dup3\n      sstore\n      swap2\n      0x20\n      add\n      swap2\n      swap1\n      0x01\n      add\n      swap1\n      jump(tag_124)\n    tag_125:\n    tag_123:\n      pop\n      swap1\n      pop\n      tag_126\n      swap2\n      swap1\n      tag_120\n      jump\t// in\n    tag_126:\n      pop\n      swap1\n      jump\t// out\n    tag_97:\n      mload(0x40)\n      dup1\n      0x40\n      add\n      0x40\n      mstore\n      dup1\n      0x02\n      swap1\n      0x20\n      dup3\n      mul\n      dup1\n      calldatasize\n      dup4\n      calldatacopy\n      dup1\n      dup3\n      add\n      swap2\n      pop\n      pop\n      swap1\n      pop\n      pop\n      swap1\n      jump\t// out\n    tag_120:\n    tag_127:\n      dup1\n      dup3\n      gt\n      iszero\n      tag_128\n      jumpi\n      0x00\n      dup2\n      0x00\n      swap1\n      sstore\n      pop\n      0x01\n      add\n      jump(tag_127)\n    tag_128:\n      pop\n      swap1\n      jump\t// out\n        /* \"#utility.yul\":88:205   */\n    tag_130:\n        /* \"#utility.yul\":197:198   */\n      0x00\n        /* \"#utility.yul\":194:195   */\n      dup1\n        /* \"#utility.yul\":187:199   */\n      revert\n        /* \"#utility.yul\":334:460   */\n    tag_132:\n        /* \"#utility.yul\":371:378   */\n      0x00\n        /* \"#utility.yul\":411:453   */\n      0xffffffffffffffffffffffffffffffffffffffff\n        /* \"#utility.yul\":404:409   */\n      dup3\n        /* \"#utility.yul\":400:454   */\n      and\n        /* \"#utility.yul\":389:454   */\n      swap1\n      pop\n        /* \"#utility.yul\":334:460   */\n      swap2\n      swap1\n      pop\n      jump\t// out\n        /* \"#utility.yul\":466:562   */\n    tag_133:\n        /* \"#utility.yul\":503:510   */\n      0x00\n        /* \"#utility.yul\":532:556   */\n      tag_148\n        /* \"#utility.yul\":550:555   */\n      dup3\n        /* \"#utility.yul\":532:556   */\n      tag_132\n      jump\t// in\n    tag_148:\n        /* \"#utility.yul\":521:556   */\n      swap1\n      pop\n        /* \"#utility.yul\":466:562   */\n      swap2\n      swap1\n      pop\n      jump\t// out\n        /* \"#utility.yul\":568:690   */\n    tag_134:\n        /* \"#utility.yul\":641:665   */\n      tag_150\n        /* \"#utility.yul\":659:664   */\n      dup2\n        /* \"#utility.yul\":641:665   */\n      tag_133\n      jump\t// in\n    tag_150:\n        /* \"#utility.yul\":634:639   */\n      dup2\n        /* \"#utility.yul\":631:666   */\n      eq\n        /* \"#utility.yul\":621:684   */\n      tag_151\n      jumpi\n        /* \"#utility.yul\":680:681   */\n      0x00\n        /* \"#utility.yul\":677:678   */\n      dup1\n        /* \"#utility.yul\":670:682   */\n      revert\n        /* \"#utility.yul\":621:684   */\n    tag_151:\n        /* \"#utility.yul\":568:690   */\n      pop\n      jump\t// out\n        /* \"#utility.yul\":696:835   */\n    tag_135:\n        /* \"#utility.yul\":742:747   */\n      0x00\n        /* \"#utility.yul\":780:786   */\n      dup2\n        /* \"#utility.yul\":767:787   */\n      calldataload\n        /* \"#utility.yul\":758:787   */\n      swap1\n      pop\n        /* \"#utility.yul\":796:829   */\n      tag_153\n        /* \"#utility.yul\":823:828   */\n      dup2\n        /* \"#utility.yul\":796:829   */\n      tag_134\n      jump\t// in\n    tag_153:\n        /* \"#utility.yul\":696:835   */\n      swap3\n      swap2\n      pop\n      pop\n      jump\t// out\n        /* \"#utility.yul\":841:918   */\n    tag_136:\n        /* \"#utility.yul\":878:885   */\n      0x00\n        /* \"#utility.yul\":907:912   */\n      dup2\n        /* \"#utility.yul\":896:912   */\n      swap1\n      pop\n        /* \"#utility.yul\":841:918   */\n      swap2\n      swap1\n      pop\n      jump\t// out\n        /* \"#utility.yul\":924:1046   */\n    tag_137:\n        /* \"#utility.yul\":997:1021   */\n      tag_156\n        /* \"#utility.yul\":1015:1020   */\n      dup2\n        /* \"#utility.yul\":997:1021   */\n      tag_136\n      jump\t// in\n    tag_156:\n        /* \"#utility.yul\":990:995   */\n      dup2\n        /* \"#utility.yul\":987:1022   */\n      eq\n        /* \"#utility.yul\":977:1040   */\n      tag_157\n      jumpi\n        /* \"#utility.yul\":1036:1037   */\n      0x00\n        /* \"#utility.yul\":1033:1034   */\n      dup1\n        /* \"#utility.yul\":1026:1038   */\n      revert\n        /* \"#utility.yul\":977:1040   */\n    tag_157:\n        /* \"#utility.yul\":924:1046   */\n      pop\n      jump\t// out\n        /* \"#utility.yul\":1052:1191   */\n    tag_138:\n        /* \"#utility.yul\":1098:1103   */\n      0x00\n        /* \"#utility.yul\":1136:1142   */\n      dup2\n        /* \"#utility.yul\":1123:1143   */\n      calldataload\n        /* \"#utility.yul\":1114:1143   */\n      swap1\n      pop\n        /* \"#utility.yul\":1152:1185   */\n      tag_159\n        /* \"#utility.yul\":1179:1184   */\n      dup2\n        /* \"#utility.yul\":1152:1185   */\n      tag_137\n      jump\t// in\n    tag_159:\n        /* \"#utility.yul\":1052:1191   */\n      swap3\n      swap2\n      pop\n      pop\n      jump\t// out\n        /* \"#utility.yul\":1197:1671   */\n    tag_9:\n        /* \"#utility.yul\":1265:1271   */\n      0x00\n        /* \"#utility.yul\":1273:1279   */\n      dup1\n        /* \"#utility.yul\":1322:1324   */\n      0x40\n        /* \"#utility.yul\":1310:1319   */\n      dup4\n        /* \"#utility.yul\":1301:1308   */\n      dup6\n        /* \"#utility.yul\":1297:1320   */\n      sub\n        /* \"#utility.yul\":1293:1325   */\n      slt\n        /* \"#utility.yul\":1290:1409   */\n      iszero\n      tag_161\n      jumpi\n        /* \"#utility.yul\":1328:1407   */\n      tag_162\n      tag_130\n      jump\t// in\n    tag_162:\n        /* \"#utility.yul\":1290:1409   */\n    tag_161:\n        /* \"#utility.yul\":1448:1449   */\n      0x00\n        /* \"#utility.yul\":1473:1526   */\n      tag_163\n        /* \"#utility.yul\":1518:1525   */\n      dup6\n        /* \"#utility.yul\":1509:1515   */\n      dup3\n        /* \"#utility.yul\":1498:1507   */\n      dup7\n        /* \"#utility.yul\":1494:1516   */\n      add\n        /* \"#utility.yul\":1473:1526   */\n      tag_135\n      jump\t// in\n    tag_163:\n        /* \"#utility.yul\":1463:1526   */\n      swap3\n      pop\n        /* \"#utility.yul\":1419:1536   */\n      pop\n        /* \"#utility.yul\":1575:1577   */\n      0x20\n        /* \"#utility.yul\":1601:1654   */\n      tag_164\n        /* \"#utility.yul\":1646:1653   */\n      dup6\n        /* \"#utility.yul\":1637:1643   */\n      dup3\n        /* \"#utility.yul\":1626:1635   */\n      dup7\n        /* \"#utility.yul\":1622:1644   */\n      add\n        /* \"#utility.yul\":1601:1654   */\n      tag_138\n      jump\t// in\n    tag_164:\n        /* \"#utility.yul\":1591:1654   */\n      swap2\n      pop\n        /* \"#utility.yul\":1546:1664   */\n      pop\n        /* \"#utility.yul\":1197:1671   */\n      swap3\n      pop\n      swap3\n      swap1\n      pop\n      jump\t// out\n        /* \"#utility.yul\":1677:2006   */\n    tag_13:\n        /* \"#utility.yul\":1736:1742   */\n      0x00\n        /* \"#utility.yul\":1785:1787   */\n      0x20\n        /* \"#utility.yul\":1773:1782   */\n      dup3\n        /* \"#utility.yul\":1764:1771   */\n      dup5\n        /* \"#utility.yul\":1760:1783   */\n      sub\n        /* \"#utility.yul\":1756:1788   */\n      slt\n        /* \"#utility.yul\":1753:1872   */\n      iszero\n      tag_166\n      jumpi\n        /* \"#utility.yul\":1791:1870   */\n      tag_167\n      tag_130\n      jump\t// in\n    tag_167:\n        /* \"#utility.yul\":1753:1872   */\n    tag_166:\n        /* \"#utility.yul\":1911:1912   */\n      0x00\n        /* \"#utility.yul\":1936:1989   */\n      tag_168\n        /* \"#utility.yul\":1981:1988   */\n      dup5\n        /* \"#utility.yul\":1972:1978   */\n      dup3\n        /* \"#utility.yul\":1961:1970   */\n      dup6\n        /* \"#utility.yul\":1957:1979   */\n      add\n        /* \"#utility.yul\":1936:1989   */\n      tag_138\n      jump\t// in\n    tag_168:\n        /* \"#utility.yul\":1926:1989   */\n      swap2\n      pop\n        /* \"#utility.yul\":1882:1999   */\n      pop\n        /* \"#utility.yul\":1677:2006   */\n      swap3\n      swap2\n      pop\n      pop\n      jump\t// out\n        /* \"#utility.yul\":2012:2631   */\n    tag_17:\n        /* \"#utility.yul\":2089:2095   */\n      0x00\n        /* \"#utility.yul\":2097:2103   */\n      dup1\n        /* \"#utility.yul\":2105:2111   */\n      0x00\n        /* \"#utility.yul\":2154:2156   */\n      0x60\n        /* \"#utility.yul\":2142:2151   */\n      dup5\n        /* \"#utility.yul\":2133:2140   */\n      dup7\n        /* \"#utility.yul\":2129:2152   */\n      sub\n        /* \"#utility.yul\":2125:2157   */\n      slt\n        /* \"#utility.yul\":2122:2241   */\n      iszero\n      tag_170\n      jumpi\n        /* \"#utility.yul\":2160:2239   */\n      tag_171\n      tag_130\n      jump\t// in\n    tag_171:\n        /* \"#utility.yul\":2122:2241   */\n    tag_170:\n        /* \"#utility.yul\":2280:2281   */\n      0x00\n        /* \"#utility.yul\":2305:2358   */\n      tag_172\n        /* \"#utility.yul\":2350:2357   */\n      dup7\n        /* \"#utility.yul\":2341:2347   */\n      dup3\n        /* \"#utility.yul\":2330:2339   */\n      dup8\n        /* \"#utility.yul\":2326:2348   */\n      add\n        /* \"#utility.yul\":2305:2358   */\n      tag_135\n      jump\t// in\n    tag_172:\n        /* \"#utility.yul\":2295:2358   */\n      swap4\n      pop\n        /* \"#utility.yul\":2251:2368   */\n      pop\n        /* \"#utility.yul\":2407:2409   */\n      0x20\n        /* \"#utility.yul\":2433:2486   */\n      tag_173\n        /* \"#utility.yul\":2478:2485   */\n      dup7\n        /* \"#utility.yul\":2469:2475   */\n      dup3\n        /* \"#utility.yul\":2458:2467   */\n      dup8\n        /* \"#utility.yul\":2454:2476   */\n      add\n        /* \"#utility.yul\":2433:2486   */\n      tag_138\n      jump\t// in\n    tag_173:\n        /* \"#utility.yul\":2423:2486   */\n      swap3\n      pop\n        /* \"#utility.yul\":2378:2496   */\n      pop\n        /* \"#utility.yul\":2535:2537   */\n      0x40\n        /* \"#utility.yul\":2561:2614   */\n      tag_174\n        /* \"#utility.yul\":2606:2613   */\n      dup7\n        /* \"#utility.yul\":2597:2603   */\n      dup3\n        /* \"#utility.yul\":2586:2595   */\n      dup8\n        /* \"#utility.yul\":2582:2604   */\n      add\n        /* \"#utility.yul\":2561:2614   */\n      tag_138\n      jump\t// in\n    tag_174:\n        /* \"#utility.yul\":2551:2614   */\n      swap2\n      pop\n        /* \"#utility.yul\":2506:2624   */\n      pop\n        /* \"#utility.yul\":2012:2631   */\n      swap3\n      pop\n      swap3\n      pop\n      swap3\n      jump\t// out\n        /* \"#utility.yul\":2637:2755   */\n    tag_139:\n        /* \"#utility.yul\":2724:2748   */\n      tag_176\n        /* \"#utility.yul\":2742:2747   */\n      dup2\n        /* \"#utility.yul\":2724:2748   */\n      tag_136\n      jump\t// in\n    tag_176:\n        /* \"#utility.yul\":2719:2722   */\n      dup3\n        /* \"#utility.yul\":2712:2749   */\n      mstore\n        /* \"#utility.yul\":2637:2755   */\n      pop\n      pop\n      jump\t// out\n        /* \"#utility.yul\":2761:2983   */\n    tag_20:\n        /* \"#utility.yul\":2854:2858   */\n      0x00\n        /* \"#utility.yul\":2892:2894   */\n      0x20\n        /* \"#utility.yul\":2881:2890   */\n      dup3\n        /* \"#utility.yul\":2877:2895   */\n      add\n        /* \"#utility.yul\":2869:2895   */\n      swap1\n      pop\n        /* \"#utility.yul\":2905:2976   */\n      tag_178\n        /* \"#utility.yul\":2973:2974   */\n      0x00\n        /* \"#utility.yul\":2962:2971   */\n      dup4\n        /* \"#utility.yul\":2958:2975   */\n      add\n        /* \"#utility.yul\":2949:2955   */\n      dup5\n        /* \"#utility.yul\":2905:2976   */\n      tag_139\n      jump\t// in\n    tag_178:\n        /* \"#utility.yul\":2761:2983   */\n      swap3\n      swap2\n      pop\n      pop\n      jump\t// out\n        /* \"#utility.yul\":2989:3318   */\n    tag_23:\n        /* \"#utility.yul\":3048:3054   */\n      0x00\n        /* \"#utility.yul\":3097:3099   */\n      0x20\n        /* \"#utility.yul\":3085:3094   */\n      dup3\n        /* \"#utility.yul\":3076:3083   */\n      dup5\n        /* \"#utility.yul\":3072:3095   */\n      sub\n        /* \"#utility.yul\":3068:3100   */\n      slt\n        /* \"#utility.yul\":3065:3184   */\n      iszero\n      tag_180\n      jumpi\n        /* \"#utility.yul\":3103:3182   */\n      tag_181\n      tag_130\n      jump\t// in\n    tag_181:\n        /* \"#utility.yul\":3065:3184   */\n    tag_180:\n        /* \"#utility.yul\":3223:3224   */\n      0x00\n        /* \"#utility.yul\":3248:3301   */\n      tag_182\n        /* \"#utility.yul\":3293:3300   */\n      dup5\n        /* \"#utility.yul\":3284:3290   */\n      dup3\n        /* \"#utility.yul\":3273:3282   */\n      dup6\n        /* \"#utility.yul\":3269:3291   */\n      add\n        /* \"#utility.yul\":3248:3301   */\n      tag_135\n      jump\t// in\n    tag_182:\n        /* \"#utility.yul\":3238:3301   */\n      swap2\n      pop\n        /* \"#utility.yul\":3194:3311   */\n      pop\n        /* \"#utility.yul\":2989:3318   */\n      swap3\n      swap2\n      pop\n      pop\n      jump\t// out\n        /* \"#utility.yul\":3324:3504   */\n    tag_34:\n        /* \"#utility.yul\":3372:3449   */\n      0x4e487b7100000000000000000000000000000000000000000000000000000000\n        /* \"#utility.yul\":3369:3370   */\n      0x00\n        /* \"#utility.yul\":3362:3450   */\n      mstore\n        /* \"#utility.yul\":3469:3473   */\n      0x32\n        /* \"#utility.yul\":3466:3467   */\n      0x04\n        /* \"#utility.yul\":3459:3474   */\n      mstore\n        /* \"#utility.yul\":3493:3497   */\n      0x24\n        /* \"#utility.yul\":3490:3491   */\n      0x00\n        /* \"#utility.yul\":3483:3498   */\n      revert\n        /* \"#utility.yul\":3510:3690   */\n    tag_140:\n        /* \"#utility.yul\":3558:3635   */\n      0x4e487b7100000000000000000000000000000000000000000000000000000000\n        /* \"#utility.yul\":3555:3556   */\n      0x00\n        /* \"#utility.yul\":3548:3636   */\n      mstore\n        /* \"#utility.yul\":3655:3659   */\n      0x11\n        /* \"#utility.yul\":3652:3653   */\n      0x04\n        /* \"#utility.yul\":3645:3660   */\n      mstore\n        /* \"#utility.yul\":3679:3683   */\n      0x24\n        /* \"#utility.yul\":3676:3677   */\n      0x00\n        /* \"#utility.yul\":3669:3684   */\n      revert\n        /* \"#utility.yul\":3696:3890   */\n    tag_36:\n        /* \"#utility.yul\":3736:3740   */\n      0x00\n        /* \"#utility.yul\":3756:3776   */\n      tag_186\n        /* \"#utility.yul\":3774:3775   */\n      dup3\n        /* \"#utility.yul\":3756:3776   */\n      tag_136\n      jump\t// in\n    tag_186:\n        /* \"#utility.yul\":3751:3776   */\n      swap2\n      pop\n        /* \"#utility.yul\":3790:3810   */\n      tag_187\n        /* \"#utility.yul\":3808:3809   */\n      dup4\n        /* \"#utility.yul\":3790:3810   */\n      tag_136\n      jump\t// in\n    tag_187:\n        /* \"#utility.yul\":3785:3810   */\n      swap3\n      pop\n        /* \"#utility.yul\":3834:3835   */\n      dup3\n        /* \"#utility.yul\":3831:3832   */\n      dup3\n        /* \"#utility.yul\":3827:3836   */\n      sub\n        /* \"#utility.yul\":3819:3836   */\n      swap1\n      pop\n        /* \"#utility.yul\":3858:3859   */\n      dup2\n        /* \"#utility.yul\":3852:3856   */\n      dup2\n        /* \"#utility.yul\":3849:3860   */\n      gt\n        /* \"#utility.yul\":3846:3883   */\n      iszero\n      tag_188\n      jumpi\n        /* \"#utility.yul\":3863:3881   */\n      tag_189\n      tag_140\n      jump\t// in\n    tag_189:\n        /* \"#utility.yul\":3846:3883   */\n    tag_188:\n        /* \"#utility.yul\":3696:3890   */\n      swap3\n      swap2\n      pop\n      pop\n      jump\t// out\n        /* \"#utility.yul\":3896:4087   */\n    tag_40:\n        /* \"#utility.yul\":3936:3939   */\n      0x00\n        /* \"#utility.yul\":3955:3975   */\n      tag_191\n        /* \"#utility.yul\":3973:3974   */\n      dup3\n        /* \"#utility.yul\":3955:3975   */\n      tag_136\n      jump\t// in\n    tag_191:\n        /* \"#utility.yul\":3950:3975   */\n      swap2\n      pop\n        /* \"#utility.yul\":3989:4009   */\n      tag_192\n        /* \"#utility.yul\":4007:4008   */\n      dup4\n        /* \"#utility.yul\":3989:4009   */\n      tag_136\n      jump\t// in\n    tag_192:\n        /* \"#utility.yul\":3984:4009   */\n      swap3\n      pop\n        /* \"#utility.yul\":4032:4033   */\n      dup3\n        /* \"#utility.yul\":4029:4030   */\n      dup3\n        /* \"#utility.yul\":4025:4034   */\n      add\n        /* \"#utility.yul\":4018:4034   */\n      swap1\n      pop\n        /* \"#utility.yul\":4053:4056   */\n      dup1\n        /* \"#utility.yul\":4050:4051   */\n      dup3\n        /* \"#utility.yul\":4047:4057   */\n      gt\n        /* \"#utility.yul\":4044:4080   */\n      iszero\n      tag_193\n      jumpi\n        /* \"#utility.yul\":4060:4078   */\n      tag_194\n      tag_140\n      jump\t// in\n    tag_194:\n        /* \"#utility.yul\":4044:4080   */\n    tag_193:\n        /* \"#utility.yul\":3896:4087   */\n      swap3\n      swap2\n      pop\n      pop\n      jump\t// out\n        /* \"#utility.yul\":4093:4326   */\n    tag_50:\n        /* \"#utility.yul\":4132:4135   */\n      0x00\n        /* \"#utility.yul\":4155:4179   */\n      tag_196\n        /* \"#utility.yul\":4173:4178   */\n      dup3\n        /* \"#utility.yul\":4155:4179   */\n      tag_136\n      jump\t// in\n    tag_196:\n        /* \"#utility.yul\":4146:4179   */\n      swap2\n      pop\n        /* \"#utility.yul\":4201:4267   */\n      0xffffffffffffffffffffffffffffffffffffffffffffffffffffffffffffffff\n        /* \"#utility.yul\":4194:4199   */\n      dup3\n        /* \"#utility.yul\":4191:4268   */\n      sub\n        /* \"#utility.yul\":4188:4291   */\n      tag_197\n      jumpi\n        /* \"#utility.yul\":4271:4289   */\n      tag_198\n      tag_140\n      jump\t// in\n    tag_198:\n        /* \"#utility.yul\":4188:4291   */\n    tag_197:\n        /* \"#utility.yul\":4318:4319   */\n      0x01\n        /* \"#utility.yul\":4311:4316   */\n      dup3\n        /* \"#utility.yul\":4307:4320   */\n      add\n        /* \"#utility.yul\":4300:4320   */\n      swap1\n      pop\n        /* \"#utility.yul\":4093:4326   */\n      swap2\n      swap1\n      pop\n      jump\t// out\n        /* \"#utility.yul\":4332:4512   */\n    tag_58:\n        /* \"#utility.yul\":4380:4457   */\n      0x4e487b7100000000000000000000000000000000000000000000000000000000\n        /* \"#utility.yul\":4377:4378   */\n      0x00\n        /* \"#utility.yul\":4370:4458   */\n      mstore\n        /* \"#utility.yul\":4477:4481   */\n      0x31\n        /* \"#utility.yul\":4474:4475   */\n      0x04\n        /* \"#utility.yul\":4467:4482   */\n      mstore\n        /* \"#utility.yul\":4501:4505   */\n      0x24\n        /* \"#utility.yul\":4498:4499   */\n      0x00\n        /* \"#utility.yul\":4491:4506   */\n      revert\n        /* \"#utility.yul\":4518:4594   */\n    tag_141:\n        /* \"#utility.yul\":4554:4561   */\n      0x00\n        /* \"#utility.yul\":4583:4588   */\n      dup2\n        /* \"#utility.yul\":4572:4588   */\n      swap1\n      pop\n        /* \"#utility.yul\":4518:4594   */\n      swap2\n      swap1\n      pop\n      jump\t// out\n        /* \"#utility.yul\":4600:4831   */\n    tag_103:\n        /* \"#utility.yul\":4638:4641   */\n      0x00\n        /* \"#utility.yul\":4661:4684   */\n      tag_202\n        /* \"#utility.yul\":4678:4683   */\n      dup3\n        /* \"#utility.yul\":4661:4684   */\n      tag_141\n      jump\t// in\n    tag_202:\n        /* \"#utility.yul\":4652:4684   */\n      swap2\n      pop\n        /* \"#utility.yul\":4706:4772   */\n      0x7fffffffffffffffffffffffffffffffffffffffffffffffffffffffffffffff\n        /* \"#utility.yul\":4699:4704   */\n      dup3\n        /* \"#utility.yul\":4696:4773   */\n      sub\n        /* \"#utility.yul\":4693:4796   */\n      tag_203\n      jumpi\n        /* \"#utility.yul\":4776:4794   */\n      tag_204\n      tag_140\n      jump\t// in\n    tag_204:\n        /* \"#utility.yul\":4693:4796   */\n    tag_203:\n        /* \"#utility.yul\":4823:4824   */\n      0x01\n        /* \"#utility.yul\":4816:4821   */\n      dup3\n        /* \"#utility.yul\":4812:4825   */\n      add\n        /* \"#utility.yul\":4805:4825   */\n      swap1\n      pop\n        /* \"#utility.yul\":4600:4831   */\n      swap2\n      swap1\n      pop\n      jump\t// out\n        /* \"#utility.yul\":4837:5209   */\n    tag_111:\n        /* \"#utility.yul\":4876:4880   */\n      0x00\n        /* \"#utility.yul\":4896:4915   */\n      tag_206\n        /* \"#utility.yul\":4913:4914   */\n      dup3\n        /* \"#utility.yul\":4896:4915   */\n      tag_141\n      jump\t// in\n    tag_206:\n        /* \"#utility.yul\":4891:4915   */\n      swap2\n      pop\n        /* \"#utility.yul\":4929:4948   */\n      tag_207\n        /* \"#utility.yul\":4946:4947   */\n      dup4\n        /* \"#utility.yul\":4929:4948   */\n      tag_141\n      jump\t// in\n    tag_207:\n        /* \"#utility.yul\":4924:4948   */\n      swap3\n      pop\n        /* \"#utility.yul\":4972:4973   */\n      dup3\n        /* \"#utility.yul\":4969:4970   */\n      dup3\n        /* \"#utility.yul\":4965:4974   */\n      sub\n        /* \"#utility.yul\":4957:4974   */\n      swap1\n      pop\n        /* \"#utility.yul\":5166:5167   */\n      dup2\n        /* \"#utility.yul\":5160:5164   */\n      dup2\n        /* \"#utility.yul\":5156:5168   */\n      slt\n        /* \"#utility.yul\":5152:5153   */\n      0x00\n        /* \"#utility.yul\":5149:5150   */\n      dup5\n        /* \"#utility.yul\":5145:5154   */\n      slt\n        /* \"#utility.yul\":5141:5169   */\n      and\n        /* \"#utility.yul\":5124:5125   */\n      dup3\n        /* \"#utility.yul\":5118:5122   */\n      dup3\n        /* \"#utility.yul\":5114:5126   */\n      sgt\n        /* \"#utility.yul\":5109:5110   */\n      0x00\n        /* \"#utility.yul\":5106:5107   */\n      dup6\n        /* \"#utility.yul\":5102:5111   */\n      slt\n        /* \"#utility.yul\":5095:5112   */\n      iszero\n        /* \"#utility.yul\":5091:5127   */\n      and\n        /* \"#utility.yul\":5075:5179   */\n      or\n        /* \"#utility.yul\":5072:5202   */\n      iszero\n      tag_208\n      jumpi\n        /* \"#utility.yul\":5182:5200   */\n      tag_209\n      tag_140\n      jump\t// in\n    tag_209:\n        /* \"#utility.yul\":5072:5202   */\n    tag_208:\n        /* \"#utility.yul\":4837:5209   */\n      swap3\n      swap2\n      pop\n      pop\n      jump\t// out\n        /* \"#utility.yul\":5215:5443   */\n    tag_114:\n        /* \"#utility.yul\":5250:5253   */\n      0x00\n        /* \"#utility.yul\":5273:5296   */\n      tag_211\n        /* \"#utility.yul\":5290:5295   */\n      dup3\n        /* \"#utility.yul\":5273:5296   */\n      tag_141\n      jump\t// in\n    tag_211:\n        /* \"#utility.yul\":5264:5296   */\n      swap2\n      pop\n        /* \"#utility.yul\":5318:5384   */\n      0x8000000000000000000000000000000000000000000000000000000000000000\n        /* \"#utility.yul\":5311:5316   */\n      dup3\n        /* \"#utility.yul\":5308:5385   */\n      sub\n        /* \"#utility.yul\":5305:5408   */\n      tag_212\n      jumpi\n        /* \"#utility.yul\":5388:5406   */\n      tag_213\n      tag_140\n      jump\t// in\n    tag_213:\n        /* \"#utility.yul\":5305:5408   */\n    tag_212:\n        /* \"#utility.yul\":5431:5436   */\n      dup2\n        /* \"#utility.yul\":5428:5429   */\n      0x00\n        /* \"#utility.yul\":5424:5437   */\n      sub\n        /* \"#utility.yul\":5417:5437   */\n      swap1\n      pop\n        /* \"#utility.yul\":5215:5443   */\n      swap2\n      swap1\n      pop\n      jump\t// out\n\n    auxdata: 0xa2646970667358221220270babd096d9177bbe2c16ef2ea5597f0ba3950b86e206c89db302f3513b49c664736f6c63430008110033\n}\n",
				"bytecode": {
					"linkReferences": {},
					"object": "608060405234801561001057600080fd5b50610b75806100206000396000f3fe608060405234801561001057600080fd5b506004361061004c5760003560e01c8063a6d1bafd14610051578063c5ebeaec1461006d578063dac1742814610089578063dd40c51c146100b9575b600080fd5b61006b6004803603810190610066919061080e565b6100e9565b005b6100876004803603810190610082919061084e565b61039d565b005b6100a3600480360381019061009e919061087b565b61044c565b6040516100b091906108dd565b60405180910390f35b6100d360048036038101906100ce91906108f8565b610496565b6040516100e091906108dd565b60405180910390f35b60006100f58383610587565b905060005b8160016002811061010e5761010d610925565b5b60200201516000808673ffffffffffffffffffffffffffffffffffffffff1673ffffffffffffffffffffffffffffffffffffffff1681526020019081526020016000208054905061015f9190610983565b81101561025f576000808573ffffffffffffffffffffffffffffffffffffffff1673ffffffffffffffffffffffffffffffffffffffff168152602001908152602001600020826001600281106101b8576101b7610925565b5b6020020151826101c891906109b7565b815481106101d9576101d8610925565b5b906000526020600020016000808673ffffffffffffffffffffffffffffffffffffffff1673ffffffffffffffffffffffffffffffffffffffff168152602001908152602001600020828154811061023357610232610925565b5b9060005260206000200190805461024b929190610676565b508080610257906109eb565b9150506100fa565b5060005b8160016002811061027757610276610925565b5b6020020151811015610302576000808573ffffffffffffffffffffffffffffffffffffffff1673ffffffffffffffffffffffffffffffffffffffff1681526020019081526020016000208054806102d1576102d0610a33565b5b6001900381819060005260206000200160006102ed91906106c8565b905580806102fa906109eb565b915050610263565b508060006002811061031757610316610925565b5b60200201516000808573ffffffffffffffffffffffffffffffffffffffff1673ffffffffffffffffffffffffffffffffffffffff16815260200190815260200160002060008154811061036d5761036c610925565b5b9060005260206000200160018154811061038a57610389610925565b5b9060005260206000200181905550505050565b6000805b8281101561044757600a826103b691906109b7565b91506040518060400160405280428152602001838152506000803373ffffffffffffffffffffffffffffffffffffffff1673ffffffffffffffffffffffffffffffffffffffff16815260200190815260200160002060018160018154018082558091505003906000526020600020019060026104339291906106e9565b50808061043f906109eb565b9150506103a1565b505050565b6000602052826000526040600020828154811061046857600080fd5b90600052602060002001818154811061048057600080fd5b9060005260206000200160009250925050505481565b60008060005b6000808573ffffffffffffffffffffffffffffffffffffffff1673ffffffffffffffffffffffffffffffffffffffff1681526020019081526020016000208054905081101561057d576000808573ffffffffffffffffffffffffffffffffffffffff1673ffffffffffffffffffffffffffffffffffffffff168152602001908152602001600020818154811061053557610534610925565b5b9060005260206000200160018154811061055257610551610925565b5b90600052602060002001548261056891906109b7565b91508080610575906109eb565b91505061049c565b5080915050919050565b61058f610736565b6000805b60008413156106425781806105a790610a6c565b9250506000808673ffffffffffffffffffffffffffffffffffffffff1673ffffffffffffffffffffffffffffffffffffffff16815260200190815260200160002081815481106105fa576105f9610925565b5b9060005260206000200160018154811061061757610616610925565b5b90600052602060002001548461062d9190610ab4565b9350808061063a906109eb565b915050610593565b5060405180604001604052808461065890610af7565b815260200160018361066a9190610ab4565b81525091505092915050565b8280548282559060005260206000209081019282156106b75760005260206000209182015b828111156106b657825482559160010191906001019061069b565b5b5090506106c49190610758565b5090565b50805460008255906000526020600020908101906106e69190610758565b50565b828054828255906000526020600020908101928215610725579160200282015b82811115610724578251825591602001919060010190610709565b5b5090506107329190610758565b5090565b6040518060400160405280600290602082028036833780820191505090505090565b5b80821115610771576000816000905550600101610759565b5090565b600080fd5b600073ffffffffffffffffffffffffffffffffffffffff82169050919050565b60006107a58261077a565b9050919050565b6107b58161079a565b81146107c057600080fd5b50565b6000813590506107d2816107ac565b92915050565b6000819050919050565b6107eb816107d8565b81146107f657600080fd5b50565b600081359050610808816107e2565b92915050565b6000806040838503121561082557610824610775565b5b6000610833858286016107c3565b9250506020610844858286016107f9565b9150509250929050565b60006020828403121561086457610863610775565b5b6000610872848285016107f9565b91505092915050565b60008060006060848603121561089457610893610775565b5b60006108a2868287016107c3565b93505060206108b3868287016107f9565b92505060406108c4868287016107f9565b9150509250925092565b6108d7816107d8565b82525050565b60006020820190506108f260008301846108ce565b92915050565b60006020828403121561090e5761090d610775565b5b600061091c848285016107c3565b91505092915050565b7f4e487b7100000000000000000000000000000000000000000000000000000000600052603260045260246000fd5b7f4e487b7100000000000000000000000000000000000000000000000000000000600052601160045260246000fd5b600061098e826107d8565b9150610999836107d8565b92508282039050818111156109b1576109b0610954565b5b92915050565b60006109c2826107d8565b91506109cd836107d8565b92508282019050808211156109e5576109e4610954565b5b92915050565b60006109f6826107d8565b91507fffffffffffffffffffffffffffffffffffffffffffffffffffffffffffffffff8203610a2857610a27610954565b5b600182019050919050565b7f4e487b7100000000000000000000000000000000000000000000000000000000600052603160045260246000fd5b6000819050919050565b6000610a7782610a62565b91507f7fffffffffffffffffffffffffffffffffffffffffffffffffffffffffffffff8203610aa957610aa8610954565b5b600182019050919050565b6000610abf82610a62565b9150610aca83610a62565b9250828203905081811260008412168282136000851215161715610af157610af0610954565b5b92915050565b6000610b0282610a62565b91507f80000000000000000000000000000000000000000000000000000000000000008203610b3457610b33610954565b5b81600003905091905056fea2646970667358221220270babd096d9177bbe2c16ef2ea5597f0ba3950b86e206c89db302f3513b49c664736f6c63430008110033",
					"opcodes": "PUSH1 0x80 PUSH1 0x40 MSTORE CALLVALUE DUP1 ISZERO PUSH2 0x10 JUMPI PUSH1 0x0 DUP1 REVERT JUMPDEST POP PUSH2 0xB75 DUP1 PUSH2 0x20 PUSH1 0x0 CODECOPY PUSH1 0x0 RETURN INVALID PUSH1 0x80 PUSH1 0x40 MSTORE CALLVALUE DUP1 ISZERO PUSH2 0x10 JUMPI PUSH1 0x0 DUP1 REVERT JUMPDEST POP PUSH1 0x4 CALLDATASIZE LT PUSH2 0x4C JUMPI PUSH1 0x0 CALLDATALOAD PUSH1 0xE0 SHR DUP1 PUSH4 0xA6D1BAFD EQ PUSH2 0x51 JUMPI DUP1 PUSH4 0xC5EBEAEC EQ PUSH2 0x6D JUMPI DUP1 PUSH4 0xDAC17428 EQ PUSH2 0x89 JUMPI DUP1 PUSH4 0xDD40C51C EQ PUSH2 0xB9 JUMPI JUMPDEST PUSH1 0x0 DUP1 REVERT JUMPDEST PUSH2 0x6B PUSH1 0x4 DUP1 CALLDATASIZE SUB DUP2 ADD SWAP1 PUSH2 0x66 SWAP2 SWAP1 PUSH2 0x80E JUMP JUMPDEST PUSH2 0xE9 JUMP JUMPDEST STOP JUMPDEST PUSH2 0x87 PUSH1 0x4 DUP1 CALLDATASIZE SUB DUP2 ADD SWAP1 PUSH2 0x82 SWAP2 SWAP1 PUSH2 0x84E JUMP JUMPDEST PUSH2 0x39D JUMP JUMPDEST STOP JUMPDEST PUSH2 0xA3 PUSH1 0x4 DUP1 CALLDATASIZE SUB DUP2 ADD SWAP1 PUSH2 0x9E SWAP2 SWAP1 PUSH2 0x87B JUMP JUMPDEST PUSH2 0x44C JUMP JUMPDEST PUSH1 0x40 MLOAD PUSH2 0xB0 SWAP2 SWAP1 PUSH2 0x8DD JUMP JUMPDEST PUSH1 0x40 MLOAD DUP1 SWAP2 SUB SWAP1 RETURN JUMPDEST PUSH2 0xD3 PUSH1 0x4 DUP1 CALLDATASIZE SUB DUP2 ADD SWAP1 PUSH2 0xCE SWAP2 SWAP1 PUSH2 0x8F8 JUMP JUMPDEST PUSH2 0x496 JUMP JUMPDEST PUSH1 0x40 MLOAD PUSH2 0xE0 SWAP2 SWAP1 PUSH2 0x8DD JUMP JUMPDEST PUSH1 0x40 MLOAD DUP1 SWAP2 SUB SWAP1 RETURN JUMPDEST PUSH1 0x0 PUSH2 0xF5 DUP4 DUP4 PUSH2 0x587 JUMP JUMPDEST SWAP1 POP PUSH1 0x0 JUMPDEST DUP2 PUSH1 0x1 PUSH1 0x2 DUP2 LT PUSH2 0x10E JUMPI PUSH2 0x10D PUSH2 0x925 JUMP JUMPDEST JUMPDEST PUSH1 0x20 MUL ADD MLOAD PUSH1 0x0 DUP1 DUP7 PUSH20 0xFFFFFFFFFFFFFFFFFFFFFFFFFFFFFFFFFFFFFFFF AND PUSH20 0xFFFFFFFFFFFFFFFFFFFFFFFFFFFFFFFFFFFFFFFF AND DUP2 MSTORE PUSH1 0x20 ADD SWAP1 DUP2 MSTORE PUSH1 0x20 ADD PUSH1 0x0 KECCAK256 DUP1 SLOAD SWAP1 POP PUSH2 0x15F SWAP2 SWAP1 PUSH2 0x983 JUMP JUMPDEST DUP2 LT ISZERO PUSH2 0x25F JUMPI PUSH1 0x0 DUP1 DUP6 PUSH20 0xFFFFFFFFFFFFFFFFFFFFFFFFFFFFFFFFFFFFFFFF AND PUSH20 0xFFFFFFFFFFFFFFFFFFFFFFFFFFFFFFFFFFFFFFFF AND DUP2 MSTORE PUSH1 0x20 ADD SWAP1 DUP2 MSTORE PUSH1 0x20 ADD PUSH1 0x0 KECCAK256 DUP3 PUSH1 0x1 PUSH1 0x2 DUP2 LT PUSH2 0x1B8 JUMPI PUSH2 0x1B7 PUSH2 0x925 JUMP JUMPDEST JUMPDEST PUSH1 0x20 MUL ADD MLOAD DUP3 PUSH2 0x1C8 SWAP2 SWAP1 PUSH2 0x9B7 JUMP JUMPDEST DUP2 SLOAD DUP2 LT PUSH2 0x1D9 JUMPI PUSH2 0x1D8 PUSH2 0x925 JUMP JUMPDEST JUMPDEST SWAP1 PUSH1 0x0 MSTORE PUSH1 0x20 PUSH1 0x0 KECCAK256 ADD PUSH1 0x0 DUP1 DUP7 PUSH20 0xFFFFFFFFFFFFFFFFFFFFFFFFFFFFFFFFFFFFFFFF AND PUSH20 0xFFFFFFFFFFFFFFFFFFFFFFFFFFFFFFFFFFFFFFFF AND DUP2 MSTORE PUSH1 0x20 ADD SWAP1 DUP2 MSTORE PUSH1 0x20 ADD PUSH1 0x0 KECCAK256 DUP3 DUP2 SLOAD DUP2 LT PUSH2 0x233 JUMPI PUSH2 0x232 PUSH2 0x925 JUMP JUMPDEST JUMPDEST SWAP1 PUSH1 0x0 MSTORE PUSH1 0x20 PUSH1 0x0 KECCAK256 ADD SWAP1 DUP1 SLOAD PUSH2 0x24B SWAP3 SWAP2 SWAP1 PUSH2 0x676 JUMP JUMPDEST POP DUP1 DUP1 PUSH2 0x257 SWAP1 PUSH2 0x9EB JUMP JUMPDEST SWAP2 POP POP PUSH2 0xFA JUMP JUMPDEST POP PUSH1 0x0 JUMPDEST DUP2 PUSH1 0x1 PUSH1 0x2 DUP2 LT PUSH2 0x277 JUMPI PUSH2 0x276 PUSH2 0x925 JUMP JUMPDEST JUMPDEST PUSH1 0x20 MUL ADD MLOAD DUP2 LT ISZERO PUSH2 0x302 JUMPI PUSH1 0x0 DUP1 DUP6 PUSH20 0xFFFFFFFFFFFFFFFFFFFFFFFFFFFFFFFFFFFFFFFF AND PUSH20 0xFFFFFFFFFFFFFFFFFFFFFFFFFFFFFFFFFFFFFFFF AND DUP2 MSTORE PUSH1 0x20 ADD SWAP1 DUP2 MSTORE PUSH1 0x20 ADD PUSH1 0x0 KECCAK256 DUP1 SLOAD DUP1 PUSH2 0x2D1 JUMPI PUSH2 0x2D0 PUSH2 0xA33 JUMP JUMPDEST JUMPDEST PUSH1 0x1 SWAP1 SUB DUP2 DUP2 SWAP1 PUSH1 0x0 MSTORE PUSH1 0x20 PUSH1 0x0 KECCAK256 ADD PUSH1 0x0 PUSH2 0x2ED SWAP2 SWAP1 PUSH2 0x6C8 JUMP JUMPDEST SWAP1 SSTORE DUP1 DUP1 PUSH2 0x2FA SWAP1 PUSH2 0x9EB JUMP JUMPDEST SWAP2 POP POP PUSH2 0x263 JUMP JUMPDEST POP DUP1 PUSH1 0x0 PUSH1 0x2 DUP2 LT PUSH2 0x317 JUMPI PUSH2 0x316 PUSH2 0x925 JUMP JUMPDEST JUMPDEST PUSH1 0x20 MUL ADD MLOAD PUSH1 0x0 DUP1 DUP6 PUSH20 0xFFFFFFFFFFFFFFFFFFFFFFFFFFFFFFFFFFFFFFFF AND PUSH20 0xFFFFFFFFFFFFFFFFFFFFFFFFFFFFFFFFFFFFFFFF AND DUP2 MSTORE PUSH1 0x20 ADD SWAP1 DUP2 MSTORE PUSH1 0x20 ADD PUSH1 0x0 KECCAK256 PUSH1 0x0 DUP2 SLOAD DUP2 LT PUSH2 0x36D JUMPI PUSH2 0x36C PUSH2 0x925 JUMP JUMPDEST JUMPDEST SWAP1 PUSH1 0x0 MSTORE PUSH1 0x20 PUSH1 0x0 KECCAK256 ADD PUSH1 0x1 DUP2 SLOAD DUP2 LT PUSH2 0x38A JUMPI PUSH2 0x389 PUSH2 0x925 JUMP JUMPDEST JUMPDEST SWAP1 PUSH1 0x0 MSTORE PUSH1 0x20 PUSH1 0x0 KECCAK256 ADD DUP2 SWAP1 SSTORE POP POP POP POP JUMP JUMPDEST PUSH1 0x0 DUP1 JUMPDEST DUP3 DUP2 LT ISZERO PUSH2 0x447 JUMPI PUSH1 0xA DUP3 PUSH2 0x3B6 SWAP2 SWAP1 PUSH2 0x9B7 JUMP JUMPDEST SWAP2 POP PUSH1 0x40 MLOAD DUP1 PUSH1 0x40 ADD PUSH1 0x40 MSTORE DUP1 TIMESTAMP DUP2 MSTORE PUSH1 0x20 ADD DUP4 DUP2 MSTORE POP PUSH1 0x0 DUP1 CALLER PUSH20 0xFFFFFFFFFFFFFFFFFFFFFFFFFFFFFFFFFFFFFFFF AND PUSH20 0xFFFFFFFFFFFFFFFFFFFFFFFFFFFFFFFFFFFFFFFF AND DUP2 MSTORE PUSH1 0x20 ADD SWAP1 DUP2 MSTORE PUSH1 0x20 ADD PUSH1 0x0 KECCAK256 PUSH1 0x1 DUP2 PUSH1 0x1 DUP2 SLOAD ADD DUP1 DUP3 SSTORE DUP1 SWAP2 POP POP SUB SWAP1 PUSH1 0x0 MSTORE PUSH1 0x20 PUSH1 0x0 KECCAK256 ADD SWAP1 PUSH1 0x2 PUSH2 0x433 SWAP3 SWAP2 SWAP1 PUSH2 0x6E9 JUMP JUMPDEST POP DUP1 DUP1 PUSH2 0x43F SWAP1 PUSH2 0x9EB JUMP JUMPDEST SWAP2 POP POP PUSH2 0x3A1 JUMP JUMPDEST POP POP POP JUMP JUMPDEST PUSH1 0x0 PUSH1 0x20 MSTORE DUP3 PUSH1 0x0 MSTORE PUSH1 0x40 PUSH1 0x0 KECCAK256 DUP3 DUP2 SLOAD DUP2 LT PUSH2 0x468 JUMPI PUSH1 0x0 DUP1 REVERT JUMPDEST SWAP1 PUSH1 0x0 MSTORE PUSH1 0x20 PUSH1 0x0 KECCAK256 ADD DUP2 DUP2 SLOAD DUP2 LT PUSH2 0x480 JUMPI PUSH1 0x0 DUP1 REVERT JUMPDEST SWAP1 PUSH1 0x0 MSTORE PUSH1 0x20 PUSH1 0x0 KECCAK256 ADD PUSH1 0x0 SWAP3 POP SWAP3 POP POP POP SLOAD DUP2 JUMP JUMPDEST PUSH1 0x0 DUP1 PUSH1 0x0 JUMPDEST PUSH1 0x0 DUP1 DUP6 PUSH20 0xFFFFFFFFFFFFFFFFFFFFFFFFFFFFFFFFFFFFFFFF AND PUSH20 0xFFFFFFFFFFFFFFFFFFFFFFFFFFFFFFFFFFFFFFFF AND DUP2 MSTORE PUSH1 0x20 ADD SWAP1 DUP2 MSTORE PUSH1 0x20 ADD PUSH1 0x0 KECCAK256 DUP1 SLOAD SWAP1 POP DUP2 LT ISZERO PUSH2 0x57D JUMPI PUSH1 0x0 DUP1 DUP6 PUSH20 0xFFFFFFFFFFFFFFFFFFFFFFFFFFFFFFFFFFFFFFFF AND PUSH20 0xFFFFFFFFFFFFFFFFFFFFFFFFFFFFFFFFFFFFFFFF AND DUP2 MSTORE PUSH1 0x20 ADD SWAP1 DUP2 MSTORE PUSH1 0x20 ADD PUSH1 0x0 KECCAK256 DUP2 DUP2 SLOAD DUP2 LT PUSH2 0x535 JUMPI PUSH2 0x534 PUSH2 0x925 JUMP JUMPDEST JUMPDEST SWAP1 PUSH1 0x0 MSTORE PUSH1 0x20 PUSH1 0x0 KECCAK256 ADD PUSH1 0x1 DUP2 SLOAD DUP2 LT PUSH2 0x552 JUMPI PUSH2 0x551 PUSH2 0x925 JUMP JUMPDEST JUMPDEST SWAP1 PUSH1 0x0 MSTORE PUSH1 0x20 PUSH1 0x0 KECCAK256 ADD SLOAD DUP3 PUSH2 0x568 SWAP2 SWAP1 PUSH2 0x9B7 JUMP JUMPDEST SWAP2 POP DUP1 DUP1 PUSH2 0x575 SWAP1 PUSH2 0x9EB JUMP JUMPDEST SWAP2 POP POP PUSH2 0x49C JUMP JUMPDEST POP DUP1 SWAP2 POP POP SWAP2 SWAP1 POP JUMP JUMPDEST PUSH2 0x58F PUSH2 0x736 JUMP JUMPDEST PUSH1 0x0 DUP1 JUMPDEST PUSH1 0x0 DUP5 SGT ISZERO PUSH2 0x642 JUMPI DUP2 DUP1 PUSH2 0x5A7 SWAP1 PUSH2 0xA6C JUMP JUMPDEST SWAP3 POP POP PUSH1 0x0 DUP1 DUP7 PUSH20 0xFFFFFFFFFFFFFFFFFFFFFFFFFFFFFFFFFFFFFFFF AND PUSH20 0xFFFFFFFFFFFFFFFFFFFFFFFFFFFFFFFFFFFFFFFF AND DUP2 MSTORE PUSH1 0x20 ADD SWAP1 DUP2 MSTORE PUSH1 0x20 ADD PUSH1 0x0 KECCAK256 DUP2 DUP2 SLOAD DUP2 LT PUSH2 0x5FA JUMPI PUSH2 0x5F9 PUSH2 0x925 JUMP JUMPDEST JUMPDEST SWAP1 PUSH1 0x0 MSTORE PUSH1 0x20 PUSH1 0x0 KECCAK256 ADD PUSH1 0x1 DUP2 SLOAD DUP2 LT PUSH2 0x617 JUMPI PUSH2 0x616 PUSH2 0x925 JUMP JUMPDEST JUMPDEST SWAP1 PUSH1 0x0 MSTORE PUSH1 0x20 PUSH1 0x0 KECCAK256 ADD SLOAD DUP5 PUSH2 0x62D SWAP2 SWAP1 PUSH2 0xAB4 JUMP JUMPDEST SWAP4 POP DUP1 DUP1 PUSH2 0x63A SWAP1 PUSH2 0x9EB JUMP JUMPDEST SWAP2 POP POP PUSH2 0x593 JUMP JUMPDEST POP PUSH1 0x40 MLOAD DUP1 PUSH1 0x40 ADD PUSH1 0x40 MSTORE DUP1 DUP5 PUSH2 0x658 SWAP1 PUSH2 0xAF7 JUMP JUMPDEST DUP2 MSTORE PUSH1 0x20 ADD PUSH1 0x1 DUP4 PUSH2 0x66A SWAP2 SWAP1 PUSH2 0xAB4 JUMP JUMPDEST DUP2 MSTORE POP SWAP2 POP POP SWAP3 SWAP2 POP POP JUMP JUMPDEST DUP3 DUP1 SLOAD DUP3 DUP3 SSTORE SWAP1 PUSH1 0x0 MSTORE PUSH1 0x20 PUSH1 0x0 KECCAK256 SWAP1 DUP2 ADD SWAP3 DUP3 ISZERO PUSH2 0x6B7 JUMPI PUSH1 0x0 MSTORE PUSH1 0x20 PUSH1 0x0 KECCAK256 SWAP2 DUP3 ADD JUMPDEST DUP3 DUP2 GT ISZERO PUSH2 0x6B6 JUMPI DUP3 SLOAD DUP3 SSTORE SWAP2 PUSH1 0x1 ADD SWAP2 SWAP1 PUSH1 0x1 ADD SWAP1 PUSH2 0x69B JUMP JUMPDEST JUMPDEST POP SWAP1 POP PUSH2 0x6C4 SWAP2 SWAP1 PUSH2 0x758 JUMP JUMPDEST POP SWAP1 JUMP JUMPDEST POP DUP1 SLOAD PUSH1 0x0 DUP3 SSTORE SWAP1 PUSH1 0x0 MSTORE PUSH1 0x20 PUSH1 0x0 KECCAK256 SWAP1 DUP2 ADD SWAP1 PUSH2 0x6E6 SWAP2 SWAP1 PUSH2 0x758 JUMP JUMPDEST POP JUMP JUMPDEST DUP3 DUP1 SLOAD DUP3 DUP3 SSTORE SWAP1 PUSH1 0x0 MSTORE PUSH1 0x20 PUSH1 0x0 KECCAK256 SWAP1 DUP2 ADD SWAP3 DUP3 ISZERO PUSH2 0x725 JUMPI SWAP2 PUSH1 0x20 MUL DUP3 ADD JUMPDEST DUP3 DUP2 GT ISZERO PUSH2 0x724 JUMPI DUP3 MLOAD DUP3 SSTORE SWAP2 PUSH1 0x20 ADD SWAP2 SWAP1 PUSH1 0x1 ADD SWAP1 PUSH2 0x709 JUMP JUMPDEST JUMPDEST POP SWAP1 POP PUSH2 0x732 SWAP2 SWAP1 PUSH2 0x758 JUMP JUMPDEST POP SWAP1 JUMP JUMPDEST PUSH1 0x40 MLOAD DUP1 PUSH1 0x40 ADD PUSH1 0x40 MSTORE DUP1 PUSH1 0x2 SWAP1 PUSH1 0x20 DUP3 MUL DUP1 CALLDATASIZE DUP4 CALLDATACOPY DUP1 DUP3 ADD SWAP2 POP POP SWAP1 POP POP SWAP1 JUMP JUMPDEST JUMPDEST DUP1 DUP3 GT ISZERO PUSH2 0x771 JUMPI PUSH1 0x0 DUP2 PUSH1 0x0 SWAP1 SSTORE POP PUSH1 0x1 ADD PUSH2 0x759 JUMP JUMPDEST POP SWAP1 JUMP JUMPDEST PUSH1 0x0 DUP1 REVERT JUMPDEST PUSH1 0x0 PUSH20 0xFFFFFFFFFFFFFFFFFFFFFFFFFFFFFFFFFFFFFFFF DUP3 AND SWAP1 POP SWAP2 SWAP1 POP JUMP JUMPDEST PUSH1 0x0 PUSH2 0x7A5 DUP3 PUSH2 0x77A JUMP JUMPDEST SWAP1 POP SWAP2 SWAP1 POP JUMP JUMPDEST PUSH2 0x7B5 DUP2 PUSH2 0x79A JUMP JUMPDEST DUP2 EQ PUSH2 0x7C0 JUMPI PUSH1 0x0 DUP1 REVERT JUMPDEST POP JUMP JUMPDEST PUSH1 0x0 DUP2 CALLDATALOAD SWAP1 POP PUSH2 0x7D2 DUP2 PUSH2 0x7AC JUMP JUMPDEST SWAP3 SWAP2 POP POP JUMP JUMPDEST PUSH1 0x0 DUP2 SWAP1 POP SWAP2 SWAP1 POP JUMP JUMPDEST PUSH2 0x7EB DUP2 PUSH2 0x7D8 JUMP JUMPDEST DUP2 EQ PUSH2 0x7F6 JUMPI PUSH1 0x0 DUP1 REVERT JUMPDEST POP JUMP JUMPDEST PUSH1 0x0 DUP2 CALLDATALOAD SWAP1 POP PUSH2 0x808 DUP2 PUSH2 0x7E2 JUMP JUMPDEST SWAP3 SWAP2 POP POP JUMP JUMPDEST PUSH1 0x0 DUP1 PUSH1 0x40 DUP4 DUP6 SUB SLT ISZERO PUSH2 0x825 JUMPI PUSH2 0x824 PUSH2 0x775 JUMP JUMPDEST JUMPDEST PUSH1 0x0 PUSH2 0x833 DUP6 DUP3 DUP7 ADD PUSH2 0x7C3 JUMP JUMPDEST SWAP3 POP POP PUSH1 0x20 PUSH2 0x844 DUP6 DUP3 DUP7 ADD PUSH2 0x7F9 JUMP JUMPDEST SWAP2 POP POP SWAP3 POP SWAP3 SWAP1 POP JUMP JUMPDEST PUSH1 0x0 PUSH1 0x20 DUP3 DUP5 SUB SLT ISZERO PUSH2 0x864 JUMPI PUSH2 0x863 PUSH2 0x775 JUMP JUMPDEST JUMPDEST PUSH1 0x0 PUSH2 0x872 DUP5 DUP3 DUP6 ADD PUSH2 0x7F9 JUMP JUMPDEST SWAP2 POP POP SWAP3 SWAP2 POP POP JUMP JUMPDEST PUSH1 0x0 DUP1 PUSH1 0x0 PUSH1 0x60 DUP5 DUP7 SUB SLT ISZERO PUSH2 0x894 JUMPI PUSH2 0x893 PUSH2 0x775 JUMP JUMPDEST JUMPDEST PUSH1 0x0 PUSH2 0x8A2 DUP7 DUP3 DUP8 ADD PUSH2 0x7C3 JUMP JUMPDEST SWAP4 POP POP PUSH1 0x20 PUSH2 0x8B3 DUP7 DUP3 DUP8 ADD PUSH2 0x7F9 JUMP JUMPDEST SWAP3 POP POP PUSH1 0x40 PUSH2 0x8C4 DUP7 DUP3 DUP8 ADD PUSH2 0x7F9 JUMP JUMPDEST SWAP2 POP POP SWAP3 POP SWAP3 POP SWAP3 JUMP JUMPDEST PUSH2 0x8D7 DUP2 PUSH2 0x7D8 JUMP JUMPDEST DUP3 MSTORE POP POP JUMP JUMPDEST PUSH1 0x0 PUSH1 0x20 DUP3 ADD SWAP1 POP PUSH2 0x8F2 PUSH1 0x0 DUP4 ADD DUP5 PUSH2 0x8CE JUMP JUMPDEST SWAP3 SWAP2 POP POP JUMP JUMPDEST PUSH1 0x0 PUSH1 0x20 DUP3 DUP5 SUB SLT ISZERO PUSH2 0x90E JUMPI PUSH2 0x90D PUSH2 0x775 JUMP JUMPDEST JUMPDEST PUSH1 0x0 PUSH2 0x91C DUP5 DUP3 DUP6 ADD PUSH2 0x7C3 JUMP JUMPDEST SWAP2 POP POP SWAP3 SWAP2 POP POP JUMP JUMPDEST PUSH32 0x4E487B7100000000000000000000000000000000000000000000000000000000 PUSH1 0x0 MSTORE PUSH1 0x32 PUSH1 0x4 MSTORE PUSH1 0x24 PUSH1 0x0 REVERT JUMPDEST PUSH32 0x4E487B7100000000000000000000000000000000000000000000000000000000 PUSH1 0x0 MSTORE PUSH1 0x11 PUSH1 0x4 MSTORE PUSH1 0x24 PUSH1 0x0 REVERT JUMPDEST PUSH1 0x0 PUSH2 0x98E DUP3 PUSH2 0x7D8 JUMP JUMPDEST SWAP2 POP PUSH2 0x999 DUP4 PUSH2 0x7D8 JUMP JUMPDEST SWAP3 POP DUP3 DUP3 SUB SWAP1 POP DUP2 DUP2 GT ISZERO PUSH2 0x9B1 JUMPI PUSH2 0x9B0 PUSH2 0x954 JUMP JUMPDEST JUMPDEST SWAP3 SWAP2 POP POP JUMP JUMPDEST PUSH1 0x0 PUSH2 0x9C2 DUP3 PUSH2 0x7D8 JUMP JUMPDEST SWAP2 POP PUSH2 0x9CD DUP4 PUSH2 0x7D8 JUMP JUMPDEST SWAP3 POP DUP3 DUP3 ADD SWAP1 POP DUP1 DUP3 GT ISZERO PUSH2 0x9E5 JUMPI PUSH2 0x9E4 PUSH2 0x954 JUMP JUMPDEST JUMPDEST SWAP3 SWAP2 POP POP JUMP JUMPDEST PUSH1 0x0 PUSH2 0x9F6 DUP3 PUSH2 0x7D8 JUMP JUMPDEST SWAP2 POP PUSH32 0xFFFFFFFFFFFFFFFFFFFFFFFFFFFFFFFFFFFFFFFFFFFFFFFFFFFFFFFFFFFFFFFF DUP3 SUB PUSH2 0xA28 JUMPI PUSH2 0xA27 PUSH2 0x954 JUMP JUMPDEST JUMPDEST PUSH1 0x1 DUP3 ADD SWAP1 POP SWAP2 SWAP1 POP JUMP JUMPDEST PUSH32 0x4E487B7100000000000000000000000000000000000000000000000000000000 PUSH1 0x0 MSTORE PUSH1 0x31 PUSH1 0x4 MSTORE PUSH1 0x24 PUSH1 0x0 REVERT JUMPDEST PUSH1 0x0 DUP2 SWAP1 POP SWAP2 SWAP1 POP JUMP JUMPDEST PUSH1 0x0 PUSH2 0xA77 DUP3 PUSH2 0xA62 JUMP JUMPDEST SWAP2 POP PUSH32 0x7FFFFFFFFFFFFFFFFFFFFFFFFFFFFFFFFFFFFFFFFFFFFFFFFFFFFFFFFFFFFFFF DUP3 SUB PUSH2 0xAA9 JUMPI PUSH2 0xAA8 PUSH2 0x954 JUMP JUMPDEST JUMPDEST PUSH1 0x1 DUP3 ADD SWAP1 POP SWAP2 SWAP1 POP JUMP JUMPDEST PUSH1 0x0 PUSH2 0xABF DUP3 PUSH2 0xA62 JUMP JUMPDEST SWAP2 POP PUSH2 0xACA DUP4 PUSH2 0xA62 JUMP JUMPDEST SWAP3 POP DUP3 DUP3 SUB SWAP1 POP DUP2 DUP2 SLT PUSH1 0x0 DUP5 SLT AND DUP3 DUP3 SGT PUSH1 0x0 DUP6 SLT ISZERO AND OR ISZERO PUSH2 0xAF1 JUMPI PUSH2 0xAF0 PUSH2 0x954 JUMP JUMPDEST JUMPDEST SWAP3 SWAP2 POP POP JUMP JUMPDEST PUSH1 0x0 PUSH2 0xB02 DUP3 PUSH2 0xA62 JUMP JUMPDEST SWAP2 POP PUSH32 0x8000000000000000000000000000000000000000000000000000000000000000 DUP3 SUB PUSH2 0xB34 JUMPI PUSH2 0xB33 PUSH2 0x954 JUMP JUMPDEST JUMPDEST DUP2 PUSH1 0x0 SUB SWAP1 POP SWAP2 SWAP1 POP JUMP INVALID LOG2 PUSH5 0x6970667358 0x22 SLT KECCAK256 0x27 SIGNEXTEND 0xAB 0xD0 SWAP7 0xD9 OR PUSH28 0xBE2C16EF2EA5597F0BA3950B86E206C89DB302F3513B49C664736F6C PUSH4 0x43000811 STOP CALLER "
				},
				"gasEstimates": {
					"creation": {
						"codeDepositCost": "586600",
						"executionCost": "619",
						"totalCost": "587219"
					},
					"external": {
						"DeleteRecord(address,uint256)": "infinite",
						"GetDept(address)": "infinite",
						"_Borrower(address,uint256,uint256)": "infinite",
						"borrow(uint256)": "infinite"
					},
					"internal": {
						"DecreaseDept(address,int256)": "infinite"
					}
				},
				"methodIdentifiers": {
					"DeleteRecord(address,uint256)": "a6d1bafd",
					"GetDept(address)": "dd40c51c",
					"_Borrower(address,uint256,uint256)": "dac17428",
					"borrow(uint256)": "c5ebeaec"
				}
			},
			"storageLayout": {
				"storage": [
					{
						"astId": 7,
						"contract": "contracts/test.sol:test",
						"label": "_Borrower",
						"offset": 0,
						"slot": "0",
						"type": "t_mapping(t_address,t_array(t_array(t_uint256)dyn_storage)dyn_storage)"
					}
				],
				"types": {
					"t_address": {
						"encoding": "inplace",
						"label": "address",
						"numberOfBytes": "20"
					},
					"t_array(t_array(t_uint256)dyn_storage)dyn_storage": {
						"base": "t_array(t_uint256)dyn_storage",
						"encoding": "dynamic_array",
						"label": "uint256[][]",
						"numberOfBytes": "32"
					},
					"t_array(t_uint256)dyn_storage": {
						"base": "t_uint256",
						"encoding": "dynamic_array",
						"label": "uint256[]",
						"numberOfBytes": "32"
					},
					"t_mapping(t_address,t_array(t_array(t_uint256)dyn_storage)dyn_storage)": {
						"encoding": "mapping",
						"key": "t_address",
						"label": "mapping(address => uint256[][])",
						"numberOfBytes": "32",
						"value": "t_array(t_array(t_uint256)dyn_storage)dyn_storage"
					},
					"t_uint256": {
						"encoding": "inplace",
						"label": "uint256",
						"numberOfBytes": "32"
					}
				}
			},
			"userdoc": {
				"kind": "user",
				"methods": {},
				"version": 1
			}
		}
	}
}