{
	"data": {
		"bytecode": {
			"linkReferences": {},
			"object": "608060405234801561001057600080fd5b50336000806101000a81548173ffffffffffffffffffffffffffffffffffffffff021916908373ffffffffffffffffffffffffffffffffffffffff160217905550612905806100606000396000f3fe60806040526004361061012a5760003560e01c8063a512c6ec116100ab578063c67d0a161161006f578063c67d0a161461039b578063d0e30db0146103c4578063d84221ba146103ce578063dac17428146103f9578063ed96b4ed14610436578063efc1fd16146104735761012a565b8063a512c6ec146102da578063a570e610146102f1578063b4a99a4e1461031c578063c2cba30614610347578063c5ebeaec146103725761012a565b80635905c607116100f25780635905c60714610205578063652106f5146102305780638dc4ce391461025b57806390217dc7146102845780639ae8deb1146102af5761012a565b80630dacd0dc1461012f578063225ce2671461016c5780632e1a7d4d14610195578063402d8883146101be578063415197de146101c8575b600080fd5b34801561013b57600080fd5b50610156600480360381019061015191906120ed565b61049c565b6040516101639190612133565b60405180910390f35b34801561017857600080fd5b50610193600480360381019061018e919061217a565b610546565b005b3480156101a157600080fd5b506101bc60048036038101906101b7919061217a565b610550565b005b6101c66106f8565b005b3480156101d457600080fd5b506101ef60048036038101906101ea91906120ed565b61092a565b6040516101fc9190612133565b60405180910390f35b34801561021157600080fd5b5061021a610942565b6040516102279190612133565b60405180910390f35b34801561023c57600080fd5b5061024561097d565b6040516102529190612133565b60405180910390f35b34801561026757600080fd5b50610282600480360381019061027d919061217a565b610b0e565b005b34801561029057600080fd5b50610299610ba6565b6040516102a69190612133565b60405180910390f35b3480156102bb57600080fd5b506102c4610bac565b6040516102d19190612133565b60405180910390f35b3480156102e657600080fd5b506102ef610bb2565b005b3480156102fd57600080fd5b50610306610be9565b6040516103139190612133565b60405180910390f35b34801561032857600080fd5b50610331610bf9565b60405161033e91906121b6565b60405180910390f35b34801561035357600080fd5b5061035c610c1d565b60405161036991906121b6565b60405180910390f35b34801561037e57600080fd5b506103996004803603810190610394919061217a565b610c43565b005b3480156103a757600080fd5b506103c260048036038101906103bd919061217a565b610ff1565b005b6103cc610ffb565b005b3480156103da57600080fd5b506103e3611096565b6040516103f09190612133565b60405180910390f35b34801561040557600080fd5b50610420600480360381019061041b91906121d1565b6110dd565b60405161042d9190612133565b60405180910390f35b34801561044257600080fd5b5061045d600480360381019061045891906120ed565b611127565b60405161046a9190612133565b60405180910390f35b34801561047f57600080fd5b5061049a600480360381019061049591906120ed565b61121a565b005b600080600160009054906101000a900473ffffffffffffffffffffffffffffffffffffffff1690508073ffffffffffffffffffffffffffffffffffffffff166370a08231846040518263ffffffff1660e01b81526004016104fd91906121b6565b602060405180830381865afa15801561051a573d6000803e3d6000fd5b505050506040513d601f19601f8201168201806040525081019061053e9190612239565b915050919050565b8060068190555050565b60008111610593576040517f08c379a000000000000000000000000000000000000000000000000000000000815260040161058a906122c3565b60405180910390fd5b600360003373ffffffffffffffffffffffffffffffffffffffff1673ffffffffffffffffffffffffffffffffffffffff16815260200190815260200160002054811115610615576040517f08c379a000000000000000000000000000000000000000000000000000000000815260040161060c9061232f565b60405180910390fd5b47811115610658576040517f08c379a000000000000000000000000000000000000000000000000000000000815260040161064f906123c1565b60405180910390fd5b80600360003373ffffffffffffffffffffffffffffffffffffffff1673ffffffffffffffffffffffffffffffffffffffff16815260200190815260200160002060008282546106a79190612410565b925050819055503373ffffffffffffffffffffffffffffffffffffffff166108fc829081150290604051600060405180830381858888f193505050501580156106f4573d6000803e3d6000fd5b5050565b6000341161073b576040517f08c379a0000000000000000000000000000000000000000000000000000000008152600401610732906122c3565b60405180910390fd5b6107cb3360058054806020026020016040519081016040528092919081815260200182805480156107c157602002820191906000526020600020905b8160009054906101000a900473ffffffffffffffffffffffffffffffffffffffff1673ffffffffffffffffffffffffffffffffffffffff1681526020019060010190808311610777575b50505050506112ec565b61080a576040517f08c379a000000000000000000000000000000000000000000000000000000000815260040161080190612490565b60405180910390fd5b6108133361136f565b61081c33611127565b34111561085e576040517f08c379a0000000000000000000000000000000000000000000000000000000008152600401610855906124fc565b60405180910390fd5b6000600160009054906101000a900473ffffffffffffffffffffffffffffffffffffffff1690508073ffffffffffffffffffffffffffffffffffffffff1663a9059cbb336064600254346108b2919061251c565b6108bc919061258d565b6040518363ffffffff1660e01b81526004016108d99291906125be565b6020604051808303816000875af11580156108f8573d6000803e3d6000fd5b505050506040513d601f19601f8201168201806040525081019061091c919061261f565b506109273334611416565b50565b60036020528060005260406000206000915090505481565b6000606460025461095161097d565b61095b919061251c565b610965919061258d565b61096e3061049c565b6109789190612410565b905090565b60008060005b600580549050811015610b065760005b60046000600584815481106109ab576109aa61264c565b5b9060005260206000200160009054906101000a900473ffffffffffffffffffffffffffffffffffffffff1673ffffffffffffffffffffffffffffffffffffffff1673ffffffffffffffffffffffffffffffffffffffff16815260200190815260200160002080549050811015610af2576004600060058481548110610a3357610a3261264c565b5b9060005260206000200160009054906101000a900473ffffffffffffffffffffffffffffffffffffffff1673ffffffffffffffffffffffffffffffffffffffff1673ffffffffffffffffffffffffffffffffffffffff1681526020019081526020016000208181548110610aaa57610aa961264c565b5b90600052602060002001600181548110610ac757610ac661264c565b5b906000526020600020015483610add919061267b565b92508080610aea906126af565b915050610993565b508080610afe906126af565b915050610983565b508091505090565b6000600160009054906101000a900473ffffffffffffffffffffffffffffffffffffffff1690508073ffffffffffffffffffffffffffffffffffffffff16635a70322333846040518363ffffffff1660e01b8152600401610b709291906125be565b600060405180830381600087803b158015610b8a57600080fd5b505af1158015610b9e573d6000803e3d6000fd5b505050505050565b60065481565b60025481565b60005b600580549050811015610be6576002610bcd826116cf565b14610be1578080610bdd906126af565b9150505b610bb5565b50565b6000610bf433611127565b905090565b60008054906101000a900473ffffffffffffffffffffffffffffffffffffffff1681565b600160009054906101000a900473ffffffffffffffffffffffffffffffffffffffff1681565b60008111610c86576040517f08c379a0000000000000000000000000000000000000000000000000000000008152600401610c7d906122c3565b60405180910390fd5b47811115610cc9576040517f08c379a0000000000000000000000000000000000000000000000000000000008152600401610cc0906123c1565b60405180910390fd5b6000600160009054906101000a900473ffffffffffffffffffffffffffffffffffffffff1690508073ffffffffffffffffffffffffffffffffffffffff1663e1f21c673330606460025487610d1e919061251c565b610d28919061258d565b6040518463ffffffff1660e01b8152600401610d46939291906126f7565b6020604051808303816000875af1158015610d65573d6000803e3d6000fd5b505050506040513d601f19601f82011682018060405250810190610d89919061261f565b508073ffffffffffffffffffffffffffffffffffffffff166323b872dd3330606460025487610db8919061251c565b610dc2919061258d565b6040518463ffffffff1660e01b8152600401610de0939291906126f7565b6020604051808303816000875af1158015610dff573d6000803e3d6000fd5b505050506040513d601f19601f82011682018060405250810190610e23919061261f565b50610eb4336005805480602002602001604051908101604052809291908181526020018280548015610eaa57602002820191906000526020600020905b8160009054906101000a900473ffffffffffffffffffffffffffffffffffffffff1673ffffffffffffffffffffffffffffffffffffffff1681526020019060010190808311610e60575b50505050506112ec565b610f1c576005339080600181540180825580915050600190039060005260206000200160009091909190916101000a81548173ffffffffffffffffffffffffffffffffffffffff021916908373ffffffffffffffffffffffffffffffffffffffff1602179055505b604051806040016040528060065442610f35919061267b565b815260200183815250600460003373ffffffffffffffffffffffffffffffffffffffff1673ffffffffffffffffffffffffffffffffffffffff1681526020019081526020016000206001816001815401808255809150500390600052602060002001906002610fa5929190611f46565b503373ffffffffffffffffffffffffffffffffffffffff166108fc839081150290604051600060405180830381858888f19350505050158015610fec573d6000803e3d6000fd5b505050565b8060028190555050565b6000341161103e576040517f08c379a0000000000000000000000000000000000000000000000000000000008152600401611035906122c3565b60405180910390fd5b34600360003373ffffffffffffffffffffffffffffffffffffffff1673ffffffffffffffffffffffffffffffffffffffff168152602001908152602001600020600082825461108d919061267b565b92505081905550565b6000600360003373ffffffffffffffffffffffffffffffffffffffff1673ffffffffffffffffffffffffffffffffffffffff16815260200190815260200160002054905090565b600460205282600052604060002082815481106110f957600080fd5b90600052602060002001818154811061111157600080fd5b9060005260206000200160009250925050505481565b60008060005b600460008573ffffffffffffffffffffffffffffffffffffffff1673ffffffffffffffffffffffffffffffffffffffff1681526020019081526020016000208054905081101561121057600460008573ffffffffffffffffffffffffffffffffffffffff1673ffffffffffffffffffffffffffffffffffffffff16815260200190815260200160002081815481106111c8576111c761264c565b5b906000526020600020016001815481106111e5576111e461264c565b5b9060005260206000200154826111fb919061267b565b91508080611208906126af565b91505061112d565b5080915050919050565b60008054906101000a900473ffffffffffffffffffffffffffffffffffffffff1673ffffffffffffffffffffffffffffffffffffffff163373ffffffffffffffffffffffffffffffffffffffff16146112a8576040517f08c379a000000000000000000000000000000000000000000000000000000000815260040161129f9061277a565b60405180910390fd5b80600160006101000a81548173ffffffffffffffffffffffffffffffffffffffff021916908373ffffffffffffffffffffffffffffffffffffffff16021790555050565b6000805b82518110156113635782818151811061130c5761130b61264c565b5b602002602001015173ffffffffffffffffffffffffffffffffffffffff168473ffffffffffffffffffffffffffffffffffffffff1603611350576001915050611369565b808061135b906126af565b9150506112f0565b50600090505b92915050565b60005b600580549050811015611412578173ffffffffffffffffffffffffffffffffffffffff16600582815481106113aa576113a961264c565b5b9060005260206000200160009054906101000a900473ffffffffffffffffffffffffffffffffffffffff1673ffffffffffffffffffffffffffffffffffffffff16036113ff576113f9816116cf565b50611412565b808061140a906126af565b915050611372565b5050565b60006114228383611e56565b905060005b8160016002811061143b5761143a61264c565b5b6020020151600460008673ffffffffffffffffffffffffffffffffffffffff1673ffffffffffffffffffffffffffffffffffffffff1681526020019081526020016000208054905061148d9190612410565b81101561158f57600460008573ffffffffffffffffffffffffffffffffffffffff1673ffffffffffffffffffffffffffffffffffffffff168152602001908152602001600020826001600281106114e7576114e661264c565b5b6020020151826114f7919061267b565b815481106115085761150761264c565b5b90600052602060002001600460008673ffffffffffffffffffffffffffffffffffffffff1673ffffffffffffffffffffffffffffffffffffffff16815260200190815260200160002082815481106115635761156261264c565b5b9060005260206000200190805461157b929190611f93565b508080611587906126af565b915050611427565b5060005b816001600281106115a7576115a661264c565b5b602002015181101561163357600460008573ffffffffffffffffffffffffffffffffffffffff1673ffffffffffffffffffffffffffffffffffffffff1681526020019081526020016000208054806116025761160161279a565b5b60019003818190600052602060002001600061161e9190611fe5565b9055808061162b906126af565b915050611593565b50806000600281106116485761164761264c565b5b6020020151600460008573ffffffffffffffffffffffffffffffffffffffff1673ffffffffffffffffffffffffffffffffffffffff16815260200190815260200160002060008154811061169f5761169e61264c565b5b906000526020600020016001815481106116bc576116bb61264c565b5b9060005260206000200181905550505050565b6000805b60046000600585815481106116eb576116ea61264c565b5b9060005260206000200160009054906101000a900473ffffffffffffffffffffffffffffffffffffffff1673ffffffffffffffffffffffffffffffffffffffff1673ffffffffffffffffffffffffffffffffffffffff16815260200190815260200160002080549050811015611e4f574260046000600586815481106117745761177361264c565b5b9060005260206000200160009054906101000a900473ffffffffffffffffffffffffffffffffffffffff1673ffffffffffffffffffffffffffffffffffffffff1673ffffffffffffffffffffffffffffffffffffffff16815260200190815260200160002082815481106117eb576117ea61264c565b5b906000526020600020016000815481106118085761180761264c565b5b906000526020600020015410611b025760008114611af857808061182b906127c9565b91505060005b81600460006005878154811061184a5761184961264c565b5b9060005260206000200160009054906101000a900473ffffffffffffffffffffffffffffffffffffffff1673ffffffffffffffffffffffffffffffffffffffff1673ffffffffffffffffffffffffffffffffffffffff168152602001908152602001600020805490506118bd9190612410565b811015611a235760046000600586815481106118dc576118db61264c565b5b9060005260206000200160009054906101000a900473ffffffffffffffffffffffffffffffffffffffff1673ffffffffffffffffffffffffffffffffffffffff1673ffffffffffffffffffffffffffffffffffffffff168152602001908152602001600020828261194d919061267b565b8154811061195e5761195d61264c565b5b9060005260206000200160046000600587815481106119805761197f61264c565b5b9060005260206000200160009054906101000a900473ffffffffffffffffffffffffffffffffffffffff1673ffffffffffffffffffffffffffffffffffffffff1673ffffffffffffffffffffffffffffffffffffffff16815260200190815260200160002082815481106119f7576119f661264c565b5b90600052602060002001908054611a0f929190611f93565b508080611a1b906126af565b915050611831565b5060005b81811015611aed576004600060058681548110611a4757611a4661264c565b5b9060005260206000200160009054906101000a900473ffffffffffffffffffffffffffffffffffffffff1673ffffffffffffffffffffffffffffffffffffffff1673ffffffffffffffffffffffffffffffffffffffff168152602001908152602001600020805480611abc57611abb61279a565b5b600190038181906000526020600020016000611ad89190611fe5565b90558080611ae5906126af565b915050611a27565b506001915050611e51565b6000915050611e51565b60016004600060058681548110611b1c57611b1b61264c565b5b9060005260206000200160009054906101000a900473ffffffffffffffffffffffffffffffffffffffff1673ffffffffffffffffffffffffffffffffffffffff1673ffffffffffffffffffffffffffffffffffffffff16815260200190815260200160002080549050611b8f9190612410565b811480611c285750600081148015611c27575060016004600060058681548110611bbc57611bbb61264c565b5b9060005260206000200160009054906101000a900473ffffffffffffffffffffffffffffffffffffffff1673ffffffffffffffffffffffffffffffffffffffff1673ffffffffffffffffffffffffffffffffffffffff16815260200190815260200160002080549050145b5b15611e3c5760016004600060058681548110611c4757611c4661264c565b5b9060005260206000200160009054906101000a900473ffffffffffffffffffffffffffffffffffffffff1673ffffffffffffffffffffffffffffffffffffffff1673ffffffffffffffffffffffffffffffffffffffff1681526020019081526020016000208054905014611d625760056001600580549050611cc99190612410565b81548110611cda57611cd961264c565b5b9060005260206000200160009054906101000a900473ffffffffffffffffffffffffffffffffffffffff1660058481548110611d1957611d1861264c565b5b9060005260206000200160006101000a81548173ffffffffffffffffffffffffffffffffffffffff021916908373ffffffffffffffffffffffffffffffffffffffff1602179055505b6004600060058581548110611d7a57611d7961264c565b5b9060005260206000200160009054906101000a900473ffffffffffffffffffffffffffffffffffffffff1673ffffffffffffffffffffffffffffffffffffffff1673ffffffffffffffffffffffffffffffffffffffff1681526020019081526020016000206000611deb9190612006565b6005805480611dfd57611dfc61279a565b5b6001900381819060005260206000200160006101000a81549073ffffffffffffffffffffffffffffffffffffffff021916905590556002915050611e51565b8080611e47906126af565b9150506116d3565b505b919050565b611e5e612027565b6000805b6000841315611f12578180611e76906127fc565b925050600460008673ffffffffffffffffffffffffffffffffffffffff1673ffffffffffffffffffffffffffffffffffffffff1681526020019081526020016000208181548110611eca57611ec961264c565b5b90600052602060002001600181548110611ee757611ee661264c565b5b906000526020600020015484611efd9190612844565b93508080611f0a906126af565b915050611e62565b50604051806040016040528084611f2890612887565b8152602001600183611f3a9190612844565b81525091505092915050565b828054828255906000526020600020908101928215611f82579160200282015b82811115611f81578251825591602001919060010190611f66565b5b509050611f8f9190612049565b5090565b828054828255906000526020600020908101928215611fd45760005260206000209182015b82811115611fd3578254825591600101919060010190611fb8565b5b509050611fe19190612049565b5090565b50805460008255906000526020600020908101906120039190612049565b50565b50805460008255906000526020600020908101906120249190612066565b50565b6040518060400160405280600290602082028036833780820191505090505090565b5b8082111561206257600081600090555060010161204a565b5090565b5b80821115612086576000818161207d9190611fe5565b50600101612067565b5090565b600080fd5b600073ffffffffffffffffffffffffffffffffffffffff82169050919050565b60006120ba8261208f565b9050919050565b6120ca816120af565b81146120d557600080fd5b50565b6000813590506120e7816120c1565b92915050565b6000602082840312156121035761210261208a565b5b6000612111848285016120d8565b91505092915050565b6000819050919050565b61212d8161211a565b82525050565b60006020820190506121486000830184612124565b92915050565b6121578161211a565b811461216257600080fd5b50565b6000813590506121748161214e565b92915050565b6000602082840312156121905761218f61208a565b5b600061219e84828501612165565b91505092915050565b6121b0816120af565b82525050565b60006020820190506121cb60008301846121a7565b92915050565b6000806000606084860312156121ea576121e961208a565b5b60006121f8868287016120d8565b935050602061220986828701612165565b925050604061221a86828701612165565b9150509250925092565b6000815190506122338161214e565b92915050565b60006020828403121561224f5761224e61208a565b5b600061225d84828501612224565b91505092915050565b600082825260208201905092915050565b7f416d6f756e7420696e76616c6964000000000000000000000000000000000000600082015250565b60006122ad600e83612266565b91506122b882612277565b602082019050919050565b600060208201905081810360008301526122dc816122a0565b9050919050565b7f42616c616e6365206e6f7420656f756768000000000000000000000000000000600082015250565b6000612319601183612266565b9150612324826122e3565b602082019050919050565b600060208201905081810360008301526123488161230c565b9050919050565b7f536d61727420436f6e746163742068617665206e6f7420656e6f75676820657460008201527f6800000000000000000000000000000000000000000000000000000000000000602082015250565b60006123ab602183612266565b91506123b68261234f565b604082019050919050565b600060208201905081810360008301526123da8161239e565b9050919050565b7f4e487b7100000000000000000000000000000000000000000000000000000000600052601160045260246000fd5b600061241b8261211a565b91506124268361211a565b925082820390508181111561243e5761243d6123e1565b5b92915050565b7f596f752068617665206e6f206465707400000000000000000000000000000000600082015250565b600061247a601083612266565b915061248582612444565b602082019050919050565b600060208201905081810360008301526124a98161246d565b9050919050565b7f416d6f756e74206d6f7265207468616e20646570740000000000000000000000600082015250565b60006124e6601583612266565b91506124f1826124b0565b602082019050919050565b60006020820190508181036000830152612515816124d9565b9050919050565b60006125278261211a565b91506125328361211a565b92508282026125408161211a565b91508282048414831517612557576125566123e1565b5b5092915050565b7f4e487b7100000000000000000000000000000000000000000000000000000000600052601260045260246000fd5b60006125988261211a565b91506125a38361211a565b9250826125b3576125b261255e565b5b828204905092915050565b60006040820190506125d360008301856121a7565b6125e06020830184612124565b9392505050565b60008115159050919050565b6125fc816125e7565b811461260757600080fd5b50565b600081519050612619816125f3565b92915050565b6000602082840312156126355761263461208a565b5b60006126438482850161260a565b91505092915050565b7f4e487b7100000000000000000000000000000000000000000000000000000000600052603260045260246000fd5b60006126868261211a565b91506126918361211a565b92508282019050808211156126a9576126a86123e1565b5b92915050565b60006126ba8261211a565b91507fffffffffffffffffffffffffffffffffffffffffffffffffffffffffffffffff82036126ec576126eb6123e1565b5b600182019050919050565b600060608201905061270c60008301866121a7565b61271960208301856121a7565b6127266040830184612124565b949350505050565b7f41646d696e206f6e6c7900000000000000000000000000000000000000000000600082015250565b6000612764600a83612266565b915061276f8261272e565b602082019050919050565b6000602082019050818103600083015261279381612757565b9050919050565b7f4e487b7100000000000000000000000000000000000000000000000000000000600052603160045260246000fd5b60006127d48261211a565b9150600082036127e7576127e66123e1565b5b600182039050919050565b6000819050919050565b6000612807826127f2565b91507f7fffffffffffffffffffffffffffffffffffffffffffffffffffffffffffffff8203612839576128386123e1565b5b600182019050919050565b600061284f826127f2565b915061285a836127f2565b9250828203905081811260008412168282136000851215161715612881576128806123e1565b5b92915050565b6000612892826127f2565b91507f800000000000000000000000000000000000000000000000000000000000000082036128c4576128c36123e1565b5b81600003905091905056fea26469706673582212201c671c65877188b0e88e88a24cfe964b0739af07632c92d88e50d57454cbcd1464736f6c63430008110033",
			"opcodes": "PUSH1 0x80 PUSH1 0x40 MSTORE CALLVALUE DUP1 ISZERO PUSH2 0x10 JUMPI PUSH1 0x0 DUP1 REVERT JUMPDEST POP CALLER PUSH1 0x0 DUP1 PUSH2 0x100 EXP DUP2 SLOAD DUP2 PUSH20 0xFFFFFFFFFFFFFFFFFFFFFFFFFFFFFFFFFFFFFFFF MUL NOT AND SWAP1 DUP4 PUSH20 0xFFFFFFFFFFFFFFFFFFFFFFFFFFFFFFFFFFFFFFFF AND MUL OR SWAP1 SSTORE POP PUSH2 0x2905 DUP1 PUSH2 0x60 PUSH1 0x0 CODECOPY PUSH1 0x0 RETURN INVALID PUSH1 0x80 PUSH1 0x40 MSTORE PUSH1 0x4 CALLDATASIZE LT PUSH2 0x12A JUMPI PUSH1 0x0 CALLDATALOAD PUSH1 0xE0 SHR DUP1 PUSH4 0xA512C6EC GT PUSH2 0xAB JUMPI DUP1 PUSH4 0xC67D0A16 GT PUSH2 0x6F JUMPI DUP1 PUSH4 0xC67D0A16 EQ PUSH2 0x39B JUMPI DUP1 PUSH4 0xD0E30DB0 EQ PUSH2 0x3C4 JUMPI DUP1 PUSH4 0xD84221BA EQ PUSH2 0x3CE JUMPI DUP1 PUSH4 0xDAC17428 EQ PUSH2 0x3F9 JUMPI DUP1 PUSH4 0xED96B4ED EQ PUSH2 0x436 JUMPI DUP1 PUSH4 0xEFC1FD16 EQ PUSH2 0x473 JUMPI PUSH2 0x12A JUMP JUMPDEST DUP1 PUSH4 0xA512C6EC EQ PUSH2 0x2DA JUMPI DUP1 PUSH4 0xA570E610 EQ PUSH2 0x2F1 JUMPI DUP1 PUSH4 0xB4A99A4E EQ PUSH2 0x31C JUMPI DUP1 PUSH4 0xC2CBA306 EQ PUSH2 0x347 JUMPI DUP1 PUSH4 0xC5EBEAEC EQ PUSH2 0x372 JUMPI PUSH2 0x12A JUMP JUMPDEST DUP1 PUSH4 0x5905C607 GT PUSH2 0xF2 JUMPI DUP1 PUSH4 0x5905C607 EQ PUSH2 0x205 JUMPI DUP1 PUSH4 0x652106F5 EQ PUSH2 0x230 JUMPI DUP1 PUSH4 0x8DC4CE39 EQ PUSH2 0x25B JUMPI DUP1 PUSH4 0x90217DC7 EQ PUSH2 0x284 JUMPI DUP1 PUSH4 0x9AE8DEB1 EQ PUSH2 0x2AF JUMPI PUSH2 0x12A JUMP JUMPDEST DUP1 PUSH4 0xDACD0DC EQ PUSH2 0x12F JUMPI DUP1 PUSH4 0x225CE267 EQ PUSH2 0x16C JUMPI DUP1 PUSH4 0x2E1A7D4D EQ PUSH2 0x195 JUMPI DUP1 PUSH4 0x402D8883 EQ PUSH2 0x1BE JUMPI DUP1 PUSH4 0x415197DE EQ PUSH2 0x1C8 JUMPI JUMPDEST PUSH1 0x0 DUP1 REVERT JUMPDEST CALLVALUE DUP1 ISZERO PUSH2 0x13B JUMPI PUSH1 0x0 DUP1 REVERT JUMPDEST POP PUSH2 0x156 PUSH1 0x4 DUP1 CALLDATASIZE SUB DUP2 ADD SWAP1 PUSH2 0x151 SWAP2 SWAP1 PUSH2 0x20ED JUMP JUMPDEST PUSH2 0x49C JUMP JUMPDEST PUSH1 0x40 MLOAD PUSH2 0x163 SWAP2 SWAP1 PUSH2 0x2133 JUMP JUMPDEST PUSH1 0x40 MLOAD DUP1 SWAP2 SUB SWAP1 RETURN JUMPDEST CALLVALUE DUP1 ISZERO PUSH2 0x178 JUMPI PUSH1 0x0 DUP1 REVERT JUMPDEST POP PUSH2 0x193 PUSH1 0x4 DUP1 CALLDATASIZE SUB DUP2 ADD SWAP1 PUSH2 0x18E SWAP2 SWAP1 PUSH2 0x217A JUMP JUMPDEST PUSH2 0x546 JUMP JUMPDEST STOP JUMPDEST CALLVALUE DUP1 ISZERO PUSH2 0x1A1 JUMPI PUSH1 0x0 DUP1 REVERT JUMPDEST POP PUSH2 0x1BC PUSH1 0x4 DUP1 CALLDATASIZE SUB DUP2 ADD SWAP1 PUSH2 0x1B7 SWAP2 SWAP1 PUSH2 0x217A JUMP JUMPDEST PUSH2 0x550 JUMP JUMPDEST STOP JUMPDEST PUSH2 0x1C6 PUSH2 0x6F8 JUMP JUMPDEST STOP JUMPDEST CALLVALUE DUP1 ISZERO PUSH2 0x1D4 JUMPI PUSH1 0x0 DUP1 REVERT JUMPDEST POP PUSH2 0x1EF PUSH1 0x4 DUP1 CALLDATASIZE SUB DUP2 ADD SWAP1 PUSH2 0x1EA SWAP2 SWAP1 PUSH2 0x20ED JUMP JUMPDEST PUSH2 0x92A JUMP JUMPDEST PUSH1 0x40 MLOAD PUSH2 0x1FC SWAP2 SWAP1 PUSH2 0x2133 JUMP JUMPDEST PUSH1 0x40 MLOAD DUP1 SWAP2 SUB SWAP1 RETURN JUMPDEST CALLVALUE DUP1 ISZERO PUSH2 0x211 JUMPI PUSH1 0x0 DUP1 REVERT JUMPDEST POP PUSH2 0x21A PUSH2 0x942 JUMP JUMPDEST PUSH1 0x40 MLOAD PUSH2 0x227 SWAP2 SWAP1 PUSH2 0x2133 JUMP JUMPDEST PUSH1 0x40 MLOAD DUP1 SWAP2 SUB SWAP1 RETURN JUMPDEST CALLVALUE DUP1 ISZERO PUSH2 0x23C JUMPI PUSH1 0x0 DUP1 REVERT JUMPDEST POP PUSH2 0x245 PUSH2 0x97D JUMP JUMPDEST PUSH1 0x40 MLOAD PUSH2 0x252 SWAP2 SWAP1 PUSH2 0x2133 JUMP JUMPDEST PUSH1 0x40 MLOAD DUP1 SWAP2 SUB SWAP1 RETURN JUMPDEST CALLVALUE DUP1 ISZERO PUSH2 0x267 JUMPI PUSH1 0x0 DUP1 REVERT JUMPDEST POP PUSH2 0x282 PUSH1 0x4 DUP1 CALLDATASIZE SUB DUP2 ADD SWAP1 PUSH2 0x27D SWAP2 SWAP1 PUSH2 0x217A JUMP JUMPDEST PUSH2 0xB0E JUMP JUMPDEST STOP JUMPDEST CALLVALUE DUP1 ISZERO PUSH2 0x290 JUMPI PUSH1 0x0 DUP1 REVERT JUMPDEST POP PUSH2 0x299 PUSH2 0xBA6 JUMP JUMPDEST PUSH1 0x40 MLOAD PUSH2 0x2A6 SWAP2 SWAP1 PUSH2 0x2133 JUMP JUMPDEST PUSH1 0x40 MLOAD DUP1 SWAP2 SUB SWAP1 RETURN JUMPDEST CALLVALUE DUP1 ISZERO PUSH2 0x2BB JUMPI PUSH1 0x0 DUP1 REVERT JUMPDEST POP PUSH2 0x2C4 PUSH2 0xBAC JUMP JUMPDEST PUSH1 0x40 MLOAD PUSH2 0x2D1 SWAP2 SWAP1 PUSH2 0x2133 JUMP JUMPDEST PUSH1 0x40 MLOAD DUP1 SWAP2 SUB SWAP1 RETURN JUMPDEST CALLVALUE DUP1 ISZERO PUSH2 0x2E6 JUMPI PUSH1 0x0 DUP1 REVERT JUMPDEST POP PUSH2 0x2EF PUSH2 0xBB2 JUMP JUMPDEST STOP JUMPDEST CALLVALUE DUP1 ISZERO PUSH2 0x2FD JUMPI PUSH1 0x0 DUP1 REVERT JUMPDEST POP PUSH2 0x306 PUSH2 0xBE9 JUMP JUMPDEST PUSH1 0x40 MLOAD PUSH2 0x313 SWAP2 SWAP1 PUSH2 0x2133 JUMP JUMPDEST PUSH1 0x40 MLOAD DUP1 SWAP2 SUB SWAP1 RETURN JUMPDEST CALLVALUE DUP1 ISZERO PUSH2 0x328 JUMPI PUSH1 0x0 DUP1 REVERT JUMPDEST POP PUSH2 0x331 PUSH2 0xBF9 JUMP JUMPDEST PUSH1 0x40 MLOAD PUSH2 0x33E SWAP2 SWAP1 PUSH2 0x21B6 JUMP JUMPDEST PUSH1 0x40 MLOAD DUP1 SWAP2 SUB SWAP1 RETURN JUMPDEST CALLVALUE DUP1 ISZERO PUSH2 0x353 JUMPI PUSH1 0x0 DUP1 REVERT JUMPDEST POP PUSH2 0x35C PUSH2 0xC1D JUMP JUMPDEST PUSH1 0x40 MLOAD PUSH2 0x369 SWAP2 SWAP1 PUSH2 0x21B6 JUMP JUMPDEST PUSH1 0x40 MLOAD DUP1 SWAP2 SUB SWAP1 RETURN JUMPDEST CALLVALUE DUP1 ISZERO PUSH2 0x37E JUMPI PUSH1 0x0 DUP1 REVERT JUMPDEST POP PUSH2 0x399 PUSH1 0x4 DUP1 CALLDATASIZE SUB DUP2 ADD SWAP1 PUSH2 0x394 SWAP2 SWAP1 PUSH2 0x217A JUMP JUMPDEST PUSH2 0xC43 JUMP JUMPDEST STOP JUMPDEST CALLVALUE DUP1 ISZERO PUSH2 0x3A7 JUMPI PUSH1 0x0 DUP1 REVERT JUMPDEST POP PUSH2 0x3C2 PUSH1 0x4 DUP1 CALLDATASIZE SUB DUP2 ADD SWAP1 PUSH2 0x3BD SWAP2 SWAP1 PUSH2 0x217A JUMP JUMPDEST PUSH2 0xFF1 JUMP JUMPDEST STOP JUMPDEST PUSH2 0x3CC PUSH2 0xFFB JUMP JUMPDEST STOP JUMPDEST CALLVALUE DUP1 ISZERO PUSH2 0x3DA JUMPI PUSH1 0x0 DUP1 REVERT JUMPDEST POP PUSH2 0x3E3 PUSH2 0x1096 JUMP JUMPDEST PUSH1 0x40 MLOAD PUSH2 0x3F0 SWAP2 SWAP1 PUSH2 0x2133 JUMP JUMPDEST PUSH1 0x40 MLOAD DUP1 SWAP2 SUB SWAP1 RETURN JUMPDEST CALLVALUE DUP1 ISZERO PUSH2 0x405 JUMPI PUSH1 0x0 DUP1 REVERT JUMPDEST POP PUSH2 0x420 PUSH1 0x4 DUP1 CALLDATASIZE SUB DUP2 ADD SWAP1 PUSH2 0x41B SWAP2 SWAP1 PUSH2 0x21D1 JUMP JUMPDEST PUSH2 0x10DD JUMP JUMPDEST PUSH1 0x40 MLOAD PUSH2 0x42D SWAP2 SWAP1 PUSH2 0x2133 JUMP JUMPDEST PUSH1 0x40 MLOAD DUP1 SWAP2 SUB SWAP1 RETURN JUMPDEST CALLVALUE DUP1 ISZERO PUSH2 0x442 JUMPI PUSH1 0x0 DUP1 REVERT JUMPDEST POP PUSH2 0x45D PUSH1 0x4 DUP1 CALLDATASIZE SUB DUP2 ADD SWAP1 PUSH2 0x458 SWAP2 SWAP1 PUSH2 0x20ED JUMP JUMPDEST PUSH2 0x1127 JUMP JUMPDEST PUSH1 0x40 MLOAD PUSH2 0x46A SWAP2 SWAP1 PUSH2 0x2133 JUMP JUMPDEST PUSH1 0x40 MLOAD DUP1 SWAP2 SUB SWAP1 RETURN JUMPDEST CALLVALUE DUP1 ISZERO PUSH2 0x47F JUMPI PUSH1 0x0 DUP1 REVERT JUMPDEST POP PUSH2 0x49A PUSH1 0x4 DUP1 CALLDATASIZE SUB DUP2 ADD SWAP1 PUSH2 0x495 SWAP2 SWAP1 PUSH2 0x20ED JUMP JUMPDEST PUSH2 0x121A JUMP JUMPDEST STOP JUMPDEST PUSH1 0x0 DUP1 PUSH1 0x1 PUSH1 0x0 SWAP1 SLOAD SWAP1 PUSH2 0x100 EXP SWAP1 DIV PUSH20 0xFFFFFFFFFFFFFFFFFFFFFFFFFFFFFFFFFFFFFFFF AND SWAP1 POP DUP1 PUSH20 0xFFFFFFFFFFFFFFFFFFFFFFFFFFFFFFFFFFFFFFFF AND PUSH4 0x70A08231 DUP5 PUSH1 0x40 MLOAD DUP3 PUSH4 0xFFFFFFFF AND PUSH1 0xE0 SHL DUP2 MSTORE PUSH1 0x4 ADD PUSH2 0x4FD SWAP2 SWAP1 PUSH2 0x21B6 JUMP JUMPDEST PUSH1 0x20 PUSH1 0x40 MLOAD DUP1 DUP4 SUB DUP2 DUP7 GAS STATICCALL ISZERO DUP1 ISZERO PUSH2 0x51A JUMPI RETURNDATASIZE PUSH1 0x0 DUP1 RETURNDATACOPY RETURNDATASIZE PUSH1 0x0 REVERT JUMPDEST POP POP POP POP PUSH1 0x40 MLOAD RETURNDATASIZE PUSH1 0x1F NOT PUSH1 0x1F DUP3 ADD AND DUP3 ADD DUP1 PUSH1 0x40 MSTORE POP DUP2 ADD SWAP1 PUSH2 0x53E SWAP2 SWAP1 PUSH2 0x2239 JUMP JUMPDEST SWAP2 POP POP SWAP2 SWAP1 POP JUMP JUMPDEST DUP1 PUSH1 0x6 DUP2 SWAP1 SSTORE POP POP JUMP JUMPDEST PUSH1 0x0 DUP2 GT PUSH2 0x593 JUMPI PUSH1 0x40 MLOAD PUSH32 0x8C379A000000000000000000000000000000000000000000000000000000000 DUP2 MSTORE PUSH1 0x4 ADD PUSH2 0x58A SWAP1 PUSH2 0x22C3 JUMP JUMPDEST PUSH1 0x40 MLOAD DUP1 SWAP2 SUB SWAP1 REVERT JUMPDEST PUSH1 0x3 PUSH1 0x0 CALLER PUSH20 0xFFFFFFFFFFFFFFFFFFFFFFFFFFFFFFFFFFFFFFFF AND PUSH20 0xFFFFFFFFFFFFFFFFFFFFFFFFFFFFFFFFFFFFFFFF AND DUP2 MSTORE PUSH1 0x20 ADD SWAP1 DUP2 MSTORE PUSH1 0x20 ADD PUSH1 0x0 KECCAK256 SLOAD DUP2 GT ISZERO PUSH2 0x615 JUMPI PUSH1 0x40 MLOAD PUSH32 0x8C379A000000000000000000000000000000000000000000000000000000000 DUP2 MSTORE PUSH1 0x4 ADD PUSH2 0x60C SWAP1 PUSH2 0x232F JUMP JUMPDEST PUSH1 0x40 MLOAD DUP1 SWAP2 SUB SWAP1 REVERT JUMPDEST SELFBALANCE DUP2 GT ISZERO PUSH2 0x658 JUMPI PUSH1 0x40 MLOAD PUSH32 0x8C379A000000000000000000000000000000000000000000000000000000000 DUP2 MSTORE PUSH1 0x4 ADD PUSH2 0x64F SWAP1 PUSH2 0x23C1 JUMP JUMPDEST PUSH1 0x40 MLOAD DUP1 SWAP2 SUB SWAP1 REVERT JUMPDEST DUP1 PUSH1 0x3 PUSH1 0x0 CALLER PUSH20 0xFFFFFFFFFFFFFFFFFFFFFFFFFFFFFFFFFFFFFFFF AND PUSH20 0xFFFFFFFFFFFFFFFFFFFFFFFFFFFFFFFFFFFFFFFF AND DUP2 MSTORE PUSH1 0x20 ADD SWAP1 DUP2 MSTORE PUSH1 0x20 ADD PUSH1 0x0 KECCAK256 PUSH1 0x0 DUP3 DUP3 SLOAD PUSH2 0x6A7 SWAP2 SWAP1 PUSH2 0x2410 JUMP JUMPDEST SWAP3 POP POP DUP2 SWAP1 SSTORE POP CALLER PUSH20 0xFFFFFFFFFFFFFFFFFFFFFFFFFFFFFFFFFFFFFFFF AND PUSH2 0x8FC DUP3 SWAP1 DUP2 ISZERO MUL SWAP1 PUSH1 0x40 MLOAD PUSH1 0x0 PUSH1 0x40 MLOAD DUP1 DUP4 SUB DUP2 DUP6 DUP9 DUP9 CALL SWAP4 POP POP POP POP ISZERO DUP1 ISZERO PUSH2 0x6F4 JUMPI RETURNDATASIZE PUSH1 0x0 DUP1 RETURNDATACOPY RETURNDATASIZE PUSH1 0x0 REVERT JUMPDEST POP POP JUMP JUMPDEST PUSH1 0x0 CALLVALUE GT PUSH2 0x73B JUMPI PUSH1 0x40 MLOAD PUSH32 0x8C379A000000000000000000000000000000000000000000000000000000000 DUP2 MSTORE PUSH1 0x4 ADD PUSH2 0x732 SWAP1 PUSH2 0x22C3 JUMP JUMPDEST PUSH1 0x40 MLOAD DUP1 SWAP2 SUB SWAP1 REVERT JUMPDEST PUSH2 0x7CB CALLER PUSH1 0x5 DUP1 SLOAD DUP1 PUSH1 0x20 MUL PUSH1 0x20 ADD PUSH1 0x40 MLOAD SWAP1 DUP2 ADD PUSH1 0x40 MSTORE DUP1 SWAP3 SWAP2 SWAP1 DUP2 DUP2 MSTORE PUSH1 0x20 ADD DUP3 DUP1 SLOAD DUP1 ISZERO PUSH2 0x7C1 JUMPI PUSH1 0x20 MUL DUP3 ADD SWAP2 SWAP1 PUSH1 0x0 MSTORE PUSH1 0x20 PUSH1 0x0 KECCAK256 SWAP1 JUMPDEST DUP2 PUSH1 0x0 SWAP1 SLOAD SWAP1 PUSH2 0x100 EXP SWAP1 DIV PUSH20 0xFFFFFFFFFFFFFFFFFFFFFFFFFFFFFFFFFFFFFFFF AND PUSH20 0xFFFFFFFFFFFFFFFFFFFFFFFFFFFFFFFFFFFFFFFF AND DUP2 MSTORE PUSH1 0x20 ADD SWAP1 PUSH1 0x1 ADD SWAP1 DUP1 DUP4 GT PUSH2 0x777 JUMPI JUMPDEST POP POP POP POP POP PUSH2 0x12EC JUMP JUMPDEST PUSH2 0x80A JUMPI PUSH1 0x40 MLOAD PUSH32 0x8C379A000000000000000000000000000000000000000000000000000000000 DUP2 MSTORE PUSH1 0x4 ADD PUSH2 0x801 SWAP1 PUSH2 0x2490 JUMP JUMPDEST PUSH1 0x40 MLOAD DUP1 SWAP2 SUB SWAP1 REVERT JUMPDEST PUSH2 0x813 CALLER PUSH2 0x136F JUMP JUMPDEST PUSH2 0x81C CALLER PUSH2 0x1127 JUMP JUMPDEST CALLVALUE GT ISZERO PUSH2 0x85E JUMPI PUSH1 0x40 MLOAD PUSH32 0x8C379A000000000000000000000000000000000000000000000000000000000 DUP2 MSTORE PUSH1 0x4 ADD PUSH2 0x855 SWAP1 PUSH2 0x24FC JUMP JUMPDEST PUSH1 0x40 MLOAD DUP1 SWAP2 SUB SWAP1 REVERT JUMPDEST PUSH1 0x0 PUSH1 0x1 PUSH1 0x0 SWAP1 SLOAD SWAP1 PUSH2 0x100 EXP SWAP1 DIV PUSH20 0xFFFFFFFFFFFFFFFFFFFFFFFFFFFFFFFFFFFFFFFF AND SWAP1 POP DUP1 PUSH20 0xFFFFFFFFFFFFFFFFFFFFFFFFFFFFFFFFFFFFFFFF AND PUSH4 0xA9059CBB CALLER PUSH1 0x64 PUSH1 0x2 SLOAD CALLVALUE PUSH2 0x8B2 SWAP2 SWAP1 PUSH2 0x251C JUMP JUMPDEST PUSH2 0x8BC SWAP2 SWAP1 PUSH2 0x258D JUMP JUMPDEST PUSH1 0x40 MLOAD DUP4 PUSH4 0xFFFFFFFF AND PUSH1 0xE0 SHL DUP2 MSTORE PUSH1 0x4 ADD PUSH2 0x8D9 SWAP3 SWAP2 SWAP1 PUSH2 0x25BE JUMP JUMPDEST PUSH1 0x20 PUSH1 0x40 MLOAD DUP1 DUP4 SUB DUP2 PUSH1 0x0 DUP8 GAS CALL ISZERO DUP1 ISZERO PUSH2 0x8F8 JUMPI RETURNDATASIZE PUSH1 0x0 DUP1 RETURNDATACOPY RETURNDATASIZE PUSH1 0x0 REVERT JUMPDEST POP POP POP POP PUSH1 0x40 MLOAD RETURNDATASIZE PUSH1 0x1F NOT PUSH1 0x1F DUP3 ADD AND DUP3 ADD DUP1 PUSH1 0x40 MSTORE POP DUP2 ADD SWAP1 PUSH2 0x91C SWAP2 SWAP1 PUSH2 0x261F JUMP JUMPDEST POP PUSH2 0x927 CALLER CALLVALUE PUSH2 0x1416 JUMP JUMPDEST POP JUMP JUMPDEST PUSH1 0x3 PUSH1 0x20 MSTORE DUP1 PUSH1 0x0 MSTORE PUSH1 0x40 PUSH1 0x0 KECCAK256 PUSH1 0x0 SWAP2 POP SWAP1 POP SLOAD DUP2 JUMP JUMPDEST PUSH1 0x0 PUSH1 0x64 PUSH1 0x2 SLOAD PUSH2 0x951 PUSH2 0x97D JUMP JUMPDEST PUSH2 0x95B SWAP2 SWAP1 PUSH2 0x251C JUMP JUMPDEST PUSH2 0x965 SWAP2 SWAP1 PUSH2 0x258D JUMP JUMPDEST PUSH2 0x96E ADDRESS PUSH2 0x49C JUMP JUMPDEST PUSH2 0x978 SWAP2 SWAP1 PUSH2 0x2410 JUMP JUMPDEST SWAP1 POP SWAP1 JUMP JUMPDEST PUSH1 0x0 DUP1 PUSH1 0x0 JUMPDEST PUSH1 0x5 DUP1 SLOAD SWAP1 POP DUP2 LT ISZERO PUSH2 0xB06 JUMPI PUSH1 0x0 JUMPDEST PUSH1 0x4 PUSH1 0x0 PUSH1 0x5 DUP5 DUP2 SLOAD DUP2 LT PUSH2 0x9AB JUMPI PUSH2 0x9AA PUSH2 0x264C JUMP JUMPDEST JUMPDEST SWAP1 PUSH1 0x0 MSTORE PUSH1 0x20 PUSH1 0x0 KECCAK256 ADD PUSH1 0x0 SWAP1 SLOAD SWAP1 PUSH2 0x100 EXP SWAP1 DIV PUSH20 0xFFFFFFFFFFFFFFFFFFFFFFFFFFFFFFFFFFFFFFFF AND PUSH20 0xFFFFFFFFFFFFFFFFFFFFFFFFFFFFFFFFFFFFFFFF AND PUSH20 0xFFFFFFFFFFFFFFFFFFFFFFFFFFFFFFFFFFFFFFFF AND DUP2 MSTORE PUSH1 0x20 ADD SWAP1 DUP2 MSTORE PUSH1 0x20 ADD PUSH1 0x0 KECCAK256 DUP1 SLOAD SWAP1 POP DUP2 LT ISZERO PUSH2 0xAF2 JUMPI PUSH1 0x4 PUSH1 0x0 PUSH1 0x5 DUP5 DUP2 SLOAD DUP2 LT PUSH2 0xA33 JUMPI PUSH2 0xA32 PUSH2 0x264C JUMP JUMPDEST JUMPDEST SWAP1 PUSH1 0x0 MSTORE PUSH1 0x20 PUSH1 0x0 KECCAK256 ADD PUSH1 0x0 SWAP1 SLOAD SWAP1 PUSH2 0x100 EXP SWAP1 DIV PUSH20 0xFFFFFFFFFFFFFFFFFFFFFFFFFFFFFFFFFFFFFFFF AND PUSH20 0xFFFFFFFFFFFFFFFFFFFFFFFFFFFFFFFFFFFFFFFF AND PUSH20 0xFFFFFFFFFFFFFFFFFFFFFFFFFFFFFFFFFFFFFFFF AND DUP2 MSTORE PUSH1 0x20 ADD SWAP1 DUP2 MSTORE PUSH1 0x20 ADD PUSH1 0x0 KECCAK256 DUP2 DUP2 SLOAD DUP2 LT PUSH2 0xAAA JUMPI PUSH2 0xAA9 PUSH2 0x264C JUMP JUMPDEST JUMPDEST SWAP1 PUSH1 0x0 MSTORE PUSH1 0x20 PUSH1 0x0 KECCAK256 ADD PUSH1 0x1 DUP2 SLOAD DUP2 LT PUSH2 0xAC7 JUMPI PUSH2 0xAC6 PUSH2 0x264C JUMP JUMPDEST JUMPDEST SWAP1 PUSH1 0x0 MSTORE PUSH1 0x20 PUSH1 0x0 KECCAK256 ADD SLOAD DUP4 PUSH2 0xADD SWAP2 SWAP1 PUSH2 0x267B JUMP JUMPDEST SWAP3 POP DUP1 DUP1 PUSH2 0xAEA SWAP1 PUSH2 0x26AF JUMP JUMPDEST SWAP2 POP POP PUSH2 0x993 JUMP JUMPDEST POP DUP1 DUP1 PUSH2 0xAFE SWAP1 PUSH2 0x26AF JUMP JUMPDEST SWAP2 POP POP PUSH2 0x983 JUMP JUMPDEST POP DUP1 SWAP2 POP POP SWAP1 JUMP JUMPDEST PUSH1 0x0 PUSH1 0x1 PUSH1 0x0 SWAP1 SLOAD SWAP1 PUSH2 0x100 EXP SWAP1 DIV PUSH20 0xFFFFFFFFFFFFFFFFFFFFFFFFFFFFFFFFFFFFFFFF AND SWAP1 POP DUP1 PUSH20 0xFFFFFFFFFFFFFFFFFFFFFFFFFFFFFFFFFFFFFFFF AND PUSH4 0x5A703223 CALLER DUP5 PUSH1 0x40 MLOAD DUP4 PUSH4 0xFFFFFFFF AND PUSH1 0xE0 SHL DUP2 MSTORE PUSH1 0x4 ADD PUSH2 0xB70 SWAP3 SWAP2 SWAP1 PUSH2 0x25BE JUMP JUMPDEST PUSH1 0x0 PUSH1 0x40 MLOAD DUP1 DUP4 SUB DUP2 PUSH1 0x0 DUP8 DUP1 EXTCODESIZE ISZERO DUP1 ISZERO PUSH2 0xB8A JUMPI PUSH1 0x0 DUP1 REVERT JUMPDEST POP GAS CALL ISZERO DUP1 ISZERO PUSH2 0xB9E JUMPI RETURNDATASIZE PUSH1 0x0 DUP1 RETURNDATACOPY RETURNDATASIZE PUSH1 0x0 REVERT JUMPDEST POP POP POP POP POP POP JUMP JUMPDEST PUSH1 0x6 SLOAD DUP2 JUMP JUMPDEST PUSH1 0x2 SLOAD DUP2 JUMP JUMPDEST PUSH1 0x0 JUMPDEST PUSH1 0x5 DUP1 SLOAD SWAP1 POP DUP2 LT ISZERO PUSH2 0xBE6 JUMPI PUSH1 0x2 PUSH2 0xBCD DUP3 PUSH2 0x16CF JUMP JUMPDEST EQ PUSH2 0xBE1 JUMPI DUP1 DUP1 PUSH2 0xBDD SWAP1 PUSH2 0x26AF JUMP JUMPDEST SWAP2 POP POP JUMPDEST PUSH2 0xBB5 JUMP JUMPDEST POP JUMP JUMPDEST PUSH1 0x0 PUSH2 0xBF4 CALLER PUSH2 0x1127 JUMP JUMPDEST SWAP1 POP SWAP1 JUMP JUMPDEST PUSH1 0x0 DUP1 SLOAD SWAP1 PUSH2 0x100 EXP SWAP1 DIV PUSH20 0xFFFFFFFFFFFFFFFFFFFFFFFFFFFFFFFFFFFFFFFF AND DUP2 JUMP JUMPDEST PUSH1 0x1 PUSH1 0x0 SWAP1 SLOAD SWAP1 PUSH2 0x100 EXP SWAP1 DIV PUSH20 0xFFFFFFFFFFFFFFFFFFFFFFFFFFFFFFFFFFFFFFFF AND DUP2 JUMP JUMPDEST PUSH1 0x0 DUP2 GT PUSH2 0xC86 JUMPI PUSH1 0x40 MLOAD PUSH32 0x8C379A000000000000000000000000000000000000000000000000000000000 DUP2 MSTORE PUSH1 0x4 ADD PUSH2 0xC7D SWAP1 PUSH2 0x22C3 JUMP JUMPDEST PUSH1 0x40 MLOAD DUP1 SWAP2 SUB SWAP1 REVERT JUMPDEST SELFBALANCE DUP2 GT ISZERO PUSH2 0xCC9 JUMPI PUSH1 0x40 MLOAD PUSH32 0x8C379A000000000000000000000000000000000000000000000000000000000 DUP2 MSTORE PUSH1 0x4 ADD PUSH2 0xCC0 SWAP1 PUSH2 0x23C1 JUMP JUMPDEST PUSH1 0x40 MLOAD DUP1 SWAP2 SUB SWAP1 REVERT JUMPDEST PUSH1 0x0 PUSH1 0x1 PUSH1 0x0 SWAP1 SLOAD SWAP1 PUSH2 0x100 EXP SWAP1 DIV PUSH20 0xFFFFFFFFFFFFFFFFFFFFFFFFFFFFFFFFFFFFFFFF AND SWAP1 POP DUP1 PUSH20 0xFFFFFFFFFFFFFFFFFFFFFFFFFFFFFFFFFFFFFFFF AND PUSH4 0xE1F21C67 CALLER ADDRESS PUSH1 0x64 PUSH1 0x2 SLOAD DUP8 PUSH2 0xD1E SWAP2 SWAP1 PUSH2 0x251C JUMP JUMPDEST PUSH2 0xD28 SWAP2 SWAP1 PUSH2 0x258D JUMP JUMPDEST PUSH1 0x40 MLOAD DUP5 PUSH4 0xFFFFFFFF AND PUSH1 0xE0 SHL DUP2 MSTORE PUSH1 0x4 ADD PUSH2 0xD46 SWAP4 SWAP3 SWAP2 SWAP1 PUSH2 0x26F7 JUMP JUMPDEST PUSH1 0x20 PUSH1 0x40 MLOAD DUP1 DUP4 SUB DUP2 PUSH1 0x0 DUP8 GAS CALL ISZERO DUP1 ISZERO PUSH2 0xD65 JUMPI RETURNDATASIZE PUSH1 0x0 DUP1 RETURNDATACOPY RETURNDATASIZE PUSH1 0x0 REVERT JUMPDEST POP POP POP POP PUSH1 0x40 MLOAD RETURNDATASIZE PUSH1 0x1F NOT PUSH1 0x1F DUP3 ADD AND DUP3 ADD DUP1 PUSH1 0x40 MSTORE POP DUP2 ADD SWAP1 PUSH2 0xD89 SWAP2 SWAP1 PUSH2 0x261F JUMP JUMPDEST POP DUP1 PUSH20 0xFFFFFFFFFFFFFFFFFFFFFFFFFFFFFFFFFFFFFFFF AND PUSH4 0x23B872DD CALLER ADDRESS PUSH1 0x64 PUSH1 0x2 SLOAD DUP8 PUSH2 0xDB8 SWAP2 SWAP1 PUSH2 0x251C JUMP JUMPDEST PUSH2 0xDC2 SWAP2 SWAP1 PUSH2 0x258D JUMP JUMPDEST PUSH1 0x40 MLOAD DUP5 PUSH4 0xFFFFFFFF AND PUSH1 0xE0 SHL DUP2 MSTORE PUSH1 0x4 ADD PUSH2 0xDE0 SWAP4 SWAP3 SWAP2 SWAP1 PUSH2 0x26F7 JUMP JUMPDEST PUSH1 0x20 PUSH1 0x40 MLOAD DUP1 DUP4 SUB DUP2 PUSH1 0x0 DUP8 GAS CALL ISZERO DUP1 ISZERO PUSH2 0xDFF JUMPI RETURNDATASIZE PUSH1 0x0 DUP1 RETURNDATACOPY RETURNDATASIZE PUSH1 0x0 REVERT JUMPDEST POP POP POP POP PUSH1 0x40 MLOAD RETURNDATASIZE PUSH1 0x1F NOT PUSH1 0x1F DUP3 ADD AND DUP3 ADD DUP1 PUSH1 0x40 MSTORE POP DUP2 ADD SWAP1 PUSH2 0xE23 SWAP2 SWAP1 PUSH2 0x261F JUMP JUMPDEST POP PUSH2 0xEB4 CALLER PUSH1 0x5 DUP1 SLOAD DUP1 PUSH1 0x20 MUL PUSH1 0x20 ADD PUSH1 0x40 MLOAD SWAP1 DUP2 ADD PUSH1 0x40 MSTORE DUP1 SWAP3 SWAP2 SWAP1 DUP2 DUP2 MSTORE PUSH1 0x20 ADD DUP3 DUP1 SLOAD DUP1 ISZERO PUSH2 0xEAA JUMPI PUSH1 0x20 MUL DUP3 ADD SWAP2 SWAP1 PUSH1 0x0 MSTORE PUSH1 0x20 PUSH1 0x0 KECCAK256 SWAP1 JUMPDEST DUP2 PUSH1 0x0 SWAP1 SLOAD SWAP1 PUSH2 0x100 EXP SWAP1 DIV PUSH20 0xFFFFFFFFFFFFFFFFFFFFFFFFFFFFFFFFFFFFFFFF AND PUSH20 0xFFFFFFFFFFFFFFFFFFFFFFFFFFFFFFFFFFFFFFFF AND DUP2 MSTORE PUSH1 0x20 ADD SWAP1 PUSH1 0x1 ADD SWAP1 DUP1 DUP4 GT PUSH2 0xE60 JUMPI JUMPDEST POP POP POP POP POP PUSH2 0x12EC JUMP JUMPDEST PUSH2 0xF1C JUMPI PUSH1 0x5 CALLER SWAP1 DUP1 PUSH1 0x1 DUP2 SLOAD ADD DUP1 DUP3 SSTORE DUP1 SWAP2 POP POP PUSH1 0x1 SWAP1 SUB SWAP1 PUSH1 0x0 MSTORE PUSH1 0x20 PUSH1 0x0 KECCAK256 ADD PUSH1 0x0 SWAP1 SWAP2 SWAP1 SWAP2 SWAP1 SWAP2 PUSH2 0x100 EXP DUP2 SLOAD DUP2 PUSH20 0xFFFFFFFFFFFFFFFFFFFFFFFFFFFFFFFFFFFFFFFF MUL NOT AND SWAP1 DUP4 PUSH20 0xFFFFFFFFFFFFFFFFFFFFFFFFFFFFFFFFFFFFFFFF AND MUL OR SWAP1 SSTORE POP JUMPDEST PUSH1 0x40 MLOAD DUP1 PUSH1 0x40 ADD PUSH1 0x40 MSTORE DUP1 PUSH1 0x6 SLOAD TIMESTAMP PUSH2 0xF35 SWAP2 SWAP1 PUSH2 0x267B JUMP JUMPDEST DUP2 MSTORE PUSH1 0x20 ADD DUP4 DUP2 MSTORE POP PUSH1 0x4 PUSH1 0x0 CALLER PUSH20 0xFFFFFFFFFFFFFFFFFFFFFFFFFFFFFFFFFFFFFFFF AND PUSH20 0xFFFFFFFFFFFFFFFFFFFFFFFFFFFFFFFFFFFFFFFF AND DUP2 MSTORE PUSH1 0x20 ADD SWAP1 DUP2 MSTORE PUSH1 0x20 ADD PUSH1 0x0 KECCAK256 PUSH1 0x1 DUP2 PUSH1 0x1 DUP2 SLOAD ADD DUP1 DUP3 SSTORE DUP1 SWAP2 POP POP SUB SWAP1 PUSH1 0x0 MSTORE PUSH1 0x20 PUSH1 0x0 KECCAK256 ADD SWAP1 PUSH1 0x2 PUSH2 0xFA5 SWAP3 SWAP2 SWAP1 PUSH2 0x1F46 JUMP JUMPDEST POP CALLER PUSH20 0xFFFFFFFFFFFFFFFFFFFFFFFFFFFFFFFFFFFFFFFF AND PUSH2 0x8FC DUP4 SWAP1 DUP2 ISZERO MUL SWAP1 PUSH1 0x40 MLOAD PUSH1 0x0 PUSH1 0x40 MLOAD DUP1 DUP4 SUB DUP2 DUP6 DUP9 DUP9 CALL SWAP4 POP POP POP POP ISZERO DUP1 ISZERO PUSH2 0xFEC JUMPI RETURNDATASIZE PUSH1 0x0 DUP1 RETURNDATACOPY RETURNDATASIZE PUSH1 0x0 REVERT JUMPDEST POP POP POP JUMP JUMPDEST DUP1 PUSH1 0x2 DUP2 SWAP1 SSTORE POP POP JUMP JUMPDEST PUSH1 0x0 CALLVALUE GT PUSH2 0x103E JUMPI PUSH1 0x40 MLOAD PUSH32 0x8C379A000000000000000000000000000000000000000000000000000000000 DUP2 MSTORE PUSH1 0x4 ADD PUSH2 0x1035 SWAP1 PUSH2 0x22C3 JUMP JUMPDEST PUSH1 0x40 MLOAD DUP1 SWAP2 SUB SWAP1 REVERT JUMPDEST CALLVALUE PUSH1 0x3 PUSH1 0x0 CALLER PUSH20 0xFFFFFFFFFFFFFFFFFFFFFFFFFFFFFFFFFFFFFFFF AND PUSH20 0xFFFFFFFFFFFFFFFFFFFFFFFFFFFFFFFFFFFFFFFF AND DUP2 MSTORE PUSH1 0x20 ADD SWAP1 DUP2 MSTORE PUSH1 0x20 ADD PUSH1 0x0 KECCAK256 PUSH1 0x0 DUP3 DUP3 SLOAD PUSH2 0x108D SWAP2 SWAP1 PUSH2 0x267B JUMP JUMPDEST SWAP3 POP POP DUP2 SWAP1 SSTORE POP JUMP JUMPDEST PUSH1 0x0 PUSH1 0x3 PUSH1 0x0 CALLER PUSH20 0xFFFFFFFFFFFFFFFFFFFFFFFFFFFFFFFFFFFFFFFF AND PUSH20 0xFFFFFFFFFFFFFFFFFFFFFFFFFFFFFFFFFFFFFFFF AND DUP2 MSTORE PUSH1 0x20 ADD SWAP1 DUP2 MSTORE PUSH1 0x20 ADD PUSH1 0x0 KECCAK256 SLOAD SWAP1 POP SWAP1 JUMP JUMPDEST PUSH1 0x4 PUSH1 0x20 MSTORE DUP3 PUSH1 0x0 MSTORE PUSH1 0x40 PUSH1 0x0 KECCAK256 DUP3 DUP2 SLOAD DUP2 LT PUSH2 0x10F9 JUMPI PUSH1 0x0 DUP1 REVERT JUMPDEST SWAP1 PUSH1 0x0 MSTORE PUSH1 0x20 PUSH1 0x0 KECCAK256 ADD DUP2 DUP2 SLOAD DUP2 LT PUSH2 0x1111 JUMPI PUSH1 0x0 DUP1 REVERT JUMPDEST SWAP1 PUSH1 0x0 MSTORE PUSH1 0x20 PUSH1 0x0 KECCAK256 ADD PUSH1 0x0 SWAP3 POP SWAP3 POP POP POP SLOAD DUP2 JUMP JUMPDEST PUSH1 0x0 DUP1 PUSH1 0x0 JUMPDEST PUSH1 0x4 PUSH1 0x0 DUP6 PUSH20 0xFFFFFFFFFFFFFFFFFFFFFFFFFFFFFFFFFFFFFFFF AND PUSH20 0xFFFFFFFFFFFFFFFFFFFFFFFFFFFFFFFFFFFFFFFF AND DUP2 MSTORE PUSH1 0x20 ADD SWAP1 DUP2 MSTORE PUSH1 0x20 ADD PUSH1 0x0 KECCAK256 DUP1 SLOAD SWAP1 POP DUP2 LT ISZERO PUSH2 0x1210 JUMPI PUSH1 0x4 PUSH1 0x0 DUP6 PUSH20 0xFFFFFFFFFFFFFFFFFFFFFFFFFFFFFFFFFFFFFFFF AND PUSH20 0xFFFFFFFFFFFFFFFFFFFFFFFFFFFFFFFFFFFFFFFF AND DUP2 MSTORE PUSH1 0x20 ADD SWAP1 DUP2 MSTORE PUSH1 0x20 ADD PUSH1 0x0 KECCAK256 DUP2 DUP2 SLOAD DUP2 LT PUSH2 0x11C8 JUMPI PUSH2 0x11C7 PUSH2 0x264C JUMP JUMPDEST JUMPDEST SWAP1 PUSH1 0x0 MSTORE PUSH1 0x20 PUSH1 0x0 KECCAK256 ADD PUSH1 0x1 DUP2 SLOAD DUP2 LT PUSH2 0x11E5 JUMPI PUSH2 0x11E4 PUSH2 0x264C JUMP JUMPDEST JUMPDEST SWAP1 PUSH1 0x0 MSTORE PUSH1 0x20 PUSH1 0x0 KECCAK256 ADD SLOAD DUP3 PUSH2 0x11FB SWAP2 SWAP1 PUSH2 0x267B JUMP JUMPDEST SWAP2 POP DUP1 DUP1 PUSH2 0x1208 SWAP1 PUSH2 0x26AF JUMP JUMPDEST SWAP2 POP POP PUSH2 0x112D JUMP JUMPDEST POP DUP1 SWAP2 POP POP SWAP2 SWAP1 POP JUMP JUMPDEST PUSH1 0x0 DUP1 SLOAD SWAP1 PUSH2 0x100 EXP SWAP1 DIV PUSH20 0xFFFFFFFFFFFFFFFFFFFFFFFFFFFFFFFFFFFFFFFF AND PUSH20 0xFFFFFFFFFFFFFFFFFFFFFFFFFFFFFFFFFFFFFFFF AND CALLER PUSH20 0xFFFFFFFFFFFFFFFFFFFFFFFFFFFFFFFFFFFFFFFF AND EQ PUSH2 0x12A8 JUMPI PUSH1 0x40 MLOAD PUSH32 0x8C379A000000000000000000000000000000000000000000000000000000000 DUP2 MSTORE PUSH1 0x4 ADD PUSH2 0x129F SWAP1 PUSH2 0x277A JUMP JUMPDEST PUSH1 0x40 MLOAD DUP1 SWAP2 SUB SWAP1 REVERT JUMPDEST DUP1 PUSH1 0x1 PUSH1 0x0 PUSH2 0x100 EXP DUP2 SLOAD DUP2 PUSH20 0xFFFFFFFFFFFFFFFFFFFFFFFFFFFFFFFFFFFFFFFF MUL NOT AND SWAP1 DUP4 PUSH20 0xFFFFFFFFFFFFFFFFFFFFFFFFFFFFFFFFFFFFFFFF AND MUL OR SWAP1 SSTORE POP POP JUMP JUMPDEST PUSH1 0x0 DUP1 JUMPDEST DUP3 MLOAD DUP2 LT ISZERO PUSH2 0x1363 JUMPI DUP3 DUP2 DUP2 MLOAD DUP2 LT PUSH2 0x130C JUMPI PUSH2 0x130B PUSH2 0x264C JUMP JUMPDEST JUMPDEST PUSH1 0x20 MUL PUSH1 0x20 ADD ADD MLOAD PUSH20 0xFFFFFFFFFFFFFFFFFFFFFFFFFFFFFFFFFFFFFFFF AND DUP5 PUSH20 0xFFFFFFFFFFFFFFFFFFFFFFFFFFFFFFFFFFFFFFFF AND SUB PUSH2 0x1350 JUMPI PUSH1 0x1 SWAP2 POP POP PUSH2 0x1369 JUMP JUMPDEST DUP1 DUP1 PUSH2 0x135B SWAP1 PUSH2 0x26AF JUMP JUMPDEST SWAP2 POP POP PUSH2 0x12F0 JUMP JUMPDEST POP PUSH1 0x0 SWAP1 POP JUMPDEST SWAP3 SWAP2 POP POP JUMP JUMPDEST PUSH1 0x0 JUMPDEST PUSH1 0x5 DUP1 SLOAD SWAP1 POP DUP2 LT ISZERO PUSH2 0x1412 JUMPI DUP2 PUSH20 0xFFFFFFFFFFFFFFFFFFFFFFFFFFFFFFFFFFFFFFFF AND PUSH1 0x5 DUP3 DUP2 SLOAD DUP2 LT PUSH2 0x13AA JUMPI PUSH2 0x13A9 PUSH2 0x264C JUMP JUMPDEST JUMPDEST SWAP1 PUSH1 0x0 MSTORE PUSH1 0x20 PUSH1 0x0 KECCAK256 ADD PUSH1 0x0 SWAP1 SLOAD SWAP1 PUSH2 0x100 EXP SWAP1 DIV PUSH20 0xFFFFFFFFFFFFFFFFFFFFFFFFFFFFFFFFFFFFFFFF AND PUSH20 0xFFFFFFFFFFFFFFFFFFFFFFFFFFFFFFFFFFFFFFFF AND SUB PUSH2 0x13FF JUMPI PUSH2 0x13F9 DUP2 PUSH2 0x16CF JUMP JUMPDEST POP PUSH2 0x1412 JUMP JUMPDEST DUP1 DUP1 PUSH2 0x140A SWAP1 PUSH2 0x26AF JUMP JUMPDEST SWAP2 POP POP PUSH2 0x1372 JUMP JUMPDEST POP POP JUMP JUMPDEST PUSH1 0x0 PUSH2 0x1422 DUP4 DUP4 PUSH2 0x1E56 JUMP JUMPDEST SWAP1 POP PUSH1 0x0 JUMPDEST DUP2 PUSH1 0x1 PUSH1 0x2 DUP2 LT PUSH2 0x143B JUMPI PUSH2 0x143A PUSH2 0x264C JUMP JUMPDEST JUMPDEST PUSH1 0x20 MUL ADD MLOAD PUSH1 0x4 PUSH1 0x0 DUP7 PUSH20 0xFFFFFFFFFFFFFFFFFFFFFFFFFFFFFFFFFFFFFFFF AND PUSH20 0xFFFFFFFFFFFFFFFFFFFFFFFFFFFFFFFFFFFFFFFF AND DUP2 MSTORE PUSH1 0x20 ADD SWAP1 DUP2 MSTORE PUSH1 0x20 ADD PUSH1 0x0 KECCAK256 DUP1 SLOAD SWAP1 POP PUSH2 0x148D SWAP2 SWAP1 PUSH2 0x2410 JUMP JUMPDEST DUP2 LT ISZERO PUSH2 0x158F JUMPI PUSH1 0x4 PUSH1 0x0 DUP6 PUSH20 0xFFFFFFFFFFFFFFFFFFFFFFFFFFFFFFFFFFFFFFFF AND PUSH20 0xFFFFFFFFFFFFFFFFFFFFFFFFFFFFFFFFFFFFFFFF AND DUP2 MSTORE PUSH1 0x20 ADD SWAP1 DUP2 MSTORE PUSH1 0x20 ADD PUSH1 0x0 KECCAK256 DUP3 PUSH1 0x1 PUSH1 0x2 DUP2 LT PUSH2 0x14E7 JUMPI PUSH2 0x14E6 PUSH2 0x264C JUMP JUMPDEST JUMPDEST PUSH1 0x20 MUL ADD MLOAD DUP3 PUSH2 0x14F7 SWAP2 SWAP1 PUSH2 0x267B JUMP JUMPDEST DUP2 SLOAD DUP2 LT PUSH2 0x1508 JUMPI PUSH2 0x1507 PUSH2 0x264C JUMP JUMPDEST JUMPDEST SWAP1 PUSH1 0x0 MSTORE PUSH1 0x20 PUSH1 0x0 KECCAK256 ADD PUSH1 0x4 PUSH1 0x0 DUP7 PUSH20 0xFFFFFFFFFFFFFFFFFFFFFFFFFFFFFFFFFFFFFFFF AND PUSH20 0xFFFFFFFFFFFFFFFFFFFFFFFFFFFFFFFFFFFFFFFF AND DUP2 MSTORE PUSH1 0x20 ADD SWAP1 DUP2 MSTORE PUSH1 0x20 ADD PUSH1 0x0 KECCAK256 DUP3 DUP2 SLOAD DUP2 LT PUSH2 0x1563 JUMPI PUSH2 0x1562 PUSH2 0x264C JUMP JUMPDEST JUMPDEST SWAP1 PUSH1 0x0 MSTORE PUSH1 0x20 PUSH1 0x0 KECCAK256 ADD SWAP1 DUP1 SLOAD PUSH2 0x157B SWAP3 SWAP2 SWAP1 PUSH2 0x1F93 JUMP JUMPDEST POP DUP1 DUP1 PUSH2 0x1587 SWAP1 PUSH2 0x26AF JUMP JUMPDEST SWAP2 POP POP PUSH2 0x1427 JUMP JUMPDEST POP PUSH1 0x0 JUMPDEST DUP2 PUSH1 0x1 PUSH1 0x2 DUP2 LT PUSH2 0x15A7 JUMPI PUSH2 0x15A6 PUSH2 0x264C JUMP JUMPDEST JUMPDEST PUSH1 0x20 MUL ADD MLOAD DUP2 LT ISZERO PUSH2 0x1633 JUMPI PUSH1 0x4 PUSH1 0x0 DUP6 PUSH20 0xFFFFFFFFFFFFFFFFFFFFFFFFFFFFFFFFFFFFFFFF AND PUSH20 0xFFFFFFFFFFFFFFFFFFFFFFFFFFFFFFFFFFFFFFFF AND DUP2 MSTORE PUSH1 0x20 ADD SWAP1 DUP2 MSTORE PUSH1 0x20 ADD PUSH1 0x0 KECCAK256 DUP1 SLOAD DUP1 PUSH2 0x1602 JUMPI PUSH2 0x1601 PUSH2 0x279A JUMP JUMPDEST JUMPDEST PUSH1 0x1 SWAP1 SUB DUP2 DUP2 SWAP1 PUSH1 0x0 MSTORE PUSH1 0x20 PUSH1 0x0 KECCAK256 ADD PUSH1 0x0 PUSH2 0x161E SWAP2 SWAP1 PUSH2 0x1FE5 JUMP JUMPDEST SWAP1 SSTORE DUP1 DUP1 PUSH2 0x162B SWAP1 PUSH2 0x26AF JUMP JUMPDEST SWAP2 POP POP PUSH2 0x1593 JUMP JUMPDEST POP DUP1 PUSH1 0x0 PUSH1 0x2 DUP2 LT PUSH2 0x1648 JUMPI PUSH2 0x1647 PUSH2 0x264C JUMP JUMPDEST JUMPDEST PUSH1 0x20 MUL ADD MLOAD PUSH1 0x4 PUSH1 0x0 DUP6 PUSH20 0xFFFFFFFFFFFFFFFFFFFFFFFFFFFFFFFFFFFFFFFF AND PUSH20 0xFFFFFFFFFFFFFFFFFFFFFFFFFFFFFFFFFFFFFFFF AND DUP2 MSTORE PUSH1 0x20 ADD SWAP1 DUP2 MSTORE PUSH1 0x20 ADD PUSH1 0x0 KECCAK256 PUSH1 0x0 DUP2 SLOAD DUP2 LT PUSH2 0x169F JUMPI PUSH2 0x169E PUSH2 0x264C JUMP JUMPDEST JUMPDEST SWAP1 PUSH1 0x0 MSTORE PUSH1 0x20 PUSH1 0x0 KECCAK256 ADD PUSH1 0x1 DUP2 SLOAD DUP2 LT PUSH2 0x16BC JUMPI PUSH2 0x16BB PUSH2 0x264C JUMP JUMPDEST JUMPDEST SWAP1 PUSH1 0x0 MSTORE PUSH1 0x20 PUSH1 0x0 KECCAK256 ADD DUP2 SWAP1 SSTORE POP POP POP POP JUMP JUMPDEST PUSH1 0x0 DUP1 JUMPDEST PUSH1 0x4 PUSH1 0x0 PUSH1 0x5 DUP6 DUP2 SLOAD DUP2 LT PUSH2 0x16EB JUMPI PUSH2 0x16EA PUSH2 0x264C JUMP JUMPDEST JUMPDEST SWAP1 PUSH1 0x0 MSTORE PUSH1 0x20 PUSH1 0x0 KECCAK256 ADD PUSH1 0x0 SWAP1 SLOAD SWAP1 PUSH2 0x100 EXP SWAP1 DIV PUSH20 0xFFFFFFFFFFFFFFFFFFFFFFFFFFFFFFFFFFFFFFFF AND PUSH20 0xFFFFFFFFFFFFFFFFFFFFFFFFFFFFFFFFFFFFFFFF AND PUSH20 0xFFFFFFFFFFFFFFFFFFFFFFFFFFFFFFFFFFFFFFFF AND DUP2 MSTORE PUSH1 0x20 ADD SWAP1 DUP2 MSTORE PUSH1 0x20 ADD PUSH1 0x0 KECCAK256 DUP1 SLOAD SWAP1 POP DUP2 LT ISZERO PUSH2 0x1E4F JUMPI TIMESTAMP PUSH1 0x4 PUSH1 0x0 PUSH1 0x5 DUP7 DUP2 SLOAD DUP2 LT PUSH2 0x1774 JUMPI PUSH2 0x1773 PUSH2 0x264C JUMP JUMPDEST JUMPDEST SWAP1 PUSH1 0x0 MSTORE PUSH1 0x20 PUSH1 0x0 KECCAK256 ADD PUSH1 0x0 SWAP1 SLOAD SWAP1 PUSH2 0x100 EXP SWAP1 DIV PUSH20 0xFFFFFFFFFFFFFFFFFFFFFFFFFFFFFFFFFFFFFFFF AND PUSH20 0xFFFFFFFFFFFFFFFFFFFFFFFFFFFFFFFFFFFFFFFF AND PUSH20 0xFFFFFFFFFFFFFFFFFFFFFFFFFFFFFFFFFFFFFFFF AND DUP2 MSTORE PUSH1 0x20 ADD SWAP1 DUP2 MSTORE PUSH1 0x20 ADD PUSH1 0x0 KECCAK256 DUP3 DUP2 SLOAD DUP2 LT PUSH2 0x17EB JUMPI PUSH2 0x17EA PUSH2 0x264C JUMP JUMPDEST JUMPDEST SWAP1 PUSH1 0x0 MSTORE PUSH1 0x20 PUSH1 0x0 KECCAK256 ADD PUSH1 0x0 DUP2 SLOAD DUP2 LT PUSH2 0x1808 JUMPI PUSH2 0x1807 PUSH2 0x264C JUMP JUMPDEST JUMPDEST SWAP1 PUSH1 0x0 MSTORE PUSH1 0x20 PUSH1 0x0 KECCAK256 ADD SLOAD LT PUSH2 0x1B02 JUMPI PUSH1 0x0 DUP2 EQ PUSH2 0x1AF8 JUMPI DUP1 DUP1 PUSH2 0x182B SWAP1 PUSH2 0x27C9 JUMP JUMPDEST SWAP2 POP POP PUSH1 0x0 JUMPDEST DUP2 PUSH1 0x4 PUSH1 0x0 PUSH1 0x5 DUP8 DUP2 SLOAD DUP2 LT PUSH2 0x184A JUMPI PUSH2 0x1849 PUSH2 0x264C JUMP JUMPDEST JUMPDEST SWAP1 PUSH1 0x0 MSTORE PUSH1 0x20 PUSH1 0x0 KECCAK256 ADD PUSH1 0x0 SWAP1 SLOAD SWAP1 PUSH2 0x100 EXP SWAP1 DIV PUSH20 0xFFFFFFFFFFFFFFFFFFFFFFFFFFFFFFFFFFFFFFFF AND PUSH20 0xFFFFFFFFFFFFFFFFFFFFFFFFFFFFFFFFFFFFFFFF AND PUSH20 0xFFFFFFFFFFFFFFFFFFFFFFFFFFFFFFFFFFFFFFFF AND DUP2 MSTORE PUSH1 0x20 ADD SWAP1 DUP2 MSTORE PUSH1 0x20 ADD PUSH1 0x0 KECCAK256 DUP1 SLOAD SWAP1 POP PUSH2 0x18BD SWAP2 SWAP1 PUSH2 0x2410 JUMP JUMPDEST DUP2 LT ISZERO PUSH2 0x1A23 JUMPI PUSH1 0x4 PUSH1 0x0 PUSH1 0x5 DUP7 DUP2 SLOAD DUP2 LT PUSH2 0x18DC JUMPI PUSH2 0x18DB PUSH2 0x264C JUMP JUMPDEST JUMPDEST SWAP1 PUSH1 0x0 MSTORE PUSH1 0x20 PUSH1 0x0 KECCAK256 ADD PUSH1 0x0 SWAP1 SLOAD SWAP1 PUSH2 0x100 EXP SWAP1 DIV PUSH20 0xFFFFFFFFFFFFFFFFFFFFFFFFFFFFFFFFFFFFFFFF AND PUSH20 0xFFFFFFFFFFFFFFFFFFFFFFFFFFFFFFFFFFFFFFFF AND PUSH20 0xFFFFFFFFFFFFFFFFFFFFFFFFFFFFFFFFFFFFFFFF AND DUP2 MSTORE PUSH1 0x20 ADD SWAP1 DUP2 MSTORE PUSH1 0x20 ADD PUSH1 0x0 KECCAK256 DUP3 DUP3 PUSH2 0x194D SWAP2 SWAP1 PUSH2 0x267B JUMP JUMPDEST DUP2 SLOAD DUP2 LT PUSH2 0x195E JUMPI PUSH2 0x195D PUSH2 0x264C JUMP JUMPDEST JUMPDEST SWAP1 PUSH1 0x0 MSTORE PUSH1 0x20 PUSH1 0x0 KECCAK256 ADD PUSH1 0x4 PUSH1 0x0 PUSH1 0x5 DUP8 DUP2 SLOAD DUP2 LT PUSH2 0x1980 JUMPI PUSH2 0x197F PUSH2 0x264C JUMP JUMPDEST JUMPDEST SWAP1 PUSH1 0x0 MSTORE PUSH1 0x20 PUSH1 0x0 KECCAK256 ADD PUSH1 0x0 SWAP1 SLOAD SWAP1 PUSH2 0x100 EXP SWAP1 DIV PUSH20 0xFFFFFFFFFFFFFFFFFFFFFFFFFFFFFFFFFFFFFFFF AND PUSH20 0xFFFFFFFFFFFFFFFFFFFFFFFFFFFFFFFFFFFFFFFF AND PUSH20 0xFFFFFFFFFFFFFFFFFFFFFFFFFFFFFFFFFFFFFFFF AND DUP2 MSTORE PUSH1 0x20 ADD SWAP1 DUP2 MSTORE PUSH1 0x20 ADD PUSH1 0x0 KECCAK256 DUP3 DUP2 SLOAD DUP2 LT PUSH2 0x19F7 JUMPI PUSH2 0x19F6 PUSH2 0x264C JUMP JUMPDEST JUMPDEST SWAP1 PUSH1 0x0 MSTORE PUSH1 0x20 PUSH1 0x0 KECCAK256 ADD SWAP1 DUP1 SLOAD PUSH2 0x1A0F SWAP3 SWAP2 SWAP1 PUSH2 0x1F93 JUMP JUMPDEST POP DUP1 DUP1 PUSH2 0x1A1B SWAP1 PUSH2 0x26AF JUMP JUMPDEST SWAP2 POP POP PUSH2 0x1831 JUMP JUMPDEST POP PUSH1 0x0 JUMPDEST DUP2 DUP2 LT ISZERO PUSH2 0x1AED JUMPI PUSH1 0x4 PUSH1 0x0 PUSH1 0x5 DUP7 DUP2 SLOAD DUP2 LT PUSH2 0x1A47 JUMPI PUSH2 0x1A46 PUSH2 0x264C JUMP JUMPDEST JUMPDEST SWAP1 PUSH1 0x0 MSTORE PUSH1 0x20 PUSH1 0x0 KECCAK256 ADD PUSH1 0x0 SWAP1 SLOAD SWAP1 PUSH2 0x100 EXP SWAP1 DIV PUSH20 0xFFFFFFFFFFFFFFFFFFFFFFFFFFFFFFFFFFFFFFFF AND PUSH20 0xFFFFFFFFFFFFFFFFFFFFFFFFFFFFFFFFFFFFFFFF AND PUSH20 0xFFFFFFFFFFFFFFFFFFFFFFFFFFFFFFFFFFFFFFFF AND DUP2 MSTORE PUSH1 0x20 ADD SWAP1 DUP2 MSTORE PUSH1 0x20 ADD PUSH1 0x0 KECCAK256 DUP1 SLOAD DUP1 PUSH2 0x1ABC JUMPI PUSH2 0x1ABB PUSH2 0x279A JUMP JUMPDEST JUMPDEST PUSH1 0x1 SWAP1 SUB DUP2 DUP2 SWAP1 PUSH1 0x0 MSTORE PUSH1 0x20 PUSH1 0x0 KECCAK256 ADD PUSH1 0x0 PUSH2 0x1AD8 SWAP2 SWAP1 PUSH2 0x1FE5 JUMP JUMPDEST SWAP1 SSTORE DUP1 DUP1 PUSH2 0x1AE5 SWAP1 PUSH2 0x26AF JUMP JUMPDEST SWAP2 POP POP PUSH2 0x1A27 JUMP JUMPDEST POP PUSH1 0x1 SWAP2 POP POP PUSH2 0x1E51 JUMP JUMPDEST PUSH1 0x0 SWAP2 POP POP PUSH2 0x1E51 JUMP JUMPDEST PUSH1 0x1 PUSH1 0x4 PUSH1 0x0 PUSH1 0x5 DUP7 DUP2 SLOAD DUP2 LT PUSH2 0x1B1C JUMPI PUSH2 0x1B1B PUSH2 0x264C JUMP JUMPDEST JUMPDEST SWAP1 PUSH1 0x0 MSTORE PUSH1 0x20 PUSH1 0x0 KECCAK256 ADD PUSH1 0x0 SWAP1 SLOAD SWAP1 PUSH2 0x100 EXP SWAP1 DIV PUSH20 0xFFFFFFFFFFFFFFFFFFFFFFFFFFFFFFFFFFFFFFFF AND PUSH20 0xFFFFFFFFFFFFFFFFFFFFFFFFFFFFFFFFFFFFFFFF AND PUSH20 0xFFFFFFFFFFFFFFFFFFFFFFFFFFFFFFFFFFFFFFFF AND DUP2 MSTORE PUSH1 0x20 ADD SWAP1 DUP2 MSTORE PUSH1 0x20 ADD PUSH1 0x0 KECCAK256 DUP1 SLOAD SWAP1 POP PUSH2 0x1B8F SWAP2 SWAP1 PUSH2 0x2410 JUMP JUMPDEST DUP2 EQ DUP1 PUSH2 0x1C28 JUMPI POP PUSH1 0x0 DUP2 EQ DUP1 ISZERO PUSH2 0x1C27 JUMPI POP PUSH1 0x1 PUSH1 0x4 PUSH1 0x0 PUSH1 0x5 DUP7 DUP2 SLOAD DUP2 LT PUSH2 0x1BBC JUMPI PUSH2 0x1BBB PUSH2 0x264C JUMP JUMPDEST JUMPDEST SWAP1 PUSH1 0x0 MSTORE PUSH1 0x20 PUSH1 0x0 KECCAK256 ADD PUSH1 0x0 SWAP1 SLOAD SWAP1 PUSH2 0x100 EXP SWAP1 DIV PUSH20 0xFFFFFFFFFFFFFFFFFFFFFFFFFFFFFFFFFFFFFFFF AND PUSH20 0xFFFFFFFFFFFFFFFFFFFFFFFFFFFFFFFFFFFFFFFF AND PUSH20 0xFFFFFFFFFFFFFFFFFFFFFFFFFFFFFFFFFFFFFFFF AND DUP2 MSTORE PUSH1 0x20 ADD SWAP1 DUP2 MSTORE PUSH1 0x20 ADD PUSH1 0x0 KECCAK256 DUP1 SLOAD SWAP1 POP EQ JUMPDEST JUMPDEST ISZERO PUSH2 0x1E3C JUMPI PUSH1 0x1 PUSH1 0x4 PUSH1 0x0 PUSH1 0x5 DUP7 DUP2 SLOAD DUP2 LT PUSH2 0x1C47 JUMPI PUSH2 0x1C46 PUSH2 0x264C JUMP JUMPDEST JUMPDEST SWAP1 PUSH1 0x0 MSTORE PUSH1 0x20 PUSH1 0x0 KECCAK256 ADD PUSH1 0x0 SWAP1 SLOAD SWAP1 PUSH2 0x100 EXP SWAP1 DIV PUSH20 0xFFFFFFFFFFFFFFFFFFFFFFFFFFFFFFFFFFFFFFFF AND PUSH20 0xFFFFFFFFFFFFFFFFFFFFFFFFFFFFFFFFFFFFFFFF AND PUSH20 0xFFFFFFFFFFFFFFFFFFFFFFFFFFFFFFFFFFFFFFFF AND DUP2 MSTORE PUSH1 0x20 ADD SWAP1 DUP2 MSTORE PUSH1 0x20 ADD PUSH1 0x0 KECCAK256 DUP1 SLOAD SWAP1 POP EQ PUSH2 0x1D62 JUMPI PUSH1 0x5 PUSH1 0x1 PUSH1 0x5 DUP1 SLOAD SWAP1 POP PUSH2 0x1CC9 SWAP2 SWAP1 PUSH2 0x2410 JUMP JUMPDEST DUP2 SLOAD DUP2 LT PUSH2 0x1CDA JUMPI PUSH2 0x1CD9 PUSH2 0x264C JUMP JUMPDEST JUMPDEST SWAP1 PUSH1 0x0 MSTORE PUSH1 0x20 PUSH1 0x0 KECCAK256 ADD PUSH1 0x0 SWAP1 SLOAD SWAP1 PUSH2 0x100 EXP SWAP1 DIV PUSH20 0xFFFFFFFFFFFFFFFFFFFFFFFFFFFFFFFFFFFFFFFF AND PUSH1 0x5 DUP5 DUP2 SLOAD DUP2 LT PUSH2 0x1D19 JUMPI PUSH2 0x1D18 PUSH2 0x264C JUMP JUMPDEST JUMPDEST SWAP1 PUSH1 0x0 MSTORE PUSH1 0x20 PUSH1 0x0 KECCAK256 ADD PUSH1 0x0 PUSH2 0x100 EXP DUP2 SLOAD DUP2 PUSH20 0xFFFFFFFFFFFFFFFFFFFFFFFFFFFFFFFFFFFFFFFF MUL NOT AND SWAP1 DUP4 PUSH20 0xFFFFFFFFFFFFFFFFFFFFFFFFFFFFFFFFFFFFFFFF AND MUL OR SWAP1 SSTORE POP JUMPDEST PUSH1 0x4 PUSH1 0x0 PUSH1 0x5 DUP6 DUP2 SLOAD DUP2 LT PUSH2 0x1D7A JUMPI PUSH2 0x1D79 PUSH2 0x264C JUMP JUMPDEST JUMPDEST SWAP1 PUSH1 0x0 MSTORE PUSH1 0x20 PUSH1 0x0 KECCAK256 ADD PUSH1 0x0 SWAP1 SLOAD SWAP1 PUSH2 0x100 EXP SWAP1 DIV PUSH20 0xFFFFFFFFFFFFFFFFFFFFFFFFFFFFFFFFFFFFFFFF AND PUSH20 0xFFFFFFFFFFFFFFFFFFFFFFFFFFFFFFFFFFFFFFFF AND PUSH20 0xFFFFFFFFFFFFFFFFFFFFFFFFFFFFFFFFFFFFFFFF AND DUP2 MSTORE PUSH1 0x20 ADD SWAP1 DUP2 MSTORE PUSH1 0x20 ADD PUSH1 0x0 KECCAK256 PUSH1 0x0 PUSH2 0x1DEB SWAP2 SWAP1 PUSH2 0x2006 JUMP JUMPDEST PUSH1 0x5 DUP1 SLOAD DUP1 PUSH2 0x1DFD JUMPI PUSH2 0x1DFC PUSH2 0x279A JUMP JUMPDEST JUMPDEST PUSH1 0x1 SWAP1 SUB DUP2 DUP2 SWAP1 PUSH1 0x0 MSTORE PUSH1 0x20 PUSH1 0x0 KECCAK256 ADD PUSH1 0x0 PUSH2 0x100 EXP DUP2 SLOAD SWAP1 PUSH20 0xFFFFFFFFFFFFFFFFFFFFFFFFFFFFFFFFFFFFFFFF MUL NOT AND SWAP1 SSTORE SWAP1 SSTORE PUSH1 0x2 SWAP2 POP POP PUSH2 0x1E51 JUMP JUMPDEST DUP1 DUP1 PUSH2 0x1E47 SWAP1 PUSH2 0x26AF JUMP JUMPDEST SWAP2 POP POP PUSH2 0x16D3 JUMP JUMPDEST POP JUMPDEST SWAP2 SWAP1 POP JUMP JUMPDEST PUSH2 0x1E5E PUSH2 0x2027 JUMP JUMPDEST PUSH1 0x0 DUP1 JUMPDEST PUSH1 0x0 DUP5 SGT ISZERO PUSH2 0x1F12 JUMPI DUP2 DUP1 PUSH2 0x1E76 SWAP1 PUSH2 0x27FC JUMP JUMPDEST SWAP3 POP POP PUSH1 0x4 PUSH1 0x0 DUP7 PUSH20 0xFFFFFFFFFFFFFFFFFFFFFFFFFFFFFFFFFFFFFFFF AND PUSH20 0xFFFFFFFFFFFFFFFFFFFFFFFFFFFFFFFFFFFFFFFF AND DUP2 MSTORE PUSH1 0x20 ADD SWAP1 DUP2 MSTORE PUSH1 0x20 ADD PUSH1 0x0 KECCAK256 DUP2 DUP2 SLOAD DUP2 LT PUSH2 0x1ECA JUMPI PUSH2 0x1EC9 PUSH2 0x264C JUMP JUMPDEST JUMPDEST SWAP1 PUSH1 0x0 MSTORE PUSH1 0x20 PUSH1 0x0 KECCAK256 ADD PUSH1 0x1 DUP2 SLOAD DUP2 LT PUSH2 0x1EE7 JUMPI PUSH2 0x1EE6 PUSH2 0x264C JUMP JUMPDEST JUMPDEST SWAP1 PUSH1 0x0 MSTORE PUSH1 0x20 PUSH1 0x0 KECCAK256 ADD SLOAD DUP5 PUSH2 0x1EFD SWAP2 SWAP1 PUSH2 0x2844 JUMP JUMPDEST SWAP4 POP DUP1 DUP1 PUSH2 0x1F0A SWAP1 PUSH2 0x26AF JUMP JUMPDEST SWAP2 POP POP PUSH2 0x1E62 JUMP JUMPDEST POP PUSH1 0x40 MLOAD DUP1 PUSH1 0x40 ADD PUSH1 0x40 MSTORE DUP1 DUP5 PUSH2 0x1F28 SWAP1 PUSH2 0x2887 JUMP JUMPDEST DUP2 MSTORE PUSH1 0x20 ADD PUSH1 0x1 DUP4 PUSH2 0x1F3A SWAP2 SWAP1 PUSH2 0x2844 JUMP JUMPDEST DUP2 MSTORE POP SWAP2 POP POP SWAP3 SWAP2 POP POP JUMP JUMPDEST DUP3 DUP1 SLOAD DUP3 DUP3 SSTORE SWAP1 PUSH1 0x0 MSTORE PUSH1 0x20 PUSH1 0x0 KECCAK256 SWAP1 DUP2 ADD SWAP3 DUP3 ISZERO PUSH2 0x1F82 JUMPI SWAP2 PUSH1 0x20 MUL DUP3 ADD JUMPDEST DUP3 DUP2 GT ISZERO PUSH2 0x1F81 JUMPI DUP3 MLOAD DUP3 SSTORE SWAP2 PUSH1 0x20 ADD SWAP2 SWAP1 PUSH1 0x1 ADD SWAP1 PUSH2 0x1F66 JUMP JUMPDEST JUMPDEST POP SWAP1 POP PUSH2 0x1F8F SWAP2 SWAP1 PUSH2 0x2049 JUMP JUMPDEST POP SWAP1 JUMP JUMPDEST DUP3 DUP1 SLOAD DUP3 DUP3 SSTORE SWAP1 PUSH1 0x0 MSTORE PUSH1 0x20 PUSH1 0x0 KECCAK256 SWAP1 DUP2 ADD SWAP3 DUP3 ISZERO PUSH2 0x1FD4 JUMPI PUSH1 0x0 MSTORE PUSH1 0x20 PUSH1 0x0 KECCAK256 SWAP2 DUP3 ADD JUMPDEST DUP3 DUP2 GT ISZERO PUSH2 0x1FD3 JUMPI DUP3 SLOAD DUP3 SSTORE SWAP2 PUSH1 0x1 ADD SWAP2 SWAP1 PUSH1 0x1 ADD SWAP1 PUSH2 0x1FB8 JUMP JUMPDEST JUMPDEST POP SWAP1 POP PUSH2 0x1FE1 SWAP2 SWAP1 PUSH2 0x2049 JUMP JUMPDEST POP SWAP1 JUMP JUMPDEST POP DUP1 SLOAD PUSH1 0x0 DUP3 SSTORE SWAP1 PUSH1 0x0 MSTORE PUSH1 0x20 PUSH1 0x0 KECCAK256 SWAP1 DUP2 ADD SWAP1 PUSH2 0x2003 SWAP2 SWAP1 PUSH2 0x2049 JUMP JUMPDEST POP JUMP JUMPDEST POP DUP1 SLOAD PUSH1 0x0 DUP3 SSTORE SWAP1 PUSH1 0x0 MSTORE PUSH1 0x20 PUSH1 0x0 KECCAK256 SWAP1 DUP2 ADD SWAP1 PUSH2 0x2024 SWAP2 SWAP1 PUSH2 0x2066 JUMP JUMPDEST POP JUMP JUMPDEST PUSH1 0x40 MLOAD DUP1 PUSH1 0x40 ADD PUSH1 0x40 MSTORE DUP1 PUSH1 0x2 SWAP1 PUSH1 0x20 DUP3 MUL DUP1 CALLDATASIZE DUP4 CALLDATACOPY DUP1 DUP3 ADD SWAP2 POP POP SWAP1 POP POP SWAP1 JUMP JUMPDEST JUMPDEST DUP1 DUP3 GT ISZERO PUSH2 0x2062 JUMPI PUSH1 0x0 DUP2 PUSH1 0x0 SWAP1 SSTORE POP PUSH1 0x1 ADD PUSH2 0x204A JUMP JUMPDEST POP SWAP1 JUMP JUMPDEST JUMPDEST DUP1 DUP3 GT ISZERO PUSH2 0x2086 JUMPI PUSH1 0x0 DUP2 DUP2 PUSH2 0x207D SWAP2 SWAP1 PUSH2 0x1FE5 JUMP JUMPDEST POP PUSH1 0x1 ADD PUSH2 0x2067 JUMP JUMPDEST POP SWAP1 JUMP JUMPDEST PUSH1 0x0 DUP1 REVERT JUMPDEST PUSH1 0x0 PUSH20 0xFFFFFFFFFFFFFFFFFFFFFFFFFFFFFFFFFFFFFFFF DUP3 AND SWAP1 POP SWAP2 SWAP1 POP JUMP JUMPDEST PUSH1 0x0 PUSH2 0x20BA DUP3 PUSH2 0x208F JUMP JUMPDEST SWAP1 POP SWAP2 SWAP1 POP JUMP JUMPDEST PUSH2 0x20CA DUP2 PUSH2 0x20AF JUMP JUMPDEST DUP2 EQ PUSH2 0x20D5 JUMPI PUSH1 0x0 DUP1 REVERT JUMPDEST POP JUMP JUMPDEST PUSH1 0x0 DUP2 CALLDATALOAD SWAP1 POP PUSH2 0x20E7 DUP2 PUSH2 0x20C1 JUMP JUMPDEST SWAP3 SWAP2 POP POP JUMP JUMPDEST PUSH1 0x0 PUSH1 0x20 DUP3 DUP5 SUB SLT ISZERO PUSH2 0x2103 JUMPI PUSH2 0x2102 PUSH2 0x208A JUMP JUMPDEST JUMPDEST PUSH1 0x0 PUSH2 0x2111 DUP5 DUP3 DUP6 ADD PUSH2 0x20D8 JUMP JUMPDEST SWAP2 POP POP SWAP3 SWAP2 POP POP JUMP JUMPDEST PUSH1 0x0 DUP2 SWAP1 POP SWAP2 SWAP1 POP JUMP JUMPDEST PUSH2 0x212D DUP2 PUSH2 0x211A JUMP JUMPDEST DUP3 MSTORE POP POP JUMP JUMPDEST PUSH1 0x0 PUSH1 0x20 DUP3 ADD SWAP1 POP PUSH2 0x2148 PUSH1 0x0 DUP4 ADD DUP5 PUSH2 0x2124 JUMP JUMPDEST SWAP3 SWAP2 POP POP JUMP JUMPDEST PUSH2 0x2157 DUP2 PUSH2 0x211A JUMP JUMPDEST DUP2 EQ PUSH2 0x2162 JUMPI PUSH1 0x0 DUP1 REVERT JUMPDEST POP JUMP JUMPDEST PUSH1 0x0 DUP2 CALLDATALOAD SWAP1 POP PUSH2 0x2174 DUP2 PUSH2 0x214E JUMP JUMPDEST SWAP3 SWAP2 POP POP JUMP JUMPDEST PUSH1 0x0 PUSH1 0x20 DUP3 DUP5 SUB SLT ISZERO PUSH2 0x2190 JUMPI PUSH2 0x218F PUSH2 0x208A JUMP JUMPDEST JUMPDEST PUSH1 0x0 PUSH2 0x219E DUP5 DUP3 DUP6 ADD PUSH2 0x2165 JUMP JUMPDEST SWAP2 POP POP SWAP3 SWAP2 POP POP JUMP JUMPDEST PUSH2 0x21B0 DUP2 PUSH2 0x20AF JUMP JUMPDEST DUP3 MSTORE POP POP JUMP JUMPDEST PUSH1 0x0 PUSH1 0x20 DUP3 ADD SWAP1 POP PUSH2 0x21CB PUSH1 0x0 DUP4 ADD DUP5 PUSH2 0x21A7 JUMP JUMPDEST SWAP3 SWAP2 POP POP JUMP JUMPDEST PUSH1 0x0 DUP1 PUSH1 0x0 PUSH1 0x60 DUP5 DUP7 SUB SLT ISZERO PUSH2 0x21EA JUMPI PUSH2 0x21E9 PUSH2 0x208A JUMP JUMPDEST JUMPDEST PUSH1 0x0 PUSH2 0x21F8 DUP7 DUP3 DUP8 ADD PUSH2 0x20D8 JUMP JUMPDEST SWAP4 POP POP PUSH1 0x20 PUSH2 0x2209 DUP7 DUP3 DUP8 ADD PUSH2 0x2165 JUMP JUMPDEST SWAP3 POP POP PUSH1 0x40 PUSH2 0x221A DUP7 DUP3 DUP8 ADD PUSH2 0x2165 JUMP JUMPDEST SWAP2 POP POP SWAP3 POP SWAP3 POP SWAP3 JUMP JUMPDEST PUSH1 0x0 DUP2 MLOAD SWAP1 POP PUSH2 0x2233 DUP2 PUSH2 0x214E JUMP JUMPDEST SWAP3 SWAP2 POP POP JUMP JUMPDEST PUSH1 0x0 PUSH1 0x20 DUP3 DUP5 SUB SLT ISZERO PUSH2 0x224F JUMPI PUSH2 0x224E PUSH2 0x208A JUMP JUMPDEST JUMPDEST PUSH1 0x0 PUSH2 0x225D DUP5 DUP3 DUP6 ADD PUSH2 0x2224 JUMP JUMPDEST SWAP2 POP POP SWAP3 SWAP2 POP POP JUMP JUMPDEST PUSH1 0x0 DUP3 DUP3 MSTORE PUSH1 0x20 DUP3 ADD SWAP1 POP SWAP3 SWAP2 POP POP JUMP JUMPDEST PUSH32 0x416D6F756E7420696E76616C6964000000000000000000000000000000000000 PUSH1 0x0 DUP3 ADD MSTORE POP JUMP JUMPDEST PUSH1 0x0 PUSH2 0x22AD PUSH1 0xE DUP4 PUSH2 0x2266 JUMP JUMPDEST SWAP2 POP PUSH2 0x22B8 DUP3 PUSH2 0x2277 JUMP JUMPDEST PUSH1 0x20 DUP3 ADD SWAP1 POP SWAP2 SWAP1 POP JUMP JUMPDEST PUSH1 0x0 PUSH1 0x20 DUP3 ADD SWAP1 POP DUP2 DUP2 SUB PUSH1 0x0 DUP4 ADD MSTORE PUSH2 0x22DC DUP2 PUSH2 0x22A0 JUMP JUMPDEST SWAP1 POP SWAP2 SWAP1 POP JUMP JUMPDEST PUSH32 0x42616C616E6365206E6F7420656F756768000000000000000000000000000000 PUSH1 0x0 DUP3 ADD MSTORE POP JUMP JUMPDEST PUSH1 0x0 PUSH2 0x2319 PUSH1 0x11 DUP4 PUSH2 0x2266 JUMP JUMPDEST SWAP2 POP PUSH2 0x2324 DUP3 PUSH2 0x22E3 JUMP JUMPDEST PUSH1 0x20 DUP3 ADD SWAP1 POP SWAP2 SWAP1 POP JUMP JUMPDEST PUSH1 0x0 PUSH1 0x20 DUP3 ADD SWAP1 POP DUP2 DUP2 SUB PUSH1 0x0 DUP4 ADD MSTORE PUSH2 0x2348 DUP2 PUSH2 0x230C JUMP JUMPDEST SWAP1 POP SWAP2 SWAP1 POP JUMP JUMPDEST PUSH32 0x536D61727420436F6E746163742068617665206E6F7420656E6F756768206574 PUSH1 0x0 DUP3 ADD MSTORE PUSH32 0x6800000000000000000000000000000000000000000000000000000000000000 PUSH1 0x20 DUP3 ADD MSTORE POP JUMP JUMPDEST PUSH1 0x0 PUSH2 0x23AB PUSH1 0x21 DUP4 PUSH2 0x2266 JUMP JUMPDEST SWAP2 POP PUSH2 0x23B6 DUP3 PUSH2 0x234F JUMP JUMPDEST PUSH1 0x40 DUP3 ADD SWAP1 POP SWAP2 SWAP1 POP JUMP JUMPDEST PUSH1 0x0 PUSH1 0x20 DUP3 ADD SWAP1 POP DUP2 DUP2 SUB PUSH1 0x0 DUP4 ADD MSTORE PUSH2 0x23DA DUP2 PUSH2 0x239E JUMP JUMPDEST SWAP1 POP SWAP2 SWAP1 POP JUMP JUMPDEST PUSH32 0x4E487B7100000000000000000000000000000000000000000000000000000000 PUSH1 0x0 MSTORE PUSH1 0x11 PUSH1 0x4 MSTORE PUSH1 0x24 PUSH1 0x0 REVERT JUMPDEST PUSH1 0x0 PUSH2 0x241B DUP3 PUSH2 0x211A JUMP JUMPDEST SWAP2 POP PUSH2 0x2426 DUP4 PUSH2 0x211A JUMP JUMPDEST SWAP3 POP DUP3 DUP3 SUB SWAP1 POP DUP2 DUP2 GT ISZERO PUSH2 0x243E JUMPI PUSH2 0x243D PUSH2 0x23E1 JUMP JUMPDEST JUMPDEST SWAP3 SWAP2 POP POP JUMP JUMPDEST PUSH32 0x596F752068617665206E6F206465707400000000000000000000000000000000 PUSH1 0x0 DUP3 ADD MSTORE POP JUMP JUMPDEST PUSH1 0x0 PUSH2 0x247A PUSH1 0x10 DUP4 PUSH2 0x2266 JUMP JUMPDEST SWAP2 POP PUSH2 0x2485 DUP3 PUSH2 0x2444 JUMP JUMPDEST PUSH1 0x20 DUP3 ADD SWAP1 POP SWAP2 SWAP1 POP JUMP JUMPDEST PUSH1 0x0 PUSH1 0x20 DUP3 ADD SWAP1 POP DUP2 DUP2 SUB PUSH1 0x0 DUP4 ADD MSTORE PUSH2 0x24A9 DUP2 PUSH2 0x246D JUMP JUMPDEST SWAP1 POP SWAP2 SWAP1 POP JUMP JUMPDEST PUSH32 0x416D6F756E74206D6F7265207468616E20646570740000000000000000000000 PUSH1 0x0 DUP3 ADD MSTORE POP JUMP JUMPDEST PUSH1 0x0 PUSH2 0x24E6 PUSH1 0x15 DUP4 PUSH2 0x2266 JUMP JUMPDEST SWAP2 POP PUSH2 0x24F1 DUP3 PUSH2 0x24B0 JUMP JUMPDEST PUSH1 0x20 DUP3 ADD SWAP1 POP SWAP2 SWAP1 POP JUMP JUMPDEST PUSH1 0x0 PUSH1 0x20 DUP3 ADD SWAP1 POP DUP2 DUP2 SUB PUSH1 0x0 DUP4 ADD MSTORE PUSH2 0x2515 DUP2 PUSH2 0x24D9 JUMP JUMPDEST SWAP1 POP SWAP2 SWAP1 POP JUMP JUMPDEST PUSH1 0x0 PUSH2 0x2527 DUP3 PUSH2 0x211A JUMP JUMPDEST SWAP2 POP PUSH2 0x2532 DUP4 PUSH2 0x211A JUMP JUMPDEST SWAP3 POP DUP3 DUP3 MUL PUSH2 0x2540 DUP2 PUSH2 0x211A JUMP JUMPDEST SWAP2 POP DUP3 DUP3 DIV DUP5 EQ DUP4 ISZERO OR PUSH2 0x2557 JUMPI PUSH2 0x2556 PUSH2 0x23E1 JUMP JUMPDEST JUMPDEST POP SWAP3 SWAP2 POP POP JUMP JUMPDEST PUSH32 0x4E487B7100000000000000000000000000000000000000000000000000000000 PUSH1 0x0 MSTORE PUSH1 0x12 PUSH1 0x4 MSTORE PUSH1 0x24 PUSH1 0x0 REVERT JUMPDEST PUSH1 0x0 PUSH2 0x2598 DUP3 PUSH2 0x211A JUMP JUMPDEST SWAP2 POP PUSH2 0x25A3 DUP4 PUSH2 0x211A JUMP JUMPDEST SWAP3 POP DUP3 PUSH2 0x25B3 JUMPI PUSH2 0x25B2 PUSH2 0x255E JUMP JUMPDEST JUMPDEST DUP3 DUP3 DIV SWAP1 POP SWAP3 SWAP2 POP POP JUMP JUMPDEST PUSH1 0x0 PUSH1 0x40 DUP3 ADD SWAP1 POP PUSH2 0x25D3 PUSH1 0x0 DUP4 ADD DUP6 PUSH2 0x21A7 JUMP JUMPDEST PUSH2 0x25E0 PUSH1 0x20 DUP4 ADD DUP5 PUSH2 0x2124 JUMP JUMPDEST SWAP4 SWAP3 POP POP POP JUMP JUMPDEST PUSH1 0x0 DUP2 ISZERO ISZERO SWAP1 POP SWAP2 SWAP1 POP JUMP JUMPDEST PUSH2 0x25FC DUP2 PUSH2 0x25E7 JUMP JUMPDEST DUP2 EQ PUSH2 0x2607 JUMPI PUSH1 0x0 DUP1 REVERT JUMPDEST POP JUMP JUMPDEST PUSH1 0x0 DUP2 MLOAD SWAP1 POP PUSH2 0x2619 DUP2 PUSH2 0x25F3 JUMP JUMPDEST SWAP3 SWAP2 POP POP JUMP JUMPDEST PUSH1 0x0 PUSH1 0x20 DUP3 DUP5 SUB SLT ISZERO PUSH2 0x2635 JUMPI PUSH2 0x2634 PUSH2 0x208A JUMP JUMPDEST JUMPDEST PUSH1 0x0 PUSH2 0x2643 DUP5 DUP3 DUP6 ADD PUSH2 0x260A JUMP JUMPDEST SWAP2 POP POP SWAP3 SWAP2 POP POP JUMP JUMPDEST PUSH32 0x4E487B7100000000000000000000000000000000000000000000000000000000 PUSH1 0x0 MSTORE PUSH1 0x32 PUSH1 0x4 MSTORE PUSH1 0x24 PUSH1 0x0 REVERT JUMPDEST PUSH1 0x0 PUSH2 0x2686 DUP3 PUSH2 0x211A JUMP JUMPDEST SWAP2 POP PUSH2 0x2691 DUP4 PUSH2 0x211A JUMP JUMPDEST SWAP3 POP DUP3 DUP3 ADD SWAP1 POP DUP1 DUP3 GT ISZERO PUSH2 0x26A9 JUMPI PUSH2 0x26A8 PUSH2 0x23E1 JUMP JUMPDEST JUMPDEST SWAP3 SWAP2 POP POP JUMP JUMPDEST PUSH1 0x0 PUSH2 0x26BA DUP3 PUSH2 0x211A JUMP JUMPDEST SWAP2 POP PUSH32 0xFFFFFFFFFFFFFFFFFFFFFFFFFFFFFFFFFFFFFFFFFFFFFFFFFFFFFFFFFFFFFFFF DUP3 SUB PUSH2 0x26EC JUMPI PUSH2 0x26EB PUSH2 0x23E1 JUMP JUMPDEST JUMPDEST PUSH1 0x1 DUP3 ADD SWAP1 POP SWAP2 SWAP1 POP JUMP JUMPDEST PUSH1 0x0 PUSH1 0x60 DUP3 ADD SWAP1 POP PUSH2 0x270C PUSH1 0x0 DUP4 ADD DUP7 PUSH2 0x21A7 JUMP JUMPDEST PUSH2 0x2719 PUSH1 0x20 DUP4 ADD DUP6 PUSH2 0x21A7 JUMP JUMPDEST PUSH2 0x2726 PUSH1 0x40 DUP4 ADD DUP5 PUSH2 0x2124 JUMP JUMPDEST SWAP5 SWAP4 POP POP POP POP JUMP JUMPDEST PUSH32 0x41646D696E206F6E6C7900000000000000000000000000000000000000000000 PUSH1 0x0 DUP3 ADD MSTORE POP JUMP JUMPDEST PUSH1 0x0 PUSH2 0x2764 PUSH1 0xA DUP4 PUSH2 0x2266 JUMP JUMPDEST SWAP2 POP PUSH2 0x276F DUP3 PUSH2 0x272E JUMP JUMPDEST PUSH1 0x20 DUP3 ADD SWAP1 POP SWAP2 SWAP1 POP JUMP JUMPDEST PUSH1 0x0 PUSH1 0x20 DUP3 ADD SWAP1 POP DUP2 DUP2 SUB PUSH1 0x0 DUP4 ADD MSTORE PUSH2 0x2793 DUP2 PUSH2 0x2757 JUMP JUMPDEST SWAP1 POP SWAP2 SWAP1 POP JUMP JUMPDEST PUSH32 0x4E487B7100000000000000000000000000000000000000000000000000000000 PUSH1 0x0 MSTORE PUSH1 0x31 PUSH1 0x4 MSTORE PUSH1 0x24 PUSH1 0x0 REVERT JUMPDEST PUSH1 0x0 PUSH2 0x27D4 DUP3 PUSH2 0x211A JUMP JUMPDEST SWAP2 POP PUSH1 0x0 DUP3 SUB PUSH2 0x27E7 JUMPI PUSH2 0x27E6 PUSH2 0x23E1 JUMP JUMPDEST JUMPDEST PUSH1 0x1 DUP3 SUB SWAP1 POP SWAP2 SWAP1 POP JUMP JUMPDEST PUSH1 0x0 DUP2 SWAP1 POP SWAP2 SWAP1 POP JUMP JUMPDEST PUSH1 0x0 PUSH2 0x2807 DUP3 PUSH2 0x27F2 JUMP JUMPDEST SWAP2 POP PUSH32 0x7FFFFFFFFFFFFFFFFFFFFFFFFFFFFFFFFFFFFFFFFFFFFFFFFFFFFFFFFFFFFFFF DUP3 SUB PUSH2 0x2839 JUMPI PUSH2 0x2838 PUSH2 0x23E1 JUMP JUMPDEST JUMPDEST PUSH1 0x1 DUP3 ADD SWAP1 POP SWAP2 SWAP1 POP JUMP JUMPDEST PUSH1 0x0 PUSH2 0x284F DUP3 PUSH2 0x27F2 JUMP JUMPDEST SWAP2 POP PUSH2 0x285A DUP4 PUSH2 0x27F2 JUMP JUMPDEST SWAP3 POP DUP3 DUP3 SUB SWAP1 POP DUP2 DUP2 SLT PUSH1 0x0 DUP5 SLT AND DUP3 DUP3 SGT PUSH1 0x0 DUP6 SLT ISZERO AND OR ISZERO PUSH2 0x2881 JUMPI PUSH2 0x2880 PUSH2 0x23E1 JUMP JUMPDEST JUMPDEST SWAP3 SWAP2 POP POP JUMP JUMPDEST PUSH1 0x0 PUSH2 0x2892 DUP3 PUSH2 0x27F2 JUMP JUMPDEST SWAP2 POP PUSH32 0x8000000000000000000000000000000000000000000000000000000000000000 DUP3 SUB PUSH2 0x28C4 JUMPI PUSH2 0x28C3 PUSH2 0x23E1 JUMP JUMPDEST JUMPDEST DUP2 PUSH1 0x0 SUB SWAP1 POP SWAP2 SWAP1 POP JUMP INVALID LOG2 PUSH5 0x6970667358 0x22 SLT KECCAK256 SHR PUSH8 0x1C65877188B0E88E DUP9 LOG2 0x4C INVALID SWAP7 0x4B SMOD CODECOPY 0xAF SMOD PUSH4 0x2C92D88E POP 0xD5 PUSH21 0x54CBCD1464736F6C63430008110033000000000000 "
		},
		"gasEstimates": {
			"creation": {
				"codeDepositCost": "2100200",
				"executionCost": "26502",
				"totalCost": "2126702"
			},
			"external": {
				"BorrowPeriod()": "2518",
				"Check_All_Dept()": "infinite",
				"Check_Balance()": "2592",
				"Check_Confiscated_Token()": "infinite",
				"Check_Dept(address)": "infinite",
				"Check_My_Dept()": "infinite",
				"Check_Token(address)": "infinite",
				"Get_Free_Token(uint256)": "infinite",
				"MarginRate()": "2540",
				"Margin_call()": "infinite",
				"Owner()": "2578",
				"SetBorrowPeriod(uint256)": "22566",
				"SetMagin(uint256)": "22542",
				"SetToken(address)": "27021",
				"TokenAddress()": "2603",
				"_Borrower(address,uint256,uint256)": "infinite",
				"_Lender(address)": "2926",
				"borrow(uint256)": "infinite",
				"deposit()": "infinite",
				"repay()": "infinite",
				"withdraw(uint256)": "infinite"
			},
			"internal": {
				"Check_Margin(uint256)": "infinite",
				"DecreaseDept(address,int256)": "infinite",
				"DeleteRecord(address,uint256)": "infinite",
				"Margin_call_Account(address)": "infinite",
				"is_in(address,address[] memory)": "infinite"
			}
		},
		"methodIdentifiers": {
			"BorrowPeriod()": "90217dc7",
			"Check_All_Dept()": "652106f5",
			"Check_Balance()": "d84221ba",
			"Check_Confiscated_Token()": "5905c607",
			"Check_Dept(address)": "ed96b4ed",
			"Check_My_Dept()": "a570e610",
			"Check_Token(address)": "0dacd0dc",
			"Get_Free_Token(uint256)": "8dc4ce39",
			"MarginRate()": "9ae8deb1",
			"Margin_call()": "a512c6ec",
			"Owner()": "b4a99a4e",
			"SetBorrowPeriod(uint256)": "225ce267",
			"SetMagin(uint256)": "c67d0a16",
			"SetToken(address)": "efc1fd16",
			"TokenAddress()": "c2cba306",
			"_Borrower(address,uint256,uint256)": "dac17428",
			"_Lender(address)": "415197de",
			"borrow(uint256)": "c5ebeaec",
			"deposit()": "d0e30db0",
			"repay()": "402d8883",
			"withdraw(uint256)": "2e1a7d4d"
		}
	},
	"abi": [
		{
			"inputs": [],
			"stateMutability": "nonpayable",
			"type": "constructor"
		},
		{
			"inputs": [],
			"name": "BorrowPeriod",
			"outputs": [
				{
					"internalType": "uint256",
					"name": "",
					"type": "uint256"
				}
			],
			"stateMutability": "view",
			"type": "function"
		},
		{
			"inputs": [],
			"name": "Check_All_Dept",
			"outputs": [
				{
					"internalType": "uint256",
					"name": "",
					"type": "uint256"
				}
			],
			"stateMutability": "view",
			"type": "function"
		},
		{
			"inputs": [],
			"name": "Check_Balance",
			"outputs": [
				{
					"internalType": "uint256",
					"name": "",
					"type": "uint256"
				}
			],
			"stateMutability": "view",
			"type": "function"
		},
		{
			"inputs": [],
			"name": "Check_Confiscated_Token",
			"outputs": [
				{
					"internalType": "uint256",
					"name": "Confiscated_Token",
					"type": "uint256"
				}
			],
			"stateMutability": "view",
			"type": "function"
		},
		{
			"inputs": [
				{
					"internalType": "address",
					"name": "account",
					"type": "address"
				}
			],
			"name": "Check_Dept",
			"outputs": [
				{
					"internalType": "uint256",
					"name": "",
					"type": "uint256"
				}
			],
			"stateMutability": "view",
			"type": "function"
		},
		{
			"inputs": [],
			"name": "Check_My_Dept",
			"outputs": [
				{
					"internalType": "uint256",
					"name": "",
					"type": "uint256"
				}
			],
			"stateMutability": "view",
			"type": "function"
		},
		{
			"inputs": [
				{
					"internalType": "address",
					"name": "account",
					"type": "address"
				}
			],
			"name": "Check_Token",
			"outputs": [
				{
					"internalType": "uint256",
					"name": "",
					"type": "uint256"
				}
			],
			"stateMutability": "view",
			"type": "function"
		},
		{
			"inputs": [
				{
					"internalType": "uint256",
					"name": "amount",
					"type": "uint256"
				}
			],
			"name": "Get_Free_Token",
			"outputs": [],
			"stateMutability": "nonpayable",
			"type": "function"
		},
		{
			"inputs": [],
			"name": "MarginRate",
			"outputs": [
				{
					"internalType": "uint256",
					"name": "",
					"type": "uint256"
				}
			],
			"stateMutability": "view",
			"type": "function"
		},
		{
			"inputs": [],
			"name": "Margin_call",
			"outputs": [],
			"stateMutability": "nonpayable",
			"type": "function"
		},
		{
			"inputs": [],
			"name": "Owner",
			"outputs": [
				{
					"internalType": "address",
					"name": "",
					"type": "address"
				}
			],
			"stateMutability": "view",
			"type": "function"
		},
		{
			"inputs": [
				{
					"internalType": "uint256",
					"name": "period_sec",
					"type": "uint256"
				}
			],
			"name": "SetBorrowPeriod",
			"outputs": [],
			"stateMutability": "nonpayable",
			"type": "function"
		},
		{
			"inputs": [
				{
					"internalType": "uint256",
					"name": "Margin_Rate_percent",
					"type": "uint256"
				}
			],
			"name": "SetMagin",
			"outputs": [],
			"stateMutability": "nonpayable",
			"type": "function"
		},
		{
			"inputs": [
				{
					"internalType": "address",
					"name": "setTokenAddress",
					"type": "address"
				}
			],
			"name": "SetToken",
			"outputs": [],
			"stateMutability": "nonpayable",
			"type": "function"
		},
		{
			"inputs": [],
			"name": "TokenAddress",
			"outputs": [
				{
					"internalType": "address",
					"name": "",
					"type": "address"
				}
			],
			"stateMutability": "view",
			"type": "function"
		},
		{
			"inputs": [
				{
					"internalType": "address",
					"name": "",
					"type": "address"
				},
				{
					"internalType": "uint256",
					"name": "",
					"type": "uint256"
				},
				{
					"internalType": "uint256",
					"name": "",
					"type": "uint256"
				}
			],
			"name": "_Borrower",
			"outputs": [
				{
					"internalType": "uint256",
					"name": "",
					"type": "uint256"
				}
			],
			"stateMutability": "view",
			"type": "function"
		},
		{
			"inputs": [
				{
					"internalType": "address",
					"name": "",
					"type": "address"
				}
			],
			"name": "_Lender",
			"outputs": [
				{
					"internalType": "uint256",
					"name": "",
					"type": "uint256"
				}
			],
			"stateMutability": "view",
			"type": "function"
		},
		{
			"inputs": [
				{
					"internalType": "uint256",
					"name": "amount",
					"type": "uint256"
				}
			],
			"name": "borrow",
			"outputs": [],
			"stateMutability": "nonpayable",
			"type": "function"
		},
		{
			"inputs": [],
			"name": "deposit",
			"outputs": [],
			"stateMutability": "payable",
			"type": "function"
		},
		{
			"inputs": [],
			"name": "repay",
			"outputs": [],
			"stateMutability": "payable",
			"type": "function"
		},
		{
			"inputs": [
				{
					"internalType": "uint256",
					"name": "amount",
					"type": "uint256"
				}
			],
			"name": "withdraw",
			"outputs": [],
			"stateMutability": "nonpayable",
			"type": "function"
		}
	]
}