{
	"data": {
		"bytecode": {
			"linkReferences": {},
			"object": "608060405234801561001057600080fd5b50610b35806100206000396000f3fe608060405234801561001057600080fd5b506004361061004c5760003560e01c8063a6d1bafd14610051578063c5ebeaec1461006d578063dac1742814610089578063dd40c51c146100b9575b600080fd5b61006b60048036038101906100669190610816565b6100e9565b005b61008760048036038101906100829190610856565b6103ae565b005b6100a3600480360381019061009e9190610883565b61045d565b6040516100b091906108e5565b60405180910390f35b6100d360048036038101906100ce9190610900565b6104a7565b6040516100e091906108e5565b60405180910390f35b60006100f58383610598565b905060005b8160016002811061010e5761010d61092d565b5b60200201516000808673ffffffffffffffffffffffffffffffffffffffff1673ffffffffffffffffffffffffffffffffffffffff1681526020019081526020016000208054905061015f919061098b565b81101561025f576000808573ffffffffffffffffffffffffffffffffffffffff1673ffffffffffffffffffffffffffffffffffffffff168152602001908152602001600020826001600281106101b8576101b761092d565b5b6020020151826101c891906109bf565b815481106101d9576101d861092d565b5b906000526020600020016000808673ffffffffffffffffffffffffffffffffffffffff1673ffffffffffffffffffffffffffffffffffffffff16815260200190815260200160002082815481106102335761023261092d565b5b9060005260206000200190805461024b92919061067e565b508080610257906109f3565b9150506100fa565b5060005b816001600281106102775761027661092d565b5b60200201518111610301576000808573ffffffffffffffffffffffffffffffffffffffff1673ffffffffffffffffffffffffffffffffffffffff1681526020019081526020016000208054806102d0576102cf610a3b565b5b6001900381819060005260206000200160006102ec91906106d0565b905580806102f9906109f3565b915050610263565b50806000600281106103165761031561092d565b5b60200201516000808573ffffffffffffffffffffffffffffffffffffffff1673ffffffffffffffffffffffffffffffffffffffff16815260200190815260200160002060008154811061036c5761036b61092d565b5b906000526020600020016001815481106103895761038861092d565b5b9060005260206000200160008282546103a2919061098b565b92505081905550505050565b6000805b8281101561045857600a826103c791906109bf565b91506040518060400160405280428152602001838152506000803373ffffffffffffffffffffffffffffffffffffffff1673ffffffffffffffffffffffffffffffffffffffff16815260200190815260200160002060018160018154018082558091505003906000526020600020019060026104449291906106f1565b508080610450906109f3565b9150506103b2565b505050565b6000602052826000526040600020828154811061047957600080fd5b90600052602060002001818154811061049157600080fd5b9060005260206000200160009250925050505481565b60008060005b6000808573ffffffffffffffffffffffffffffffffffffffff1673ffffffffffffffffffffffffffffffffffffffff1681526020019081526020016000208054905081101561058e576000808573ffffffffffffffffffffffffffffffffffffffff1673ffffffffffffffffffffffffffffffffffffffff16815260200190815260200160002081815481106105465761054561092d565b5b906000526020600020016001815481106105635761056261092d565b5b90600052602060002001548261057991906109bf565b91508080610586906109f3565b9150506104ad565b5080915050919050565b6105a061073e565b6000805b60008413156106535781806105b890610a74565b9250506000808673ffffffffffffffffffffffffffffffffffffffff1673ffffffffffffffffffffffffffffffffffffffff168152602001908152602001600020818154811061060b5761060a61092d565b5b906000526020600020016001815481106106285761062761092d565b5b90600052602060002001548461063e9190610abc565b9350808061064b906109f3565b9150506105a4565b5060405180604001604052808481526020016001836106729190610abc565b81525091505092915050565b8280548282559060005260206000209081019282156106bf5760005260206000209182015b828111156106be5782548255916001019190600101906106a3565b5b5090506106cc9190610760565b5090565b50805460008255906000526020600020908101906106ee9190610760565b50565b82805482825590600052602060002090810192821561072d579160200282015b8281111561072c578251825591602001919060010190610711565b5b50905061073a9190610760565b5090565b6040518060400160405280600290602082028036833780820191505090505090565b5b80821115610779576000816000905550600101610761565b5090565b600080fd5b600073ffffffffffffffffffffffffffffffffffffffff82169050919050565b60006107ad82610782565b9050919050565b6107bd816107a2565b81146107c857600080fd5b50565b6000813590506107da816107b4565b92915050565b6000819050919050565b6107f3816107e0565b81146107fe57600080fd5b50565b600081359050610810816107ea565b92915050565b6000806040838503121561082d5761082c61077d565b5b600061083b858286016107cb565b925050602061084c85828601610801565b9150509250929050565b60006020828403121561086c5761086b61077d565b5b600061087a84828501610801565b91505092915050565b60008060006060848603121561089c5761089b61077d565b5b60006108aa868287016107cb565b93505060206108bb86828701610801565b92505060406108cc86828701610801565b9150509250925092565b6108df816107e0565b82525050565b60006020820190506108fa60008301846108d6565b92915050565b6000602082840312156109165761091561077d565b5b6000610924848285016107cb565b91505092915050565b7f4e487b7100000000000000000000000000000000000000000000000000000000600052603260045260246000fd5b7f4e487b7100000000000000000000000000000000000000000000000000000000600052601160045260246000fd5b6000610996826107e0565b91506109a1836107e0565b92508282039050818111156109b9576109b861095c565b5b92915050565b60006109ca826107e0565b91506109d5836107e0565b92508282019050808211156109ed576109ec61095c565b5b92915050565b60006109fe826107e0565b91507fffffffffffffffffffffffffffffffffffffffffffffffffffffffffffffffff8203610a3057610a2f61095c565b5b600182019050919050565b7f4e487b7100000000000000000000000000000000000000000000000000000000600052603160045260246000fd5b6000819050919050565b6000610a7f82610a6a565b91507f7fffffffffffffffffffffffffffffffffffffffffffffffffffffffffffffff8203610ab157610ab061095c565b5b600182019050919050565b6000610ac782610a6a565b9150610ad283610a6a565b9250828203905081811260008412168282136000851215161715610af957610af861095c565b5b9291505056fea264697066735822122097e289ee917fa4e8e87ddc6d2643a6387c3987163a060d0c1d478546e63a8f5264736f6c63430008110033",
			"opcodes": "PUSH1 0x80 PUSH1 0x40 MSTORE CALLVALUE DUP1 ISZERO PUSH2 0x10 JUMPI PUSH1 0x0 DUP1 REVERT JUMPDEST POP PUSH2 0xB35 DUP1 PUSH2 0x20 PUSH1 0x0 CODECOPY PUSH1 0x0 RETURN INVALID PUSH1 0x80 PUSH1 0x40 MSTORE CALLVALUE DUP1 ISZERO PUSH2 0x10 JUMPI PUSH1 0x0 DUP1 REVERT JUMPDEST POP PUSH1 0x4 CALLDATASIZE LT PUSH2 0x4C JUMPI PUSH1 0x0 CALLDATALOAD PUSH1 0xE0 SHR DUP1 PUSH4 0xA6D1BAFD EQ PUSH2 0x51 JUMPI DUP1 PUSH4 0xC5EBEAEC EQ PUSH2 0x6D JUMPI DUP1 PUSH4 0xDAC17428 EQ PUSH2 0x89 JUMPI DUP1 PUSH4 0xDD40C51C EQ PUSH2 0xB9 JUMPI JUMPDEST PUSH1 0x0 DUP1 REVERT JUMPDEST PUSH2 0x6B PUSH1 0x4 DUP1 CALLDATASIZE SUB DUP2 ADD SWAP1 PUSH2 0x66 SWAP2 SWAP1 PUSH2 0x816 JUMP JUMPDEST PUSH2 0xE9 JUMP JUMPDEST STOP JUMPDEST PUSH2 0x87 PUSH1 0x4 DUP1 CALLDATASIZE SUB DUP2 ADD SWAP1 PUSH2 0x82 SWAP2 SWAP1 PUSH2 0x856 JUMP JUMPDEST PUSH2 0x3AE JUMP JUMPDEST STOP JUMPDEST PUSH2 0xA3 PUSH1 0x4 DUP1 CALLDATASIZE SUB DUP2 ADD SWAP1 PUSH2 0x9E SWAP2 SWAP1 PUSH2 0x883 JUMP JUMPDEST PUSH2 0x45D JUMP JUMPDEST PUSH1 0x40 MLOAD PUSH2 0xB0 SWAP2 SWAP1 PUSH2 0x8E5 JUMP JUMPDEST PUSH1 0x40 MLOAD DUP1 SWAP2 SUB SWAP1 RETURN JUMPDEST PUSH2 0xD3 PUSH1 0x4 DUP1 CALLDATASIZE SUB DUP2 ADD SWAP1 PUSH2 0xCE SWAP2 SWAP1 PUSH2 0x900 JUMP JUMPDEST PUSH2 0x4A7 JUMP JUMPDEST PUSH1 0x40 MLOAD PUSH2 0xE0 SWAP2 SWAP1 PUSH2 0x8E5 JUMP JUMPDEST PUSH1 0x40 MLOAD DUP1 SWAP2 SUB SWAP1 RETURN JUMPDEST PUSH1 0x0 PUSH2 0xF5 DUP4 DUP4 PUSH2 0x598 JUMP JUMPDEST SWAP1 POP PUSH1 0x0 JUMPDEST DUP2 PUSH1 0x1 PUSH1 0x2 DUP2 LT PUSH2 0x10E JUMPI PUSH2 0x10D PUSH2 0x92D JUMP JUMPDEST JUMPDEST PUSH1 0x20 MUL ADD MLOAD PUSH1 0x0 DUP1 DUP7 PUSH20 0xFFFFFFFFFFFFFFFFFFFFFFFFFFFFFFFFFFFFFFFF AND PUSH20 0xFFFFFFFFFFFFFFFFFFFFFFFFFFFFFFFFFFFFFFFF AND DUP2 MSTORE PUSH1 0x20 ADD SWAP1 DUP2 MSTORE PUSH1 0x20 ADD PUSH1 0x0 KECCAK256 DUP1 SLOAD SWAP1 POP PUSH2 0x15F SWAP2 SWAP1 PUSH2 0x98B JUMP JUMPDEST DUP2 LT ISZERO PUSH2 0x25F JUMPI PUSH1 0x0 DUP1 DUP6 PUSH20 0xFFFFFFFFFFFFFFFFFFFFFFFFFFFFFFFFFFFFFFFF AND PUSH20 0xFFFFFFFFFFFFFFFFFFFFFFFFFFFFFFFFFFFFFFFF AND DUP2 MSTORE PUSH1 0x20 ADD SWAP1 DUP2 MSTORE PUSH1 0x20 ADD PUSH1 0x0 KECCAK256 DUP3 PUSH1 0x1 PUSH1 0x2 DUP2 LT PUSH2 0x1B8 JUMPI PUSH2 0x1B7 PUSH2 0x92D JUMP JUMPDEST JUMPDEST PUSH1 0x20 MUL ADD MLOAD DUP3 PUSH2 0x1C8 SWAP2 SWAP1 PUSH2 0x9BF JUMP JUMPDEST DUP2 SLOAD DUP2 LT PUSH2 0x1D9 JUMPI PUSH2 0x1D8 PUSH2 0x92D JUMP JUMPDEST JUMPDEST SWAP1 PUSH1 0x0 MSTORE PUSH1 0x20 PUSH1 0x0 KECCAK256 ADD PUSH1 0x0 DUP1 DUP7 PUSH20 0xFFFFFFFFFFFFFFFFFFFFFFFFFFFFFFFFFFFFFFFF AND PUSH20 0xFFFFFFFFFFFFFFFFFFFFFFFFFFFFFFFFFFFFFFFF AND DUP2 MSTORE PUSH1 0x20 ADD SWAP1 DUP2 MSTORE PUSH1 0x20 ADD PUSH1 0x0 KECCAK256 DUP3 DUP2 SLOAD DUP2 LT PUSH2 0x233 JUMPI PUSH2 0x232 PUSH2 0x92D JUMP JUMPDEST JUMPDEST SWAP1 PUSH1 0x0 MSTORE PUSH1 0x20 PUSH1 0x0 KECCAK256 ADD SWAP1 DUP1 SLOAD PUSH2 0x24B SWAP3 SWAP2 SWAP1 PUSH2 0x67E JUMP JUMPDEST POP DUP1 DUP1 PUSH2 0x257 SWAP1 PUSH2 0x9F3 JUMP JUMPDEST SWAP2 POP POP PUSH2 0xFA JUMP JUMPDEST POP PUSH1 0x0 JUMPDEST DUP2 PUSH1 0x1 PUSH1 0x2 DUP2 LT PUSH2 0x277 JUMPI PUSH2 0x276 PUSH2 0x92D JUMP JUMPDEST JUMPDEST PUSH1 0x20 MUL ADD MLOAD DUP2 GT PUSH2 0x301 JUMPI PUSH1 0x0 DUP1 DUP6 PUSH20 0xFFFFFFFFFFFFFFFFFFFFFFFFFFFFFFFFFFFFFFFF AND PUSH20 0xFFFFFFFFFFFFFFFFFFFFFFFFFFFFFFFFFFFFFFFF AND DUP2 MSTORE PUSH1 0x20 ADD SWAP1 DUP2 MSTORE PUSH1 0x20 ADD PUSH1 0x0 KECCAK256 DUP1 SLOAD DUP1 PUSH2 0x2D0 JUMPI PUSH2 0x2CF PUSH2 0xA3B JUMP JUMPDEST JUMPDEST PUSH1 0x1 SWAP1 SUB DUP2 DUP2 SWAP1 PUSH1 0x0 MSTORE PUSH1 0x20 PUSH1 0x0 KECCAK256 ADD PUSH1 0x0 PUSH2 0x2EC SWAP2 SWAP1 PUSH2 0x6D0 JUMP JUMPDEST SWAP1 SSTORE DUP1 DUP1 PUSH2 0x2F9 SWAP1 PUSH2 0x9F3 JUMP JUMPDEST SWAP2 POP POP PUSH2 0x263 JUMP JUMPDEST POP DUP1 PUSH1 0x0 PUSH1 0x2 DUP2 LT PUSH2 0x316 JUMPI PUSH2 0x315 PUSH2 0x92D JUMP JUMPDEST JUMPDEST PUSH1 0x20 MUL ADD MLOAD PUSH1 0x0 DUP1 DUP6 PUSH20 0xFFFFFFFFFFFFFFFFFFFFFFFFFFFFFFFFFFFFFFFF AND PUSH20 0xFFFFFFFFFFFFFFFFFFFFFFFFFFFFFFFFFFFFFFFF AND DUP2 MSTORE PUSH1 0x20 ADD SWAP1 DUP2 MSTORE PUSH1 0x20 ADD PUSH1 0x0 KECCAK256 PUSH1 0x0 DUP2 SLOAD DUP2 LT PUSH2 0x36C JUMPI PUSH2 0x36B PUSH2 0x92D JUMP JUMPDEST JUMPDEST SWAP1 PUSH1 0x0 MSTORE PUSH1 0x20 PUSH1 0x0 KECCAK256 ADD PUSH1 0x1 DUP2 SLOAD DUP2 LT PUSH2 0x389 JUMPI PUSH2 0x388 PUSH2 0x92D JUMP JUMPDEST JUMPDEST SWAP1 PUSH1 0x0 MSTORE PUSH1 0x20 PUSH1 0x0 KECCAK256 ADD PUSH1 0x0 DUP3 DUP3 SLOAD PUSH2 0x3A2 SWAP2 SWAP1 PUSH2 0x98B JUMP JUMPDEST SWAP3 POP POP DUP2 SWAP1 SSTORE POP POP POP POP JUMP JUMPDEST PUSH1 0x0 DUP1 JUMPDEST DUP3 DUP2 LT ISZERO PUSH2 0x458 JUMPI PUSH1 0xA DUP3 PUSH2 0x3C7 SWAP2 SWAP1 PUSH2 0x9BF JUMP JUMPDEST SWAP2 POP PUSH1 0x40 MLOAD DUP1 PUSH1 0x40 ADD PUSH1 0x40 MSTORE DUP1 TIMESTAMP DUP2 MSTORE PUSH1 0x20 ADD DUP4 DUP2 MSTORE POP PUSH1 0x0 DUP1 CALLER PUSH20 0xFFFFFFFFFFFFFFFFFFFFFFFFFFFFFFFFFFFFFFFF AND PUSH20 0xFFFFFFFFFFFFFFFFFFFFFFFFFFFFFFFFFFFFFFFF AND DUP2 MSTORE PUSH1 0x20 ADD SWAP1 DUP2 MSTORE PUSH1 0x20 ADD PUSH1 0x0 KECCAK256 PUSH1 0x1 DUP2 PUSH1 0x1 DUP2 SLOAD ADD DUP1 DUP3 SSTORE DUP1 SWAP2 POP POP SUB SWAP1 PUSH1 0x0 MSTORE PUSH1 0x20 PUSH1 0x0 KECCAK256 ADD SWAP1 PUSH1 0x2 PUSH2 0x444 SWAP3 SWAP2 SWAP1 PUSH2 0x6F1 JUMP JUMPDEST POP DUP1 DUP1 PUSH2 0x450 SWAP1 PUSH2 0x9F3 JUMP JUMPDEST SWAP2 POP POP PUSH2 0x3B2 JUMP JUMPDEST POP POP POP JUMP JUMPDEST PUSH1 0x0 PUSH1 0x20 MSTORE DUP3 PUSH1 0x0 MSTORE PUSH1 0x40 PUSH1 0x0 KECCAK256 DUP3 DUP2 SLOAD DUP2 LT PUSH2 0x479 JUMPI PUSH1 0x0 DUP1 REVERT JUMPDEST SWAP1 PUSH1 0x0 MSTORE PUSH1 0x20 PUSH1 0x0 KECCAK256 ADD DUP2 DUP2 SLOAD DUP2 LT PUSH2 0x491 JUMPI PUSH1 0x0 DUP1 REVERT JUMPDEST SWAP1 PUSH1 0x0 MSTORE PUSH1 0x20 PUSH1 0x0 KECCAK256 ADD PUSH1 0x0 SWAP3 POP SWAP3 POP POP POP SLOAD DUP2 JUMP JUMPDEST PUSH1 0x0 DUP1 PUSH1 0x0 JUMPDEST PUSH1 0x0 DUP1 DUP6 PUSH20 0xFFFFFFFFFFFFFFFFFFFFFFFFFFFFFFFFFFFFFFFF AND PUSH20 0xFFFFFFFFFFFFFFFFFFFFFFFFFFFFFFFFFFFFFFFF AND DUP2 MSTORE PUSH1 0x20 ADD SWAP1 DUP2 MSTORE PUSH1 0x20 ADD PUSH1 0x0 KECCAK256 DUP1 SLOAD SWAP1 POP DUP2 LT ISZERO PUSH2 0x58E JUMPI PUSH1 0x0 DUP1 DUP6 PUSH20 0xFFFFFFFFFFFFFFFFFFFFFFFFFFFFFFFFFFFFFFFF AND PUSH20 0xFFFFFFFFFFFFFFFFFFFFFFFFFFFFFFFFFFFFFFFF AND DUP2 MSTORE PUSH1 0x20 ADD SWAP1 DUP2 MSTORE PUSH1 0x20 ADD PUSH1 0x0 KECCAK256 DUP2 DUP2 SLOAD DUP2 LT PUSH2 0x546 JUMPI PUSH2 0x545 PUSH2 0x92D JUMP JUMPDEST JUMPDEST SWAP1 PUSH1 0x0 MSTORE PUSH1 0x20 PUSH1 0x0 KECCAK256 ADD PUSH1 0x1 DUP2 SLOAD DUP2 LT PUSH2 0x563 JUMPI PUSH2 0x562 PUSH2 0x92D JUMP JUMPDEST JUMPDEST SWAP1 PUSH1 0x0 MSTORE PUSH1 0x20 PUSH1 0x0 KECCAK256 ADD SLOAD DUP3 PUSH2 0x579 SWAP2 SWAP1 PUSH2 0x9BF JUMP JUMPDEST SWAP2 POP DUP1 DUP1 PUSH2 0x586 SWAP1 PUSH2 0x9F3 JUMP JUMPDEST SWAP2 POP POP PUSH2 0x4AD JUMP JUMPDEST POP DUP1 SWAP2 POP POP SWAP2 SWAP1 POP JUMP JUMPDEST PUSH2 0x5A0 PUSH2 0x73E JUMP JUMPDEST PUSH1 0x0 DUP1 JUMPDEST PUSH1 0x0 DUP5 SGT ISZERO PUSH2 0x653 JUMPI DUP2 DUP1 PUSH2 0x5B8 SWAP1 PUSH2 0xA74 JUMP JUMPDEST SWAP3 POP POP PUSH1 0x0 DUP1 DUP7 PUSH20 0xFFFFFFFFFFFFFFFFFFFFFFFFFFFFFFFFFFFFFFFF AND PUSH20 0xFFFFFFFFFFFFFFFFFFFFFFFFFFFFFFFFFFFFFFFF AND DUP2 MSTORE PUSH1 0x20 ADD SWAP1 DUP2 MSTORE PUSH1 0x20 ADD PUSH1 0x0 KECCAK256 DUP2 DUP2 SLOAD DUP2 LT PUSH2 0x60B JUMPI PUSH2 0x60A PUSH2 0x92D JUMP JUMPDEST JUMPDEST SWAP1 PUSH1 0x0 MSTORE PUSH1 0x20 PUSH1 0x0 KECCAK256 ADD PUSH1 0x1 DUP2 SLOAD DUP2 LT PUSH2 0x628 JUMPI PUSH2 0x627 PUSH2 0x92D JUMP JUMPDEST JUMPDEST SWAP1 PUSH1 0x0 MSTORE PUSH1 0x20 PUSH1 0x0 KECCAK256 ADD SLOAD DUP5 PUSH2 0x63E SWAP2 SWAP1 PUSH2 0xABC JUMP JUMPDEST SWAP4 POP DUP1 DUP1 PUSH2 0x64B SWAP1 PUSH2 0x9F3 JUMP JUMPDEST SWAP2 POP POP PUSH2 0x5A4 JUMP JUMPDEST POP PUSH1 0x40 MLOAD DUP1 PUSH1 0x40 ADD PUSH1 0x40 MSTORE DUP1 DUP5 DUP2 MSTORE PUSH1 0x20 ADD PUSH1 0x1 DUP4 PUSH2 0x672 SWAP2 SWAP1 PUSH2 0xABC JUMP JUMPDEST DUP2 MSTORE POP SWAP2 POP POP SWAP3 SWAP2 POP POP JUMP JUMPDEST DUP3 DUP1 SLOAD DUP3 DUP3 SSTORE SWAP1 PUSH1 0x0 MSTORE PUSH1 0x20 PUSH1 0x0 KECCAK256 SWAP1 DUP2 ADD SWAP3 DUP3 ISZERO PUSH2 0x6BF JUMPI PUSH1 0x0 MSTORE PUSH1 0x20 PUSH1 0x0 KECCAK256 SWAP2 DUP3 ADD JUMPDEST DUP3 DUP2 GT ISZERO PUSH2 0x6BE JUMPI DUP3 SLOAD DUP3 SSTORE SWAP2 PUSH1 0x1 ADD SWAP2 SWAP1 PUSH1 0x1 ADD SWAP1 PUSH2 0x6A3 JUMP JUMPDEST JUMPDEST POP SWAP1 POP PUSH2 0x6CC SWAP2 SWAP1 PUSH2 0x760 JUMP JUMPDEST POP SWAP1 JUMP JUMPDEST POP DUP1 SLOAD PUSH1 0x0 DUP3 SSTORE SWAP1 PUSH1 0x0 MSTORE PUSH1 0x20 PUSH1 0x0 KECCAK256 SWAP1 DUP2 ADD SWAP1 PUSH2 0x6EE SWAP2 SWAP1 PUSH2 0x760 JUMP JUMPDEST POP JUMP JUMPDEST DUP3 DUP1 SLOAD DUP3 DUP3 SSTORE SWAP1 PUSH1 0x0 MSTORE PUSH1 0x20 PUSH1 0x0 KECCAK256 SWAP1 DUP2 ADD SWAP3 DUP3 ISZERO PUSH2 0x72D JUMPI SWAP2 PUSH1 0x20 MUL DUP3 ADD JUMPDEST DUP3 DUP2 GT ISZERO PUSH2 0x72C JUMPI DUP3 MLOAD DUP3 SSTORE SWAP2 PUSH1 0x20 ADD SWAP2 SWAP1 PUSH1 0x1 ADD SWAP1 PUSH2 0x711 JUMP JUMPDEST JUMPDEST POP SWAP1 POP PUSH2 0x73A SWAP2 SWAP1 PUSH2 0x760 JUMP JUMPDEST POP SWAP1 JUMP JUMPDEST PUSH1 0x40 MLOAD DUP1 PUSH1 0x40 ADD PUSH1 0x40 MSTORE DUP1 PUSH1 0x2 SWAP1 PUSH1 0x20 DUP3 MUL DUP1 CALLDATASIZE DUP4 CALLDATACOPY DUP1 DUP3 ADD SWAP2 POP POP SWAP1 POP POP SWAP1 JUMP JUMPDEST JUMPDEST DUP1 DUP3 GT ISZERO PUSH2 0x779 JUMPI PUSH1 0x0 DUP2 PUSH1 0x0 SWAP1 SSTORE POP PUSH1 0x1 ADD PUSH2 0x761 JUMP JUMPDEST POP SWAP1 JUMP JUMPDEST PUSH1 0x0 DUP1 REVERT JUMPDEST PUSH1 0x0 PUSH20 0xFFFFFFFFFFFFFFFFFFFFFFFFFFFFFFFFFFFFFFFF DUP3 AND SWAP1 POP SWAP2 SWAP1 POP JUMP JUMPDEST PUSH1 0x0 PUSH2 0x7AD DUP3 PUSH2 0x782 JUMP JUMPDEST SWAP1 POP SWAP2 SWAP1 POP JUMP JUMPDEST PUSH2 0x7BD DUP2 PUSH2 0x7A2 JUMP JUMPDEST DUP2 EQ PUSH2 0x7C8 JUMPI PUSH1 0x0 DUP1 REVERT JUMPDEST POP JUMP JUMPDEST PUSH1 0x0 DUP2 CALLDATALOAD SWAP1 POP PUSH2 0x7DA DUP2 PUSH2 0x7B4 JUMP JUMPDEST SWAP3 SWAP2 POP POP JUMP JUMPDEST PUSH1 0x0 DUP2 SWAP1 POP SWAP2 SWAP1 POP JUMP JUMPDEST PUSH2 0x7F3 DUP2 PUSH2 0x7E0 JUMP JUMPDEST DUP2 EQ PUSH2 0x7FE JUMPI PUSH1 0x0 DUP1 REVERT JUMPDEST POP JUMP JUMPDEST PUSH1 0x0 DUP2 CALLDATALOAD SWAP1 POP PUSH2 0x810 DUP2 PUSH2 0x7EA JUMP JUMPDEST SWAP3 SWAP2 POP POP JUMP JUMPDEST PUSH1 0x0 DUP1 PUSH1 0x40 DUP4 DUP6 SUB SLT ISZERO PUSH2 0x82D JUMPI PUSH2 0x82C PUSH2 0x77D JUMP JUMPDEST JUMPDEST PUSH1 0x0 PUSH2 0x83B DUP6 DUP3 DUP7 ADD PUSH2 0x7CB JUMP JUMPDEST SWAP3 POP POP PUSH1 0x20 PUSH2 0x84C DUP6 DUP3 DUP7 ADD PUSH2 0x801 JUMP JUMPDEST SWAP2 POP POP SWAP3 POP SWAP3 SWAP1 POP JUMP JUMPDEST PUSH1 0x0 PUSH1 0x20 DUP3 DUP5 SUB SLT ISZERO PUSH2 0x86C JUMPI PUSH2 0x86B PUSH2 0x77D JUMP JUMPDEST JUMPDEST PUSH1 0x0 PUSH2 0x87A DUP5 DUP3 DUP6 ADD PUSH2 0x801 JUMP JUMPDEST SWAP2 POP POP SWAP3 SWAP2 POP POP JUMP JUMPDEST PUSH1 0x0 DUP1 PUSH1 0x0 PUSH1 0x60 DUP5 DUP7 SUB SLT ISZERO PUSH2 0x89C JUMPI PUSH2 0x89B PUSH2 0x77D JUMP JUMPDEST JUMPDEST PUSH1 0x0 PUSH2 0x8AA DUP7 DUP3 DUP8 ADD PUSH2 0x7CB JUMP JUMPDEST SWAP4 POP POP PUSH1 0x20 PUSH2 0x8BB DUP7 DUP3 DUP8 ADD PUSH2 0x801 JUMP JUMPDEST SWAP3 POP POP PUSH1 0x40 PUSH2 0x8CC DUP7 DUP3 DUP8 ADD PUSH2 0x801 JUMP JUMPDEST SWAP2 POP POP SWAP3 POP SWAP3 POP SWAP3 JUMP JUMPDEST PUSH2 0x8DF DUP2 PUSH2 0x7E0 JUMP JUMPDEST DUP3 MSTORE POP POP JUMP JUMPDEST PUSH1 0x0 PUSH1 0x20 DUP3 ADD SWAP1 POP PUSH2 0x8FA PUSH1 0x0 DUP4 ADD DUP5 PUSH2 0x8D6 JUMP JUMPDEST SWAP3 SWAP2 POP POP JUMP JUMPDEST PUSH1 0x0 PUSH1 0x20 DUP3 DUP5 SUB SLT ISZERO PUSH2 0x916 JUMPI PUSH2 0x915 PUSH2 0x77D JUMP JUMPDEST JUMPDEST PUSH1 0x0 PUSH2 0x924 DUP5 DUP3 DUP6 ADD PUSH2 0x7CB JUMP JUMPDEST SWAP2 POP POP SWAP3 SWAP2 POP POP JUMP JUMPDEST PUSH32 0x4E487B7100000000000000000000000000000000000000000000000000000000 PUSH1 0x0 MSTORE PUSH1 0x32 PUSH1 0x4 MSTORE PUSH1 0x24 PUSH1 0x0 REVERT JUMPDEST PUSH32 0x4E487B7100000000000000000000000000000000000000000000000000000000 PUSH1 0x0 MSTORE PUSH1 0x11 PUSH1 0x4 MSTORE PUSH1 0x24 PUSH1 0x0 REVERT JUMPDEST PUSH1 0x0 PUSH2 0x996 DUP3 PUSH2 0x7E0 JUMP JUMPDEST SWAP2 POP PUSH2 0x9A1 DUP4 PUSH2 0x7E0 JUMP JUMPDEST SWAP3 POP DUP3 DUP3 SUB SWAP1 POP DUP2 DUP2 GT ISZERO PUSH2 0x9B9 JUMPI PUSH2 0x9B8 PUSH2 0x95C JUMP JUMPDEST JUMPDEST SWAP3 SWAP2 POP POP JUMP JUMPDEST PUSH1 0x0 PUSH2 0x9CA DUP3 PUSH2 0x7E0 JUMP JUMPDEST SWAP2 POP PUSH2 0x9D5 DUP4 PUSH2 0x7E0 JUMP JUMPDEST SWAP3 POP DUP3 DUP3 ADD SWAP1 POP DUP1 DUP3 GT ISZERO PUSH2 0x9ED JUMPI PUSH2 0x9EC PUSH2 0x95C JUMP JUMPDEST JUMPDEST SWAP3 SWAP2 POP POP JUMP JUMPDEST PUSH1 0x0 PUSH2 0x9FE DUP3 PUSH2 0x7E0 JUMP JUMPDEST SWAP2 POP PUSH32 0xFFFFFFFFFFFFFFFFFFFFFFFFFFFFFFFFFFFFFFFFFFFFFFFFFFFFFFFFFFFFFFFF DUP3 SUB PUSH2 0xA30 JUMPI PUSH2 0xA2F PUSH2 0x95C JUMP JUMPDEST JUMPDEST PUSH1 0x1 DUP3 ADD SWAP1 POP SWAP2 SWAP1 POP JUMP JUMPDEST PUSH32 0x4E487B7100000000000000000000000000000000000000000000000000000000 PUSH1 0x0 MSTORE PUSH1 0x31 PUSH1 0x4 MSTORE PUSH1 0x24 PUSH1 0x0 REVERT JUMPDEST PUSH1 0x0 DUP2 SWAP1 POP SWAP2 SWAP1 POP JUMP JUMPDEST PUSH1 0x0 PUSH2 0xA7F DUP3 PUSH2 0xA6A JUMP JUMPDEST SWAP2 POP PUSH32 0x7FFFFFFFFFFFFFFFFFFFFFFFFFFFFFFFFFFFFFFFFFFFFFFFFFFFFFFFFFFFFFFF DUP3 SUB PUSH2 0xAB1 JUMPI PUSH2 0xAB0 PUSH2 0x95C JUMP JUMPDEST JUMPDEST PUSH1 0x1 DUP3 ADD SWAP1 POP SWAP2 SWAP1 POP JUMP JUMPDEST PUSH1 0x0 PUSH2 0xAC7 DUP3 PUSH2 0xA6A JUMP JUMPDEST SWAP2 POP PUSH2 0xAD2 DUP4 PUSH2 0xA6A JUMP JUMPDEST SWAP3 POP DUP3 DUP3 SUB SWAP1 POP DUP2 DUP2 SLT PUSH1 0x0 DUP5 SLT AND DUP3 DUP3 SGT PUSH1 0x0 DUP6 SLT ISZERO AND OR ISZERO PUSH2 0xAF9 JUMPI PUSH2 0xAF8 PUSH2 0x95C JUMP JUMPDEST JUMPDEST SWAP3 SWAP2 POP POP JUMP INVALID LOG2 PUSH5 0x6970667358 0x22 SLT KECCAK256 SWAP8 0xE2 DUP10 0xEE SWAP2 PUSH32 0xA4E8E87DDC6D2643A6387C3987163A060D0C1D478546E63A8F5264736F6C6343 STOP ADDMOD GT STOP CALLER "
		},
		"gasEstimates": {
			"creation": {
				"codeDepositCost": "573800",
				"executionCost": "606",
				"totalCost": "574406"
			},
			"external": {
				"DeleteRecord(address,uint256)": "infinite",
				"GetDept(address)": "infinite",
				"_Borrower(address,uint256,uint256)": "infinite",
				"borrow(uint256)": "infinite"
			},
			"internal": {
				"DecreaseDept(address,int256)": "infinite"
			}
		},
		"methodIdentifiers": {
			"DeleteRecord(address,uint256)": "a6d1bafd",
			"GetDept(address)": "dd40c51c",
			"_Borrower(address,uint256,uint256)": "dac17428",
			"borrow(uint256)": "c5ebeaec"
		}
	},
	"abi": [
		{
			"inputs": [
				{
					"internalType": "address",
					"name": "borrower",
					"type": "address"
				},
				{
					"internalType": "uint256",
					"name": "amount",
					"type": "uint256"
				}
			],
			"name": "DeleteRecord",
			"outputs": [],
			"stateMutability": "nonpayable",
			"type": "function"
		},
		{
			"inputs": [
				{
					"internalType": "address",
					"name": "borrower",
					"type": "address"
				}
			],
			"name": "GetDept",
			"outputs": [
				{
					"internalType": "uint256",
					"name": "",
					"type": "uint256"
				}
			],
			"stateMutability": "view",
			"type": "function"
		},
		{
			"inputs": [
				{
					"internalType": "address",
					"name": "",
					"type": "address"
				},
				{
					"internalType": "uint256",
					"name": "",
					"type": "uint256"
				},
				{
					"internalType": "uint256",
					"name": "",
					"type": "uint256"
				}
			],
			"name": "_Borrower",
			"outputs": [
				{
					"internalType": "uint256",
					"name": "",
					"type": "uint256"
				}
			],
			"stateMutability": "view",
			"type": "function"
		},
		{
			"inputs": [
				{
					"internalType": "uint256",
					"name": "N",
					"type": "uint256"
				}
			],
			"name": "borrow",
			"outputs": [],
			"stateMutability": "nonpayable",
			"type": "function"
		}
	]
}